{
	"data": {
		"bytecode": {
			"linkReferences": {},
			"object": "60a060405234801561000f575f80fd5b50604051615c99380380615c99833981810160405281019061003191906107f3565b82828686612ee05f865f60015f6101000a81548160ff021916908315150217905550826001601d6101000a81548161ffff021916908361ffff1602179055508360025f6101000a81548173ffffffffffffffffffffffffffffffffffffffff021916908373ffffffffffffffffffffffffffffffffffffffff1602179055505f73ffffffffffffffffffffffffffffffffffffffff168273ffffffffffffffffffffffffffffffffffffffff16146100f7576100f55f801b836103c060201b60201c565b505b5f5b85518110156101585761014c7f724aface199fe5bed93ae8508474576a9adf3dc443b2c451842a2242919f19de878381518110610139576101386108d0565b5b60200260200101516103c060201b60201c565b508060010190506100f9565b505f5b81518110156101ba576101ae7fa49807205ce4d355092ef5a8a18f56e8913cf4a201fbe287825b095693c2177583838151811061019b5761019a6108d0565b5b60200260200101516103c060201b60201c565b5080600101905061015b565b5050505050505f8167ffffffffffffffff1603610203576040517f5f86e17700000000000000000000000000000000000000000000000000000000815260040160405180910390fd5b8067ffffffffffffffff1682511015610256578151816040517ff1c582ae00000000000000000000000000000000000000000000000000000000815260040161024d92919061090c565b60405180910390fd5b5f805b835181101561034b575f848281518110610276576102756108d0565b5b602002602001015190508273ffffffffffffffffffffffffffffffffffffffff168173ffffffffffffffffffffffffffffffffffffffff16116102e5576040517f0bf526fe00000000000000000000000000000000000000000000000000000000815260040160405180910390fd5b600160045f8373ffffffffffffffffffffffffffffffffffffffff1673ffffffffffffffffffffffffffffffffffffffff1681526020019081526020015f205f6101000a81548160ff021916908315150217905550809250508080600101915050610259565b50825160055f6101000a81548167ffffffffffffffff021916908367ffffffffffffffff16021790555081600560086101000a81548167ffffffffffffffff021916908367ffffffffffffffff1602179055505050508563ffffffff1660808163ffffffff168152505050505050505061098f565b5f7f74845de37cfabd357633214b47fa91ccd19b05b7c5a08ac22c187f811fb62bca831480156103fd57506103fb838361046360201b60201c565b155b1561044b576001601581819054906101000a900467ffffffffffffffff1661042490610960565b91906101000a81548167ffffffffffffffff021916908367ffffffffffffffff1602179055505b61045b83836104c660201b60201c565b905092915050565b5f805f8481526020019081526020015f205f015f8373ffffffffffffffffffffffffffffffffffffffff1673ffffffffffffffffffffffffffffffffffffffff1681526020019081526020015f205f9054906101000a900460ff16905092915050565b5f6104d7838361046360201b60201c565b6105b15760015f808581526020019081526020015f205f015f8473ffffffffffffffffffffffffffffffffffffffff1673ffffffffffffffffffffffffffffffffffffffff1681526020019081526020015f205f6101000a81548160ff02191690831515021790555061054e6105bb60201b60201c565b73ffffffffffffffffffffffffffffffffffffffff168273ffffffffffffffffffffffffffffffffffffffff16847f2f8788117e7eff1d82e926ec794901d17c78024a50270940304540a733656f0d60405160405180910390a4600190506105b5565b5f90505b92915050565b5f33905090565b5f604051905090565b5f80fd5b5f80fd5b5f63ffffffff82169050919050565b6105eb816105d3565b81146105f5575f80fd5b50565b5f81519050610606816105e2565b92915050565b5f80fd5b5f601f19601f8301169050919050565b7f4e487b71000000000000000000000000000000000000000000000000000000005f52604160045260245ffd5b61065682610610565b810181811067ffffffffffffffff8211171561067557610674610620565b5b80604052505050565b5f6106876105c2565b9050610693828261064d565b919050565b5f67ffffffffffffffff8211156106b2576106b1610620565b5b602082029050602081019050919050565b5f80fd5b5f73ffffffffffffffffffffffffffffffffffffffff82169050919050565b5f6106f0826106c7565b9050919050565b610700816106e6565b811461070a575f80fd5b50565b5f8151905061071b816106f7565b92915050565b5f61073361072e84610698565b61067e565b90508083825260208201905060208402830185811115610756576107556106c3565b5b835b8181101561077f578061076b888261070d565b845260208401935050602081019050610758565b5050509392505050565b5f82601f83011261079d5761079c61060c565b5b81516107ad848260208601610721565b91505092915050565b5f67ffffffffffffffff82169050919050565b6107d2816107b6565b81146107dc575f80fd5b50565b5f815190506107ed816107c9565b92915050565b5f805f805f8060c0878903121561080d5761080c6105cb565b5b5f61081a89828a016105f8565b965050602087015167ffffffffffffffff81111561083b5761083a6105cf565b5b61084789828a01610789565b955050604061085889828a0161070d565b945050606087015167ffffffffffffffff811115610879576108786105cf565b5b61088589828a01610789565b935050608061089689828a016107df565b92505060a087015167ffffffffffffffff8111156108b7576108b66105cf565b5b6108c389828a01610789565b9150509295509295509295565b7f4e487b71000000000000000000000000000000000000000000000000000000005f52603260045260245ffd5b610906816107b6565b82525050565b5f60408201905061091f5f8301856108fd565b61092c60208301846108fd565b9392505050565b7f4e487b71000000000000000000000000000000000000000000000000000000005f52601160045260245ffd5b5f61096a826107b6565b915067ffffffffffffffff820361098457610983610933565b5b600182019050919050565b6080516152e46109b55f395f818161199c01528181612288015261265401526152e45ff3fe60806040526004361061022e575f3560e01c80638585c9451161012d578063c7a823e0116100aa578063d547741f1161006e578063d547741f1461088d578063dafe0ccc146108b5578063f010cb23146108dd578063f3b4ebd014610919578063fd62e750146109415761022e565b8063c7a823e0146107ac578063c7b2370b146107e9578063cd88b90314610811578063cf34c76814610839578063d2ae2104146108635761022e565b8063aef18bf7116100f1578063aef18bf7146106ba578063b143044b146106f6578063c358de0a1461071e578063c416aa5114610746578063c5e193cd146107705761022e565b80638585c945146105be57806391d14854146105e657806395d376d7146106225780639e94496514610652578063a217fddf146106905761022e565b80632f2ff15d116101bb5780635553fb8e1161017f5780635553fb8e146104ca5780635c975abb14610506578063724e78da14610530578063736c0d5b14610558578063741bef1a146105945761022e565b80632f2ff15d146103ee57806330bb3aac1461041657806331cb61051461045257806336568abe1461047a57806352d3b871146104a25761022e565b806316c38b3c1161020257806316c38b3c146102e85780631703a01814610310578063248a9ca31461033a57806326e67a37146103765780632de11376146103b25761022e565b8062bf2e801461023257806301e336671461025c57806301ffc9a7146102845780631095b6d7146102c0575b5f80fd5b34801561023d575f80fd5b5061024661096b565b604051610253919061385c565b60405180910390f35b348015610267575f80fd5b50610282600480360381019061027d919061390a565b61097f565b005b34801561028f575f80fd5b506102aa60048036038101906102a591906139af565b6109ba565b6040516102b791906139f4565b60405180910390f35b3480156102cb575f80fd5b506102e660048036038101906102e1919061390a565b610a33565b005b3480156102f3575f80fd5b5061030e60048036038101906103099190613a37565b610b66565b005b34801561031b575f80fd5b50610324610b92565b6040516103319190613a84565b60405180910390f35b348015610345575f80fd5b50610360600480360381019061035b9190613ad0565b610bac565b60405161036d9190613b0a565b60405180910390f35b348015610381575f80fd5b5061039c60048036038101906103979190613b5c565b610bc8565b6040516103a99190613c4a565b60405180910390f35b3480156103bd575f80fd5b506103d860048036038101906103d39190613c6a565b610c5f565b6040516103e591906139f4565b60405180910390f35b3480156103f9575f80fd5b50610414600480360381019061040f9190613c95565b610d02565b005b348015610421575f80fd5b5061043c60048036038101906104379190613d5e565b610e8c565b6040516104499190613df1565b60405180910390f35b34801561045d575f80fd5b5061047860048036038101906104739190613e0a565b611055565b005b348015610485575f80fd5b506104a0600480360381019061049b9190613c95565b6110c8565b005b3480156104ad575f80fd5b506104c860048036038101906104c39190613e9d565b6110fa565b005b3480156104d5575f80fd5b506104f060048036038101906104eb9190613f12565b6112c6565b6040516104fd9190613df1565b60405180910390f35b348015610511575f80fd5b5061051a61149c565b60405161052791906139f4565b60405180910390f35b34801561053b575f80fd5b5061055660048036038101906105519190613c6a565b6114b1565b005b348015610563575f80fd5b5061057e60048036038101906105799190613c6a565b611556565b60405161058b91906139f4565b60405180910390f35b34801561059f575f80fd5b506105a8611573565b6040516105b59190613f85565b60405180910390f35b3480156105c9575f80fd5b506105e460048036038101906105df9190613f9e565b611598565b005b3480156105f1575f80fd5b5061060c60048036038101906106079190613c95565b611609565b60405161061991906139f4565b60405180910390f35b61063c60048036038101906106379190613feb565b61166c565b6040516106499190613df1565b60405180910390f35b34801561065d575f80fd5b5061067860048036038101906106739190613b5c565b6118b7565b6040516106879392919061408e565b60405180910390f35b34801561069b575f80fd5b506106a4611918565b6040516106b19190613b0a565b60405180910390f35b3480156106c5575f80fd5b506106e060048036038101906106db9190613ad0565b61191e565b6040516106ed91906139f4565b60405180910390f35b348015610701575f80fd5b5061071c60048036038101906107179190614118565b61193b565b005b348015610729575f80fd5b50610744600480360381019061073f9190614163565b611c68565b005b348015610751575f80fd5b5061075a611cea565b6040516107679190613f85565b60405180910390f35b34801561077b575f80fd5b5061079660048036038101906107919190613f12565b611d0e565b6040516107a39190613df1565b60405180910390f35b3480156107b7575f80fd5b506107d260048036038101906107cd919061418e565b611f47565b6040516107e092919061425e565b60405180910390f35b3480156107f4575f80fd5b5061080f600480360381019061080a9190613c6a565b612184565b005b34801561081c575f80fd5b50610837600480360381019061083291906142da565b612229565b005b348015610844575f80fd5b5061084d612286565b60405161085a9190614346565b60405180910390f35b34801561086e575f80fd5b506108776122aa565b6040516108849190613a84565b60405180910390f35b348015610898575f80fd5b506108b360048036038101906108ae9190613c95565b6122c4565b005b3480156108c0575f80fd5b506108db60048036038101906108d6919061439a565b61244e565b005b3480156108e8575f80fd5b5061090360048036038101906108fe91906143ea565b612546565b6040516109109190613b0a565b60405180910390f35b348015610924575f80fd5b5061093f600480360381019061093a919061448c565b612581565b005b34801561094c575f80fd5b50610955612852565b6040516109629190613a84565b60405180910390f35b6001601d9054906101000a900461ffff1681565b7fa49807205ce4d355092ef5a8a18f56e8913cf4a201fbe287825b095693c217756109a98161286b565b6109b484848461287f565b50505050565b5f7f7965db0b000000000000000000000000000000000000000000000000000000007bffffffffffffffffffffffffffffffffffffffffffffffffffffffff1916827bffffffffffffffffffffffffffffffffffffffffffffffffffffffff19161480610a2c5750610a2b826128d2565b5b9050919050565b7fa49807205ce4d355092ef5a8a18f56e8913cf4a201fbe287825b095693c21775610a5d8161286b565b610a877f724aface199fe5bed93ae8508474576a9adf3dc443b2c451842a2242919f19de85611609565b610abd576040517f5ee08b9700000000000000000000000000000000000000000000000000000000815260040160405180910390fd5b8373ffffffffffffffffffffffffffffffffffffffff1663fd9be52284846040518363ffffffff1660e01b8152600401610af89291906144d3565b5f604051808303815f87803b158015610b0f575f80fd5b505af1158015610b21573d5f803e3d5ffd5b505050507f9b1bfa7fa9ee420a16e124f794c35ac9f90472acc99140eb2f6447c714cad8eb848484604051610b58939291906144fa565b60405180910390a150505050565b5f801b610b728161286b565b8115610b8557610b8061293b565b610b8e565b610b8d61299c565b5b5050565b600560089054906101000a900467ffffffffffffffff1681565b5f805f8381526020019081526020015f20600101549050919050565b606060035f8363ffffffff1663ffffffff1681526020019081526020015f20805480602002602001604051908101604052809291908181526020018280548015610c5357602002820191905f5260205f20905f905b82829054906101000a900460ff1660ff16815260200190600101906020825f01049283019260010382029150808411610c1d5790505b50505050509050919050565b5f610c8a7f4270fae16c6d150d00e80b689daca99e8073b1838ff2b6063a37be9d851283e483611609565b15610c97575f9050610cfd565b5f600160159054906101000a900467ffffffffffffffff1667ffffffffffffffff161480610ceb5750610cea7f74845de37cfabd357633214b47fa91ccd19b05b7c5a08ac22c187f811fb62bca83611609565b5b15610cf95760019050610cfd565b5f90505b919050565b817f74845de37cfabd357633214b47fa91ccd19b05b7c5a08ac22c187f811fb62bca811480610d5057507f4270fae16c6d150d00e80b689daca99e8073b1838ff2b6063a37be9d851283e481145b80610d7a57507f724aface199fe5bed93ae8508474576a9adf3dc443b2c451842a2242919f19de81145b15610de9573373ffffffffffffffffffffffffffffffffffffffff163073ffffffffffffffffffffffffffffffffffffffff1614610de4576040517ffaba723a00000000000000000000000000000000000000000000000000000000815260040160405180910390fd5b610e7c565b7fa49807205ce4d355092ef5a8a18f56e8913cf4a201fbe287825b095693c217758103610e3e57610e397fa49807205ce4d355092ef5a8a18f56e8913cf4a201fbe287825b095693c2177561286b565b610e7b565b806040517f94fdc372000000000000000000000000000000000000000000000000000000008152600401610e729190613b0a565b60405180910390fd5b5b610e8683836129fd565b50505050565b5f83610e9781610c5f565b610ecd576040517f4ab5ebcd00000000000000000000000000000000000000000000000000000000815260040160405180910390fd5b5f6040518060c0016040528060025f9054906101000a900473ffffffffffffffffffffffffffffffffffffffff1673ffffffffffffffffffffffffffffffffffffffff1681526020018963ffffffff1681526020018867ffffffffffffffff1681526020018773ffffffffffffffffffffffffffffffffffffffff168152602001600560089054906101000a900467ffffffffffffffff1667ffffffffffffffff1681526020016001601d9054906101000a900461ffff1661ffff16815250905060018054906101000a900473ffffffffffffffffffffffffffffffffffffffff1673ffffffffffffffffffffffffffffffffffffffff16637bfa20a98260065f8c63ffffffff1663ffffffff1681526020019081526020015f2088886040518563ffffffff1660e01b8152600401611009949392919061474b565b602060405180830381865afa158015611024573d5f803e3d5ffd5b505050506040513d601f19601f82011682018060405250810190611048919061479f565b9250505095945050505050565b3373ffffffffffffffffffffffffffffffffffffffff163073ffffffffffffffffffffffffffffffffffffffff16146110ba576040517ffaba723a00000000000000000000000000000000000000000000000000000000815260040160405180910390fd5b6110c48282612a94565b5050565b6040517fdec9f03100000000000000000000000000000000000000000000000000000000815260040160405180910390fd5b7fa49807205ce4d355092ef5a8a18f56e8913cf4a201fbe287825b095693c217756111248161286b565b5f5b838390508110156112875736848483818110611145576111446147ca565b5b9050608002019050604051806060016040528082602001602081019061116b9190613f9e565b67ffffffffffffffff16815260200182604001602081019061118d9190614163565b61ffff1681526020018260600160208101906111a99190614821565b6fffffffffffffffffffffffffffffffff1681525060065f835f0160208101906111d39190613b5c565b63ffffffff1663ffffffff1681526020019081526020015f205f820151815f015f6101000a81548167ffffffffffffffff021916908367ffffffffffffffff1602179055506020820151815f0160086101000a81548161ffff021916908361ffff1602179055506040820151815f01600a6101000a8154816fffffffffffffffffffffffffffffffff02191690836fffffffffffffffffffffffffffffffff16021790555090505050806001019050611126565b507f7dd21e42791b013d1929e86f0c59085e4fca24251f0f1aa81917b3b1611766e083836040516112b99291906149b8565b60405180910390a1505050565b5f816112d181610c5f565b611307576040517f4ab5ebcd00000000000000000000000000000000000000000000000000000000815260040160405180910390fd5b5f6040518060c0016040528060025f9054906101000a900473ffffffffffffffffffffffffffffffffffffffff1673ffffffffffffffffffffffffffffffffffffffff1681526020018861ffff1663ffffffff1681526020018667ffffffffffffffff1681526020018573ffffffffffffffffffffffffffffffffffffffff168152602001600560089054906101000a900467ffffffffffffffff1667ffffffffffffffff1681526020016001601d9054906101000a900461ffff1661ffff16815250905060018054906101000a900473ffffffffffffffffffffffffffffffffffffffff1673ffffffffffffffffffffffffffffffffffffffff16637bfa20a98260065f8b61ffff1663ffffffff1681526020019081526020015f2060405180602001604052805f8152506040518463ffffffff1660e01b815260040161145193929190614a2a565b602060405180830381865afa15801561146c573d5f803e3d5ffd5b505050506040513d601f19601f82011682018060405250810190611490919061479f565b92505050949350505050565b5f60015f9054906101000a900460ff16905090565b7fa49807205ce4d355092ef5a8a18f56e8913cf4a201fbe287825b095693c217756114db8161286b565b8160025f6101000a81548173ffffffffffffffffffffffffffffffffffffffff021916908373ffffffffffffffffffffffffffffffffffffffff1602179055507ff724a45d041687842411f2b977ef22ab8f43c8f1104f4592b42a00f9b34a643d8260405161154a9190613f85565b60405180910390a15050565b6004602052805f5260405f205f915054906101000a900460ff1681565b60025f9054906101000a900473ffffffffffffffffffffffffffffffffffffffff1681565b3373ffffffffffffffffffffffffffffffffffffffff163073ffffffffffffffffffffffffffffffffffffffff16146115fd576040517ffaba723a00000000000000000000000000000000000000000000000000000000815260040160405180910390fd5b61160681612ca9565b50565b5f805f8481526020019081526020015f205f015f8373ffffffffffffffffffffffffffffffffffffffff1673ffffffffffffffffffffffffffffffffffffffff1681526020019081526020015f205f9054906101000a900460ff16905092915050565b5f7f724aface199fe5bed93ae8508474576a9adf3dc443b2c451842a2242919f19de6116978161286b565b8460800160208101906116aa9190613c6a565b6116b381610c5f565b6116e9576040517f4ab5ebcd00000000000000000000000000000000000000000000000000000000815260040160405180910390fd5b5f6040518060c0016040528060025f9054906101000a900473ffffffffffffffffffffffffffffffffffffffff1673ffffffffffffffffffffffffffffffffffffffff168152602001885f0160208101906117449190613b5c565b63ffffffff1681526020018860600160208101906117629190613f9e565b67ffffffffffffffff1681526020018860800160208101906117849190613c6a565b73ffffffffffffffffffffffffffffffffffffffff168152602001600560089054906101000a900467ffffffffffffffff1667ffffffffffffffff1681526020016001601d9054906101000a900461ffff1661ffff16815250905060018054906101000a900473ffffffffffffffffffffffffffffffffffffffff1673ffffffffffffffffffffffffffffffffffffffff1663df2b057e8260065f8b5f0160208101906118319190613b5c565b63ffffffff1663ffffffff1681526020019081526020015f2089896040518563ffffffff1660e01b815260040161186b949392919061474b565b6020604051808303815f875af1158015611887573d5f803e3d5ffd5b505050506040513d601f19601f820116820180604052508101906118ab919061479f565b93505050509392505050565b6006602052805f5260405f205f91509050805f015f9054906101000a900467ffffffffffffffff1690805f0160089054906101000a900461ffff1690805f01600a9054906101000a90046fffffffffffffffffffffffffffffffff16905083565b5f801b81565b6007602052805f5260405f205f915054906101000a900460ff1681565b7fa49807205ce4d355092ef5a8a18f56e8913cf4a201fbe287825b095693c217756119658161286b565b5f5b83839050811015611c625736848483818110611986576119856147ca565b5b90506020028101906119989190614a74565b90507f000000000000000000000000000000000000000000000000000000000000000063ffffffff16815f0160208101906119d39190613b5c565b63ffffffff16146119e45750611c57565b428160600135116119f55750611c57565b5f611a38825f016020810190611a0b9190613b5c565b836020016020810190611a1e9190613c6a565b848060400190611a2e9190614a9b565b8660600135612546565b90505f611a5482848060800190611a4f9190614a9b565b611f47565b50905080611a9b577fd6d90193101048cc1b6edcdc2348f5acf7a4a4a97d3e7b668b74cb7602ab3ebc84604051611a8b9190613df1565b60405180910390a1505050611c57565b5f611abf848060400190611aaf9190614a9b565b90611aba9190614b13565b612dc4565b90508015611b565760075f8481526020019081526020015f205f9054906101000a900460ff1615611b2c577f9bb9bddbdf537a2104255307230b323d7982f4512ee8e5bd15df62ddca50ab978484604051611b1b929190614cfc565b60405180910390a150505050611c57565b600160075f8581526020019081526020015f205f6101000a81548160ff0219169083151502179055505b5f80856020016020810190611b6b9190613c6a565b73ffffffffffffffffffffffffffffffffffffffff16868060400190611b919190614a9b565b604051611b9f929190614d58565b5f604051808303815f865af19150503d805f8114611bd8576040519150601f19603f3d011682016040523d82523d5f602084013e611bdd565b606091505b509150915081611c50578215611c16575f60075f8781526020019081526020015f205f6101000a81548160ff0219169083151502179055505b7fdc8cdd96296241bbefda4a8e18ad2e0985a8da6495b34d409cfc4c886ee3b0cf8782604051611c47929190614d70565b60405180910390a15b5050505050505b806001019050611967565b50505050565b7fa49807205ce4d355092ef5a8a18f56e8913cf4a201fbe287825b095693c21775611c928161286b565b816001601d6101000a81548161ffff021916908361ffff1602179055507f7af0ac740036ffb1c97b03697859d729e80a44ae5030543d64971c313565ab4d82604051611cde919061385c565b60405180910390a15050565b60018054906101000a900473ffffffffffffffffffffffffffffffffffffffff1681565b5f7f724aface199fe5bed93ae8508474576a9adf3dc443b2c451842a2242919f19de611d398161286b565b82611d4381610c5f565b611d79576040517f4ab5ebcd00000000000000000000000000000000000000000000000000000000815260040160405180910390fd5b5f6040518060c0016040528060025f9054906101000a900473ffffffffffffffffffffffffffffffffffffffff1673ffffffffffffffffffffffffffffffffffffffff1681526020018961ffff1663ffffffff1681526020018767ffffffffffffffff1681526020018673ffffffffffffffffffffffffffffffffffffffff168152602001600560089054906101000a900467ffffffffffffffff1667ffffffffffffffff1681526020016001601d9054906101000a900461ffff1661ffff16815250905060018054906101000a900473ffffffffffffffffffffffffffffffffffffffff1673ffffffffffffffffffffffffffffffffffffffff1663df2b057e8260065f8c61ffff1663ffffffff1681526020019081526020015f2060405180602001604052805f8152506040518463ffffffff1660e01b8152600401611ec393929190614a2a565b6020604051808303815f875af1158015611edf573d5f803e3d5ffd5b505050506040513d601f19601f82011682018060405250810190611f03919061479f565b93507f87e46b0a6199bc734632187269a103c05714ee0adae5b28f30723955724f37ef84604051611f349190613df1565b60405180910390a1505050949350505050565b5f806041600560089054906101000a900467ffffffffffffffff1667ffffffffffffffff16611f769190614dcb565b8484905014611f8b575f60019150915061217c565b5f611f9586612e66565b90505f805b600560089054906101000a900467ffffffffffffffff1667ffffffffffffffff1681101561217157365f8888604185611fd39190614dcb565b906041600187611fe39190614e0c565b611fed9190614dcb565b92611ffa93929190614e47565b915091505f805f61204e8886868080601f0160208091040260200160405190810160405280939291908181526020018383808284375f81840152601f19601f82011690508083019250505050505050612e95565b9250925092506041602060ff1614612074575f600299509950505050505050505061217c565b5f6003811115612087576120866141eb565b5b82600381111561209a576120996141eb565b5b146120b3575f600199509950505050505050505061217c565b8673ffffffffffffffffffffffffffffffffffffffff168373ffffffffffffffffffffffffffffffffffffffff16116120fa575f600399509950505050505050505061217c565b60045f8473ffffffffffffffffffffffffffffffffffffffff1673ffffffffffffffffffffffffffffffffffffffff1681526020019081526020015f205f9054906101000a900460ff1661215c575f600499509950505050505050505061217c565b82965050505050508080600101915050611f9a565b5060015f9350935050505b935093915050565b7fa49807205ce4d355092ef5a8a18f56e8913cf4a201fbe287825b095693c217756121ae8161286b565b816001806101000a81548173ffffffffffffffffffffffffffffffffffffffff021916908373ffffffffffffffffffffffffffffffffffffffff1602179055507f1399be28223800f8669b3ba5f8721d9fc16fc4e8d0bbf98378791c8c5a3015e08260405161221d9190613f85565b60405180910390a15050565b7fa49807205ce4d355092ef5a8a18f56e8913cf4a201fbe287825b095693c217756122538161286b565b828260035f8763ffffffff1663ffffffff1681526020019081526020015f20919061227f929190613780565b5050505050565b7f000000000000000000000000000000000000000000000000000000000000000081565b600160159054906101000a900467ffffffffffffffff1681565b817f74845de37cfabd357633214b47fa91ccd19b05b7c5a08ac22c187f811fb62bca81148061231257507f4270fae16c6d150d00e80b689daca99e8073b1838ff2b6063a37be9d851283e481145b8061233c57507f724aface199fe5bed93ae8508474576a9adf3dc443b2c451842a2242919f19de81145b156123ab573373ffffffffffffffffffffffffffffffffffffffff163073ffffffffffffffffffffffffffffffffffffffff16146123a6576040517ffaba723a00000000000000000000000000000000000000000000000000000000815260040160405180910390fd5b61243e565b7fa49807205ce4d355092ef5a8a18f56e8913cf4a201fbe287825b095693c217758103612400576123fb7fa49807205ce4d355092ef5a8a18f56e8913cf4a201fbe287825b095693c2177561286b565b61243d565b806040517f94fdc3720000000000000000000000000000000000000000000000000000000081526004016124349190613b0a565b60405180910390fd5b5b6124488383612eea565b50505050565b7fa49807205ce4d355092ef5a8a18f56e8913cf4a201fbe287825b095693c217756124788161286b565b6124a27f724aface199fe5bed93ae8508474576a9adf3dc443b2c451842a2242919f19de85611609565b6124d8576040517f5ee08b9700000000000000000000000000000000000000000000000000000000815260040160405180910390fd5b8373ffffffffffffffffffffffffffffffffffffffff166307b18bde84846040518363ffffffff1660e01b8152600401612513929190614e90565b5f604051808303815f87803b15801561252a575f80fd5b505af115801561253c573d5f803e3d5ffd5b5050505050505050565b5f8585838686604051602001612560959493929190614f50565b60405160208183030381529060405280519060200120905095945050505050565b428160600135116125be576040517f0bbaf26300000000000000000000000000000000000000000000000000000000815260040160405180910390fd5b3073ffffffffffffffffffffffffffffffffffffffff168160200160208101906125e89190613c6a565b73ffffffffffffffffffffffffffffffffffffffff1614612652578060200160208101906126169190613c6a565b6040517f1ce0bfcd0000000000000000000000000000000000000000000000000000000081526004016126499190613f85565b60405180910390fd5b7f000000000000000000000000000000000000000000000000000000000000000063ffffffff16815f01602081019061268b9190613b5c565b63ffffffff16146126e457805f0160208101906126a89190613b5c565b6040517f2697e1c20000000000000000000000000000000000000000000000000000000081526004016126db9190614346565b60405180910390fd5b5f612727825f0160208101906126fa9190613b5c565b83602001602081019061270d9190613c6a565b84806040019061271d9190614a9b565b8660600135612546565b90505f6127438284806080019061273e9190614a9b565b611f47565b5090508061277d576040517f15ecadee00000000000000000000000000000000000000000000000000000000815260040160405180910390fd5b60075f8381526020019081526020015f205f9054906101000a900460ff16156127dd57816040517f9d6a45a60000000000000000000000000000000000000000000000000000000081526004016127d49190613b0a565b60405180910390fd5b600160075f8481526020019081526020015f205f6101000a81548160ff02191690831515021790555061284c7fa49807205ce4d355092ef5a8a18f56e8913cf4a201fbe287825b095693c2177584806040019061283a9190614a9b565b8101906128479190614f9b565b6129fd565b50505050565b60055f9054906101000a900467ffffffffffffffff1681565b61287c81612877612f80565b612f87565b50565b5f73ffffffffffffffffffffffffffffffffffffffff168373ffffffffffffffffffffffffffffffffffffffff16036128c1576128bc8282612fd8565b6128cd565b6128cc8383836130ee565b5b505050565b5f7f01ffc9a7000000000000000000000000000000000000000000000000000000007bffffffffffffffffffffffffffffffffffffffffffffffffffffffff1916827bffffffffffffffffffffffffffffffffffffffffffffffffffffffff1916149050919050565b612943613183565b6001805f6101000a81548160ff0219169083151502179055507f62e78cea01bee320cd4e420270b5ea74000d11b0c9f74754ebdbfc544b05a258612985612f80565b6040516129929190613f85565b60405180910390a1565b6129a46131c4565b5f60015f6101000a81548160ff0219169083151502179055507f5db9ee0a495bf2e6ff9c91a7834c1ba4fdd244a5e8aa4e537bd38aeae4b073aa6129e6612f80565b6040516129f39190613f85565b60405180910390a1565b5f7f74845de37cfabd357633214b47fa91ccd19b05b7c5a08ac22c187f811fb62bca83148015612a345750612a328383611609565b155b15612a82576001601581819054906101000a900467ffffffffffffffff16612a5b90614fc6565b91906101000a81548167ffffffffffffffff021916908367ffffffffffffffff1602179055505b612a8c8383613204565b905092915050565b80151560045f8473ffffffffffffffffffffffffffffffffffffffff1673ffffffffffffffffffffffffffffffffffffffff1681526020019081526020015f205f9054906101000a900460ff16151503612b275781816040517f58c8d2a0000000000000000000000000000000000000000000000000000000008152600401612b1e929190614ff5565b60405180910390fd5b8060045f8473ffffffffffffffffffffffffffffffffffffffff1673ffffffffffffffffffffffffffffffffffffffff1681526020019081526020015f205f6101000a81548160ff0219169083151502179055505f81612ba857600160055f9054906101000a900467ffffffffffffffff16612ba3919061501c565b612bcb565b600160055f9054906101000a900467ffffffffffffffff16612bca9190615057565b5b90505f600560089054906101000a900467ffffffffffffffff1690508067ffffffffffffffff168267ffffffffffffffff161015612c425781816040517ff1c582ae000000000000000000000000000000000000000000000000000000008152600401612c39929190615092565b60405180910390fd5b8160055f6101000a81548167ffffffffffffffff021916908367ffffffffffffffff1602179055507f863d338cad74814b108a06288ad5e0e80d56495e0332238b1d2cdcfa0ca8e5ce8484604051612c9b929190614ff5565b60405180910390a150505050565b5f8167ffffffffffffffff1603612cec576040517f5f86e17700000000000000000000000000000000000000000000000000000000815260040160405180910390fd5b5f60055f9054906101000a900467ffffffffffffffff1690508167ffffffffffffffff168167ffffffffffffffff161015612d605780826040517ff1c582ae000000000000000000000000000000000000000000000000000000008152600401612d57929190615092565b60405180910390fd5b81600560086101000a81548167ffffffffffffffff021916908367ffffffffffffffff1602179055507fb600f3cf7f38a4b49bb0c75f722ef69f7e3e39ef3bb4aa8207fd86e724a2324982604051612db89190613a84565b60405180910390a15050565b5f630223536e60e01b7bffffffffffffffffffffffffffffffffffffffffffffffffffffffff1916827bffffffffffffffffffffffffffffffffffffffffffffffffffffffff191614158015612e5f575063704316e560e01b7bffffffffffffffffffffffffffffffffffffffffffffffffffffffff1916827bffffffffffffffffffffffffffffffffffffffffffffffffffffffff191614155b9050919050565b5f81604051602001612e78919061512d565b604051602081830303815290604052805190602001209050919050565b5f805f6041845103612ed5575f805f602087015192506040870151915060608701515f1a9050612ec7888285856132ed565b955095509550505050612ee3565b5f600285515f1b9250925092505b9250925092565b5f7f74845de37cfabd357633214b47fa91ccd19b05b7c5a08ac22c187f811fb62bca83148015612f205750612f1f8383611609565b5b15612f6e576001601581819054906101000a900467ffffffffffffffff16612f4790615152565b91906101000a81548167ffffffffffffffff021916908367ffffffffffffffff1602179055505b612f7883836133d4565b905092915050565b5f33905090565b612f918282611609565b612fd45780826040517fe2517d3f000000000000000000000000000000000000000000000000000000008152600401612fcb929190615179565b60405180910390fd5b5050565b5f73ffffffffffffffffffffffffffffffffffffffff168273ffffffffffffffffffffffffffffffffffffffff160361303d576040517f6b7a931000000000000000000000000000000000000000000000000000000000815260040160405180910390fd5b5f8273ffffffffffffffffffffffffffffffffffffffff1682604051613062906151c3565b5f6040518083038185875af1925050503d805f811461309c576040519150601f19603f3d011682016040523d82523d5f602084013e6130a1565b606091505b50509050806130e95782826040517f465bc8340000000000000000000000000000000000000000000000000000000081526004016130e09291906144d3565b60405180910390fd5b505050565b5f73ffffffffffffffffffffffffffffffffffffffff168273ffffffffffffffffffffffffffffffffffffffff1603613153576040517f6b7a931000000000000000000000000000000000000000000000000000000000815260040160405180910390fd5b61317e82828573ffffffffffffffffffffffffffffffffffffffff166134bd9092919063ffffffff16565b505050565b61318b61149c565b156131c2576040517fd93c066500000000000000000000000000000000000000000000000000000000815260040160405180910390fd5b565b6131cc61149c565b613202576040517f8dfc202b00000000000000000000000000000000000000000000000000000000815260040160405180910390fd5b565b5f61320f8383611609565b6132e35760015f808581526020019081526020015f205f015f8473ffffffffffffffffffffffffffffffffffffffff1673ffffffffffffffffffffffffffffffffffffffff1681526020019081526020015f205f6101000a81548160ff021916908315150217905550613280612f80565b73ffffffffffffffffffffffffffffffffffffffff168273ffffffffffffffffffffffffffffffffffffffff16847f2f8788117e7eff1d82e926ec794901d17c78024a50270940304540a733656f0d60405160405180910390a4600190506132e7565b5f90505b92915050565b5f805f7f7fffffffffffffffffffffffffffffff5d576e7357a4501ddfe92f46681b20a0845f1c1115613329575f6003859250925092506133ca565b5f6001888888886040515f815260200160405260405161334c94939291906151e6565b6020604051602081039080840390855afa15801561336c573d5f803e3d5ffd5b5050506020604051035190505f73ffffffffffffffffffffffffffffffffffffffff168173ffffffffffffffffffffffffffffffffffffffff16036133bd575f60015f801b935093509350506133ca565b805f805f1b935093509350505b9450945094915050565b5f6133df8383611609565b156134b3575f805f8581526020019081526020015f205f015f8473ffffffffffffffffffffffffffffffffffffffff1673ffffffffffffffffffffffffffffffffffffffff1681526020019081526020015f205f6101000a81548160ff021916908315150217905550613450612f80565b73ffffffffffffffffffffffffffffffffffffffff168273ffffffffffffffffffffffffffffffffffffffff16847ff6391f5c32d9c69d2a47ea670b442974b53935d1edc7fd64eb21e047a839171b60405160405180910390a4600190506134b7565b5f90505b92915050565b613537838473ffffffffffffffffffffffffffffffffffffffff1663a9059cbb85856040516024016134f09291906144d3565b604051602081830303815290604052915060e01b6020820180517bffffffffffffffffffffffffffffffffffffffffffffffffffffffff838183161783525050505061353c565b505050565b5f613566828473ffffffffffffffffffffffffffffffffffffffff166135d190919063ffffffff16565b90505f81511415801561358a575080806020019051810190613588919061523d565b155b156135cc57826040517f5274afe70000000000000000000000000000000000000000000000000000000081526004016135c39190613f85565b60405180910390fd5b505050565b60606135de83835f6135e6565b905092915050565b60608147101561362d57306040517fcd7860590000000000000000000000000000000000000000000000000000000081526004016136249190613f85565b60405180910390fd5b5f808573ffffffffffffffffffffffffffffffffffffffff1684866040516136559190615298565b5f6040518083038185875af1925050503d805f811461368f576040519150601f19603f3d011682016040523d82523d5f602084013e613694565b606091505b50915091506136a48683836136af565b925050509392505050565b6060826136c4576136bf8261373c565b613734565b5f82511480156136ea57505f8473ffffffffffffffffffffffffffffffffffffffff163b145b1561372c57836040517f9996b3150000000000000000000000000000000000000000000000000000000081526004016137239190613f85565b60405180910390fd5b819050613735565b5b9392505050565b5f8151111561374e5780518082602001fd5b6040517f1425ea4200000000000000000000000000000000000000000000000000000000815260040160405180910390fd5b828054828255905f5260205f2090601f01602090048101928215613814579160200282015f5b838211156137e657833560ff1683826101000a81548160ff021916908360ff16021790555092602001926001016020815f010492830192600103026137a6565b80156138125782816101000a81549060ff02191690556001016020815f010492830192600103026137e6565b505b5090506138219190613825565b5090565b5b8082111561383c575f815f905550600101613826565b5090565b5f61ffff82169050919050565b61385681613840565b82525050565b5f60208201905061386f5f83018461384d565b92915050565b5f80fd5b5f80fd5b5f73ffffffffffffffffffffffffffffffffffffffff82169050919050565b5f6138a68261387d565b9050919050565b6138b68161389c565b81146138c0575f80fd5b50565b5f813590506138d1816138ad565b92915050565b5f819050919050565b6138e9816138d7565b81146138f3575f80fd5b50565b5f81359050613904816138e0565b92915050565b5f805f6060848603121561392157613920613875565b5b5f61392e868287016138c3565b935050602061393f868287016138c3565b9250506040613950868287016138f6565b9150509250925092565b5f7fffffffff0000000000000000000000000000000000000000000000000000000082169050919050565b61398e8161395a565b8114613998575f80fd5b50565b5f813590506139a981613985565b92915050565b5f602082840312156139c4576139c3613875565b5b5f6139d18482850161399b565b91505092915050565b5f8115159050919050565b6139ee816139da565b82525050565b5f602082019050613a075f8301846139e5565b92915050565b613a16816139da565b8114613a20575f80fd5b50565b5f81359050613a3181613a0d565b92915050565b5f60208284031215613a4c57613a4b613875565b5b5f613a5984828501613a23565b91505092915050565b5f67ffffffffffffffff82169050919050565b613a7e81613a62565b82525050565b5f602082019050613a975f830184613a75565b92915050565b5f819050919050565b613aaf81613a9d565b8114613ab9575f80fd5b50565b5f81359050613aca81613aa6565b92915050565b5f60208284031215613ae557613ae4613875565b5b5f613af284828501613abc565b91505092915050565b613b0481613a9d565b82525050565b5f602082019050613b1d5f830184613afb565b92915050565b5f63ffffffff82169050919050565b613b3b81613b23565b8114613b45575f80fd5b50565b5f81359050613b5681613b32565b92915050565b5f60208284031215613b7157613b70613875565b5b5f613b7e84828501613b48565b91505092915050565b5f81519050919050565b5f82825260208201905092915050565b5f819050602082019050919050565b5f60ff82169050919050565b613bc581613bb0565b82525050565b5f613bd68383613bbc565b60208301905092915050565b5f602082019050919050565b5f613bf882613b87565b613c028185613b91565b9350613c0d83613ba1565b805f5b83811015613c3d578151613c248882613bcb565b9750613c2f83613be2565b925050600181019050613c10565b5085935050505092915050565b5f6020820190508181035f830152613c628184613bee565b905092915050565b5f60208284031215613c7f57613c7e613875565b5b5f613c8c848285016138c3565b91505092915050565b5f8060408385031215613cab57613caa613875565b5b5f613cb885828601613abc565b9250506020613cc9858286016138c3565b9150509250929050565b613cdc81613a62565b8114613ce6575f80fd5b50565b5f81359050613cf781613cd3565b92915050565b5f80fd5b5f80fd5b5f80fd5b5f8083601f840112613d1e57613d1d613cfd565b5b8235905067ffffffffffffffff811115613d3b57613d3a613d01565b5b602083019150836001820283011115613d5757613d56613d05565b5b9250929050565b5f805f805f60808688031215613d7757613d76613875565b5b5f613d8488828901613b48565b9550506020613d9588828901613ce9565b9450506040613da6888289016138c3565b935050606086013567ffffffffffffffff811115613dc757613dc6613879565b5b613dd388828901613d09565b92509250509295509295909350565b613deb816138d7565b82525050565b5f602082019050613e045f830184613de2565b92915050565b5f8060408385031215613e2057613e1f613875565b5b5f613e2d858286016138c3565b9250506020613e3e85828601613a23565b9150509250929050565b5f8083601f840112613e5d57613e5c613cfd565b5b8235905067ffffffffffffffff811115613e7a57613e79613d01565b5b602083019150836080820283011115613e9657613e95613d05565b5b9250929050565b5f8060208385031215613eb357613eb2613875565b5b5f83013567ffffffffffffffff811115613ed057613ecf613879565b5b613edc85828601613e48565b92509250509250929050565b613ef181613840565b8114613efb575f80fd5b50565b5f81359050613f0c81613ee8565b92915050565b5f805f8060808587031215613f2a57613f29613875565b5b5f613f3787828801613efe565b9450506020613f4887828801613efe565b9350506040613f5987828801613ce9565b9250506060613f6a878288016138c3565b91505092959194509250565b613f7f8161389c565b82525050565b5f602082019050613f985f830184613f76565b92915050565b5f60208284031215613fb357613fb2613875565b5b5f613fc084828501613ce9565b91505092915050565b5f80fd5b5f60a08284031215613fe257613fe1613fc9565b5b81905092915050565b5f805f6040848603121561400257614001613875565b5b5f84013567ffffffffffffffff81111561401f5761401e613879565b5b61402b86828701613fcd565b935050602084013567ffffffffffffffff81111561404c5761404b613879565b5b61405886828701613d09565b92509250509250925092565b5f6fffffffffffffffffffffffffffffffff82169050919050565b61408881614064565b82525050565b5f6060820190506140a15f830186613a75565b6140ae602083018561384d565b6140bb604083018461407f565b949350505050565b5f8083601f8401126140d8576140d7613cfd565b5b8235905067ffffffffffffffff8111156140f5576140f4613d01565b5b60208301915083602082028301111561411157614110613d05565b5b9250929050565b5f806020838503121561412e5761412d613875565b5b5f83013567ffffffffffffffff81111561414b5761414a613879565b5b614157858286016140c3565b92509250509250929050565b5f6020828403121561417857614177613875565b5b5f61418584828501613efe565b91505092915050565b5f805f604084860312156141a5576141a4613875565b5b5f6141b286828701613abc565b935050602084013567ffffffffffffffff8111156141d3576141d2613879565b5b6141df86828701613d09565b92509250509250925092565b7f4e487b71000000000000000000000000000000000000000000000000000000005f52602160045260245ffd5b60058110614229576142286141eb565b5b50565b5f81905061423982614218565b919050565b5f6142488261422c565b9050919050565b6142588161423e565b82525050565b5f6040820190506142715f8301856139e5565b61427e602083018461424f565b9392505050565b5f8083601f84011261429a57614299613cfd565b5b8235905067ffffffffffffffff8111156142b7576142b6613d01565b5b6020830191508360208202830111156142d3576142d2613d05565b5b9250929050565b5f805f604084860312156142f1576142f0613875565b5b5f6142fe86828701613b48565b935050602084013567ffffffffffffffff81111561431f5761431e613879565b5b61432b86828701614285565b92509250509250925092565b61434081613b23565b82525050565b5f6020820190506143595f830184614337565b92915050565b5f6143698261387d565b9050919050565b6143798161435f565b8114614383575f80fd5b50565b5f8135905061439481614370565b92915050565b5f805f606084860312156143b1576143b0613875565b5b5f6143be868287016138c3565b93505060206143cf86828701614386565b92505060406143e0868287016138f6565b9150509250925092565b5f805f805f6080868803121561440357614402613875565b5b5f61441088828901613b48565b9550506020614421888289016138c3565b945050604086013567ffffffffffffffff81111561444257614441613879565b5b61444e88828901613d09565b93509350506060614461888289016138f6565b9150509295509295909350565b5f60a0828403121561448357614482613fc9565b5b81905092915050565b5f602082840312156144a1576144a0613875565b5b5f82013567ffffffffffffffff8111156144be576144bd613879565b5b6144ca8482850161446e565b91505092915050565b5f6040820190506144e65f830185613f76565b6144f36020830184613de2565b9392505050565b5f60608201905061450d5f830186613f76565b61451a6020830185613f76565b6145276040830184613de2565b949350505050565b6145388161389c565b82525050565b61454781613b23565b82525050565b61455681613a62565b82525050565b61456581613840565b82525050565b60c082015f82015161457f5f85018261452f565b506020820151614592602085018261453e565b5060408201516145a5604085018261454d565b5060608201516145b8606085018261452f565b5060808201516145cb608085018261454d565b5060a08201516145de60a085018261455c565b50505050565b5f815f1c9050919050565b5f67ffffffffffffffff82169050919050565b5f61461461460f836145e4565b6145ef565b9050919050565b5f8160401c9050919050565b5f61ffff82169050919050565b5f6146466146418361461b565b614627565b9050919050565b5f8160501c9050919050565b5f6fffffffffffffffffffffffffffffffff82169050919050565b5f6146866146818361464d565b614659565b9050919050565b61469681614064565b82525050565b606082015f8083015490506146b081614602565b6146bc5f86018261454d565b506146c681614634565b6146d3602086018261455c565b506146dd81614674565b6146ea604086018261468d565b5050505050565b5f82825260208201905092915050565b828183375f83830152505050565b5f601f19601f8301169050919050565b5f61472a83856146f1565b9350614737838584614701565b6147408361470f565b840190509392505050565b5f6101408201905061475f5f83018761456b565b61476c60c083018661469c565b81810361012083015261478081848661471f565b905095945050505050565b5f81519050614799816138e0565b92915050565b5f602082840312156147b4576147b3613875565b5b5f6147c18482850161478b565b91505092915050565b7f4e487b71000000000000000000000000000000000000000000000000000000005f52603260045260245ffd5b61480081614064565b811461480a575f80fd5b50565b5f8135905061481b816147f7565b92915050565b5f6020828403121561483657614835613875565b5b5f6148438482850161480d565b91505092915050565b5f82825260208201905092915050565b5f819050919050565b5f6148736020840184613b48565b905092915050565b5f6148896020840184613ce9565b905092915050565b5f61489f6020840184613efe565b905092915050565b5f6148b5602084018461480d565b905092915050565b608082016148cd5f830183614865565b6148d95f85018261453e565b506148e7602083018361487b565b6148f4602085018261454d565b506149026040830183614891565b61490f604085018261455c565b5061491d60608301836148a7565b61492a606085018261468d565b50505050565b5f61493b83836148bd565b60808301905092915050565b5f82905092915050565b5f608082019050919050565b5f614968838561484c565b93506149738261485c565b805f5b858110156149ab576149888284614947565b6149928882614930565b975061499d83614951565b925050600181019050614976565b5085925050509392505050565b5f6020820190508181035f8301526149d181848661495d565b90509392505050565b5f81519050919050565b8281835e5f83830152505050565b5f6149fc826149da565b614a0681856146f1565b9350614a168185602086016149e4565b614a1f8161470f565b840191505092915050565b5f61014082019050614a3e5f83018661456b565b614a4b60c083018561469c565b818103610120830152614a5e81846149f2565b9050949350505050565b5f80fd5b5f80fd5b5f80fd5b5f8235600160a003833603038112614a8f57614a8e614a68565b5b80830191505092915050565b5f8083356001602003843603038112614ab757614ab6614a68565b5b80840192508235915067ffffffffffffffff821115614ad957614ad8614a6c565b5b602083019250600182023603831315614af557614af4614a70565b5b509250929050565b5f82905092915050565b5f82821b905092915050565b5f614b1e8383614afd565b82614b29813561395a565b92506004821015614b6957614b647fffffffff0000000000000000000000000000000000000000000000000000000083600403600802614b07565b831692505b505092915050565b5f614b7f60208401846138c3565b905092915050565b5f80fd5b5f80fd5b5f80fd5b5f8083356001602003843603038112614baf57614bae614b8f565b5b83810192508235915060208301925067ffffffffffffffff821115614bd757614bd6614b87565b5b600182023603831315614bed57614bec614b8b565b5b509250929050565b5f82825260208201905092915050565b5f614c108385614bf5565b9350614c1d838584614701565b614c268361470f565b840190509392505050565b5f614c3f60208401846138f6565b905092915050565b614c50816138d7565b82525050565b5f60a08301614c675f840184614865565b614c735f86018261453e565b50614c816020840184614b71565b614c8e602086018261452f565b50614c9c6040840184614b93565b8583036040870152614caf838284614c05565b92505050614cc06060840184614c31565b614ccd6060860182614c47565b50614cdb6080840184614b93565b8583036080870152614cee838284614c05565b925050508091505092915050565b5f6040820190508181035f830152614d148185614c56565b9050614d236020830184613afb565b9392505050565b5f81905092915050565b5f614d3f8385614d2a565b9350614d4c838584614701565b82840190509392505050565b5f614d64828486614d34565b91508190509392505050565b5f604082019050614d835f830185613de2565b8181036020830152614d9581846149f2565b90509392505050565b7f4e487b71000000000000000000000000000000000000000000000000000000005f52601160045260245ffd5b5f614dd5826138d7565b9150614de0836138d7565b9250828202614dee816138d7565b91508282048414831517614e0557614e04614d9e565b5b5092915050565b5f614e16826138d7565b9150614e21836138d7565b9250828201905080821115614e3957614e38614d9e565b5b92915050565b5f80fd5b5f80fd5b5f8085851115614e5a57614e59614e3f565b5b83861115614e6b57614e6a614e43565b5b6001850283019150848603905094509492505050565b614e8a8161435f565b82525050565b5f604082019050614ea35f830185614e81565b614eb06020830184613de2565b9392505050565b5f8160e01b9050919050565b5f614ecd82614eb7565b9050919050565b614ee5614ee082613b23565b614ec3565b82525050565b5f8160601b9050919050565b5f614f0182614eeb565b9050919050565b5f614f1282614ef7565b9050919050565b614f2a614f258261389c565b614f08565b82525050565b5f819050919050565b614f4a614f45826138d7565b614f30565b82525050565b5f614f5b8288614ed4565b600482019150614f6b8287614f19565b601482019150614f7b8286614f39565b602082019150614f8c828486614d34565b91508190509695505050505050565b5f60208284031215614fb057614faf613875565b5b5f614fbd84828501614386565b91505092915050565b5f614fd082613a62565b915067ffffffffffffffff8203614fea57614fe9614d9e565b5b600182019050919050565b5f6040820190506150085f830185613f76565b61501560208301846139e5565b9392505050565b5f61502682613a62565b915061503183613a62565b9250828203905067ffffffffffffffff81111561505157615050614d9e565b5b92915050565b5f61506182613a62565b915061506c83613a62565b9250828201905067ffffffffffffffff81111561508c5761508b614d9e565b5b92915050565b5f6040820190506150a55f830185613a75565b6150b26020830184613a75565b9392505050565b5f81905092915050565b7f19457468657265756d205369676e6564204d6573736167653a0a3332000000005f82015250565b5f6150f7601c836150b9565b9150615102826150c3565b601c82019050919050565b5f819050919050565b61512761512282613a9d565b61510d565b82525050565b5f615137826150eb565b91506151438284615116565b60208201915081905092915050565b5f61515c82613a62565b91505f820361516e5761516d614d9e565b5b600182039050919050565b5f60408201905061518c5f830185613f76565b6151996020830184613afb565b9392505050565b50565b5f6151ae5f83614d2a565b91506151b9826151a0565b5f82019050919050565b5f6151cd826151a3565b9150819050919050565b6151e081613bb0565b82525050565b5f6080820190506151f95f830187613afb565b61520660208301866151d7565b6152136040830185613afb565b6152206060830184613afb565b95945050505050565b5f8151905061523781613a0d565b92915050565b5f6020828403121561525257615251613875565b5b5f61525f84828501615229565b91505092915050565b5f615272826149da565b61527c8185614d2a565b935061528c8185602086016149e4565b80840191505092915050565b5f6152a38284615268565b91508190509291505056fea2646970667358221220fa5e449e861cbd39b1faa87d27f9fc4c6d3acb23a236e736fe4b92ab93eaf2c664736f6c634300081a0033",
			"opcodes": "PUSH1 0xA0 PUSH1 0x40 MSTORE CALLVALUE DUP1 ISZERO PUSH2 0xF JUMPI PUSH0 DUP1 REVERT JUMPDEST POP PUSH1 0x40 MLOAD PUSH2 0x5C99 CODESIZE SUB DUP1 PUSH2 0x5C99 DUP4 CODECOPY DUP2 DUP2 ADD PUSH1 0x40 MSTORE DUP2 ADD SWAP1 PUSH2 0x31 SWAP2 SWAP1 PUSH2 0x7F3 JUMP JUMPDEST DUP3 DUP3 DUP7 DUP7 PUSH2 0x2EE0 PUSH0 DUP7 PUSH0 PUSH1 0x1 PUSH0 PUSH2 0x100 EXP DUP2 SLOAD DUP2 PUSH1 0xFF MUL NOT AND SWAP1 DUP4 ISZERO ISZERO MUL OR SWAP1 SSTORE POP DUP3 PUSH1 0x1 PUSH1 0x1D PUSH2 0x100 EXP DUP2 SLOAD DUP2 PUSH2 0xFFFF MUL NOT AND SWAP1 DUP4 PUSH2 0xFFFF AND MUL OR SWAP1 SSTORE POP DUP4 PUSH1 0x2 PUSH0 PUSH2 0x100 EXP DUP2 SLOAD DUP2 PUSH20 0xFFFFFFFFFFFFFFFFFFFFFFFFFFFFFFFFFFFFFFFF MUL NOT AND SWAP1 DUP4 PUSH20 0xFFFFFFFFFFFFFFFFFFFFFFFFFFFFFFFFFFFFFFFF AND MUL OR SWAP1 SSTORE POP PUSH0 PUSH20 0xFFFFFFFFFFFFFFFFFFFFFFFFFFFFFFFFFFFFFFFF AND DUP3 PUSH20 0xFFFFFFFFFFFFFFFFFFFFFFFFFFFFFFFFFFFFFFFF AND EQ PUSH2 0xF7 JUMPI PUSH2 0xF5 PUSH0 DUP1 SHL DUP4 PUSH2 0x3C0 PUSH1 0x20 SHL PUSH1 0x20 SHR JUMP JUMPDEST POP JUMPDEST PUSH0 JUMPDEST DUP6 MLOAD DUP2 LT ISZERO PUSH2 0x158 JUMPI PUSH2 0x14C PUSH32 0x724AFACE199FE5BED93AE8508474576A9ADF3DC443B2C451842A2242919F19DE DUP8 DUP4 DUP2 MLOAD DUP2 LT PUSH2 0x139 JUMPI PUSH2 0x138 PUSH2 0x8D0 JUMP JUMPDEST JUMPDEST PUSH1 0x20 MUL PUSH1 0x20 ADD ADD MLOAD PUSH2 0x3C0 PUSH1 0x20 SHL PUSH1 0x20 SHR JUMP JUMPDEST POP DUP1 PUSH1 0x1 ADD SWAP1 POP PUSH2 0xF9 JUMP JUMPDEST POP PUSH0 JUMPDEST DUP2 MLOAD DUP2 LT ISZERO PUSH2 0x1BA JUMPI PUSH2 0x1AE PUSH32 0xA49807205CE4D355092EF5A8A18F56E8913CF4A201FBE287825B095693C21775 DUP4 DUP4 DUP2 MLOAD DUP2 LT PUSH2 0x19B JUMPI PUSH2 0x19A PUSH2 0x8D0 JUMP JUMPDEST JUMPDEST PUSH1 0x20 MUL PUSH1 0x20 ADD ADD MLOAD PUSH2 0x3C0 PUSH1 0x20 SHL PUSH1 0x20 SHR JUMP JUMPDEST POP DUP1 PUSH1 0x1 ADD SWAP1 POP PUSH2 0x15B JUMP JUMPDEST POP POP POP POP POP POP PUSH0 DUP2 PUSH8 0xFFFFFFFFFFFFFFFF AND SUB PUSH2 0x203 JUMPI PUSH1 0x40 MLOAD PUSH32 0x5F86E17700000000000000000000000000000000000000000000000000000000 DUP2 MSTORE PUSH1 0x4 ADD PUSH1 0x40 MLOAD DUP1 SWAP2 SUB SWAP1 REVERT JUMPDEST DUP1 PUSH8 0xFFFFFFFFFFFFFFFF AND DUP3 MLOAD LT ISZERO PUSH2 0x256 JUMPI DUP2 MLOAD DUP2 PUSH1 0x40 MLOAD PUSH32 0xF1C582AE00000000000000000000000000000000000000000000000000000000 DUP2 MSTORE PUSH1 0x4 ADD PUSH2 0x24D SWAP3 SWAP2 SWAP1 PUSH2 0x90C JUMP JUMPDEST PUSH1 0x40 MLOAD DUP1 SWAP2 SUB SWAP1 REVERT JUMPDEST PUSH0 DUP1 JUMPDEST DUP4 MLOAD DUP2 LT ISZERO PUSH2 0x34B JUMPI PUSH0 DUP5 DUP3 DUP2 MLOAD DUP2 LT PUSH2 0x276 JUMPI PUSH2 0x275 PUSH2 0x8D0 JUMP JUMPDEST JUMPDEST PUSH1 0x20 MUL PUSH1 0x20 ADD ADD MLOAD SWAP1 POP DUP3 PUSH20 0xFFFFFFFFFFFFFFFFFFFFFFFFFFFFFFFFFFFFFFFF AND DUP2 PUSH20 0xFFFFFFFFFFFFFFFFFFFFFFFFFFFFFFFFFFFFFFFF AND GT PUSH2 0x2E5 JUMPI PUSH1 0x40 MLOAD PUSH32 0xBF526FE00000000000000000000000000000000000000000000000000000000 DUP2 MSTORE PUSH1 0x4 ADD PUSH1 0x40 MLOAD DUP1 SWAP2 SUB SWAP1 REVERT JUMPDEST PUSH1 0x1 PUSH1 0x4 PUSH0 DUP4 PUSH20 0xFFFFFFFFFFFFFFFFFFFFFFFFFFFFFFFFFFFFFFFF AND PUSH20 0xFFFFFFFFFFFFFFFFFFFFFFFFFFFFFFFFFFFFFFFF AND DUP2 MSTORE PUSH1 0x20 ADD SWAP1 DUP2 MSTORE PUSH1 0x20 ADD PUSH0 KECCAK256 PUSH0 PUSH2 0x100 EXP DUP2 SLOAD DUP2 PUSH1 0xFF MUL NOT AND SWAP1 DUP4 ISZERO ISZERO MUL OR SWAP1 SSTORE POP DUP1 SWAP3 POP POP DUP1 DUP1 PUSH1 0x1 ADD SWAP2 POP POP PUSH2 0x259 JUMP JUMPDEST POP DUP3 MLOAD PUSH1 0x5 PUSH0 PUSH2 0x100 EXP DUP2 SLOAD DUP2 PUSH8 0xFFFFFFFFFFFFFFFF MUL NOT AND SWAP1 DUP4 PUSH8 0xFFFFFFFFFFFFFFFF AND MUL OR SWAP1 SSTORE POP DUP2 PUSH1 0x5 PUSH1 0x8 PUSH2 0x100 EXP DUP2 SLOAD DUP2 PUSH8 0xFFFFFFFFFFFFFFFF MUL NOT AND SWAP1 DUP4 PUSH8 0xFFFFFFFFFFFFFFFF AND MUL OR SWAP1 SSTORE POP POP POP POP DUP6 PUSH4 0xFFFFFFFF AND PUSH1 0x80 DUP2 PUSH4 0xFFFFFFFF AND DUP2 MSTORE POP POP POP POP POP POP POP POP PUSH2 0x98F JUMP JUMPDEST PUSH0 PUSH32 0x74845DE37CFABD357633214B47FA91CCD19B05B7C5A08AC22C187F811FB62BCA DUP4 EQ DUP1 ISZERO PUSH2 0x3FD JUMPI POP PUSH2 0x3FB DUP4 DUP4 PUSH2 0x463 PUSH1 0x20 SHL PUSH1 0x20 SHR JUMP JUMPDEST ISZERO JUMPDEST ISZERO PUSH2 0x44B JUMPI PUSH1 0x1 PUSH1 0x15 DUP2 DUP2 SWAP1 SLOAD SWAP1 PUSH2 0x100 EXP SWAP1 DIV PUSH8 0xFFFFFFFFFFFFFFFF AND PUSH2 0x424 SWAP1 PUSH2 0x960 JUMP JUMPDEST SWAP2 SWAP1 PUSH2 0x100 EXP DUP2 SLOAD DUP2 PUSH8 0xFFFFFFFFFFFFFFFF MUL NOT AND SWAP1 DUP4 PUSH8 0xFFFFFFFFFFFFFFFF AND MUL OR SWAP1 SSTORE POP JUMPDEST PUSH2 0x45B DUP4 DUP4 PUSH2 0x4C6 PUSH1 0x20 SHL PUSH1 0x20 SHR JUMP JUMPDEST SWAP1 POP SWAP3 SWAP2 POP POP JUMP JUMPDEST PUSH0 DUP1 PUSH0 DUP5 DUP2 MSTORE PUSH1 0x20 ADD SWAP1 DUP2 MSTORE PUSH1 0x20 ADD PUSH0 KECCAK256 PUSH0 ADD PUSH0 DUP4 PUSH20 0xFFFFFFFFFFFFFFFFFFFFFFFFFFFFFFFFFFFFFFFF AND PUSH20 0xFFFFFFFFFFFFFFFFFFFFFFFFFFFFFFFFFFFFFFFF AND DUP2 MSTORE PUSH1 0x20 ADD SWAP1 DUP2 MSTORE PUSH1 0x20 ADD PUSH0 KECCAK256 PUSH0 SWAP1 SLOAD SWAP1 PUSH2 0x100 EXP SWAP1 DIV PUSH1 0xFF AND SWAP1 POP SWAP3 SWAP2 POP POP JUMP JUMPDEST PUSH0 PUSH2 0x4D7 DUP4 DUP4 PUSH2 0x463 PUSH1 0x20 SHL PUSH1 0x20 SHR JUMP JUMPDEST PUSH2 0x5B1 JUMPI PUSH1 0x1 PUSH0 DUP1 DUP6 DUP2 MSTORE PUSH1 0x20 ADD SWAP1 DUP2 MSTORE PUSH1 0x20 ADD PUSH0 KECCAK256 PUSH0 ADD PUSH0 DUP5 PUSH20 0xFFFFFFFFFFFFFFFFFFFFFFFFFFFFFFFFFFFFFFFF AND PUSH20 0xFFFFFFFFFFFFFFFFFFFFFFFFFFFFFFFFFFFFFFFF AND DUP2 MSTORE PUSH1 0x20 ADD SWAP1 DUP2 MSTORE PUSH1 0x20 ADD PUSH0 KECCAK256 PUSH0 PUSH2 0x100 EXP DUP2 SLOAD DUP2 PUSH1 0xFF MUL NOT AND SWAP1 DUP4 ISZERO ISZERO MUL OR SWAP1 SSTORE POP PUSH2 0x54E PUSH2 0x5BB PUSH1 0x20 SHL PUSH1 0x20 SHR JUMP JUMPDEST PUSH20 0xFFFFFFFFFFFFFFFFFFFFFFFFFFFFFFFFFFFFFFFF AND DUP3 PUSH20 0xFFFFFFFFFFFFFFFFFFFFFFFFFFFFFFFFFFFFFFFF AND DUP5 PUSH32 0x2F8788117E7EFF1D82E926EC794901D17C78024A50270940304540A733656F0D PUSH1 0x40 MLOAD PUSH1 0x40 MLOAD DUP1 SWAP2 SUB SWAP1 LOG4 PUSH1 0x1 SWAP1 POP PUSH2 0x5B5 JUMP JUMPDEST PUSH0 SWAP1 POP JUMPDEST SWAP3 SWAP2 POP POP JUMP JUMPDEST PUSH0 CALLER SWAP1 POP SWAP1 JUMP JUMPDEST PUSH0 PUSH1 0x40 MLOAD SWAP1 POP SWAP1 JUMP JUMPDEST PUSH0 DUP1 REVERT JUMPDEST PUSH0 DUP1 REVERT JUMPDEST PUSH0 PUSH4 0xFFFFFFFF DUP3 AND SWAP1 POP SWAP2 SWAP1 POP JUMP JUMPDEST PUSH2 0x5EB DUP2 PUSH2 0x5D3 JUMP JUMPDEST DUP2 EQ PUSH2 0x5F5 JUMPI PUSH0 DUP1 REVERT JUMPDEST POP JUMP JUMPDEST PUSH0 DUP2 MLOAD SWAP1 POP PUSH2 0x606 DUP2 PUSH2 0x5E2 JUMP JUMPDEST SWAP3 SWAP2 POP POP JUMP JUMPDEST PUSH0 DUP1 REVERT JUMPDEST PUSH0 PUSH1 0x1F NOT PUSH1 0x1F DUP4 ADD AND SWAP1 POP SWAP2 SWAP1 POP JUMP JUMPDEST PUSH32 0x4E487B7100000000000000000000000000000000000000000000000000000000 PUSH0 MSTORE PUSH1 0x41 PUSH1 0x4 MSTORE PUSH1 0x24 PUSH0 REVERT JUMPDEST PUSH2 0x656 DUP3 PUSH2 0x610 JUMP JUMPDEST DUP2 ADD DUP2 DUP2 LT PUSH8 0xFFFFFFFFFFFFFFFF DUP3 GT OR ISZERO PUSH2 0x675 JUMPI PUSH2 0x674 PUSH2 0x620 JUMP JUMPDEST JUMPDEST DUP1 PUSH1 0x40 MSTORE POP POP POP JUMP JUMPDEST PUSH0 PUSH2 0x687 PUSH2 0x5C2 JUMP JUMPDEST SWAP1 POP PUSH2 0x693 DUP3 DUP3 PUSH2 0x64D JUMP JUMPDEST SWAP2 SWAP1 POP JUMP JUMPDEST PUSH0 PUSH8 0xFFFFFFFFFFFFFFFF DUP3 GT ISZERO PUSH2 0x6B2 JUMPI PUSH2 0x6B1 PUSH2 0x620 JUMP JUMPDEST JUMPDEST PUSH1 0x20 DUP3 MUL SWAP1 POP PUSH1 0x20 DUP2 ADD SWAP1 POP SWAP2 SWAP1 POP JUMP JUMPDEST PUSH0 DUP1 REVERT JUMPDEST PUSH0 PUSH20 0xFFFFFFFFFFFFFFFFFFFFFFFFFFFFFFFFFFFFFFFF DUP3 AND SWAP1 POP SWAP2 SWAP1 POP JUMP JUMPDEST PUSH0 PUSH2 0x6F0 DUP3 PUSH2 0x6C7 JUMP JUMPDEST SWAP1 POP SWAP2 SWAP1 POP JUMP JUMPDEST PUSH2 0x700 DUP2 PUSH2 0x6E6 JUMP JUMPDEST DUP2 EQ PUSH2 0x70A JUMPI PUSH0 DUP1 REVERT JUMPDEST POP JUMP JUMPDEST PUSH0 DUP2 MLOAD SWAP1 POP PUSH2 0x71B DUP2 PUSH2 0x6F7 JUMP JUMPDEST SWAP3 SWAP2 POP POP JUMP JUMPDEST PUSH0 PUSH2 0x733 PUSH2 0x72E DUP5 PUSH2 0x698 JUMP JUMPDEST PUSH2 0x67E JUMP JUMPDEST SWAP1 POP DUP1 DUP4 DUP3 MSTORE PUSH1 0x20 DUP3 ADD SWAP1 POP PUSH1 0x20 DUP5 MUL DUP4 ADD DUP6 DUP2 GT ISZERO PUSH2 0x756 JUMPI PUSH2 0x755 PUSH2 0x6C3 JUMP JUMPDEST JUMPDEST DUP4 JUMPDEST DUP2 DUP2 LT ISZERO PUSH2 0x77F JUMPI DUP1 PUSH2 0x76B DUP9 DUP3 PUSH2 0x70D JUMP JUMPDEST DUP5 MSTORE PUSH1 0x20 DUP5 ADD SWAP4 POP POP PUSH1 0x20 DUP2 ADD SWAP1 POP PUSH2 0x758 JUMP JUMPDEST POP POP POP SWAP4 SWAP3 POP POP POP JUMP JUMPDEST PUSH0 DUP3 PUSH1 0x1F DUP4 ADD SLT PUSH2 0x79D JUMPI PUSH2 0x79C PUSH2 0x60C JUMP JUMPDEST JUMPDEST DUP2 MLOAD PUSH2 0x7AD DUP5 DUP3 PUSH1 0x20 DUP7 ADD PUSH2 0x721 JUMP JUMPDEST SWAP2 POP POP SWAP3 SWAP2 POP POP JUMP JUMPDEST PUSH0 PUSH8 0xFFFFFFFFFFFFFFFF DUP3 AND SWAP1 POP SWAP2 SWAP1 POP JUMP JUMPDEST PUSH2 0x7D2 DUP2 PUSH2 0x7B6 JUMP JUMPDEST DUP2 EQ PUSH2 0x7DC JUMPI PUSH0 DUP1 REVERT JUMPDEST POP JUMP JUMPDEST PUSH0 DUP2 MLOAD SWAP1 POP PUSH2 0x7ED DUP2 PUSH2 0x7C9 JUMP JUMPDEST SWAP3 SWAP2 POP POP JUMP JUMPDEST PUSH0 DUP1 PUSH0 DUP1 PUSH0 DUP1 PUSH1 0xC0 DUP8 DUP10 SUB SLT ISZERO PUSH2 0x80D JUMPI PUSH2 0x80C PUSH2 0x5CB JUMP JUMPDEST JUMPDEST PUSH0 PUSH2 0x81A DUP10 DUP3 DUP11 ADD PUSH2 0x5F8 JUMP JUMPDEST SWAP7 POP POP PUSH1 0x20 DUP8 ADD MLOAD PUSH8 0xFFFFFFFFFFFFFFFF DUP2 GT ISZERO PUSH2 0x83B JUMPI PUSH2 0x83A PUSH2 0x5CF JUMP JUMPDEST JUMPDEST PUSH2 0x847 DUP10 DUP3 DUP11 ADD PUSH2 0x789 JUMP JUMPDEST SWAP6 POP POP PUSH1 0x40 PUSH2 0x858 DUP10 DUP3 DUP11 ADD PUSH2 0x70D JUMP JUMPDEST SWAP5 POP POP PUSH1 0x60 DUP8 ADD MLOAD PUSH8 0xFFFFFFFFFFFFFFFF DUP2 GT ISZERO PUSH2 0x879 JUMPI PUSH2 0x878 PUSH2 0x5CF JUMP JUMPDEST JUMPDEST PUSH2 0x885 DUP10 DUP3 DUP11 ADD PUSH2 0x789 JUMP JUMPDEST SWAP4 POP POP PUSH1 0x80 PUSH2 0x896 DUP10 DUP3 DUP11 ADD PUSH2 0x7DF JUMP JUMPDEST SWAP3 POP POP PUSH1 0xA0 DUP8 ADD MLOAD PUSH8 0xFFFFFFFFFFFFFFFF DUP2 GT ISZERO PUSH2 0x8B7 JUMPI PUSH2 0x8B6 PUSH2 0x5CF JUMP JUMPDEST JUMPDEST PUSH2 0x8C3 DUP10 DUP3 DUP11 ADD PUSH2 0x789 JUMP JUMPDEST SWAP2 POP POP SWAP3 SWAP6 POP SWAP3 SWAP6 POP SWAP3 SWAP6 JUMP JUMPDEST PUSH32 0x4E487B7100000000000000000000000000000000000000000000000000000000 PUSH0 MSTORE PUSH1 0x32 PUSH1 0x4 MSTORE PUSH1 0x24 PUSH0 REVERT JUMPDEST PUSH2 0x906 DUP2 PUSH2 0x7B6 JUMP JUMPDEST DUP3 MSTORE POP POP JUMP JUMPDEST PUSH0 PUSH1 0x40 DUP3 ADD SWAP1 POP PUSH2 0x91F PUSH0 DUP4 ADD DUP6 PUSH2 0x8FD JUMP JUMPDEST PUSH2 0x92C PUSH1 0x20 DUP4 ADD DUP5 PUSH2 0x8FD JUMP JUMPDEST SWAP4 SWAP3 POP POP POP JUMP JUMPDEST PUSH32 0x4E487B7100000000000000000000000000000000000000000000000000000000 PUSH0 MSTORE PUSH1 0x11 PUSH1 0x4 MSTORE PUSH1 0x24 PUSH0 REVERT JUMPDEST PUSH0 PUSH2 0x96A DUP3 PUSH2 0x7B6 JUMP JUMPDEST SWAP2 POP PUSH8 0xFFFFFFFFFFFFFFFF DUP3 SUB PUSH2 0x984 JUMPI PUSH2 0x983 PUSH2 0x933 JUMP JUMPDEST JUMPDEST PUSH1 0x1 DUP3 ADD SWAP1 POP SWAP2 SWAP1 POP JUMP JUMPDEST PUSH1 0x80 MLOAD PUSH2 0x52E4 PUSH2 0x9B5 PUSH0 CODECOPY PUSH0 DUP2 DUP2 PUSH2 0x199C ADD MSTORE DUP2 DUP2 PUSH2 0x2288 ADD MSTORE PUSH2 0x2654 ADD MSTORE PUSH2 0x52E4 PUSH0 RETURN INVALID PUSH1 0x80 PUSH1 0x40 MSTORE PUSH1 0x4 CALLDATASIZE LT PUSH2 0x22E JUMPI PUSH0 CALLDATALOAD PUSH1 0xE0 SHR DUP1 PUSH4 0x8585C945 GT PUSH2 0x12D JUMPI DUP1 PUSH4 0xC7A823E0 GT PUSH2 0xAA JUMPI DUP1 PUSH4 0xD547741F GT PUSH2 0x6E JUMPI DUP1 PUSH4 0xD547741F EQ PUSH2 0x88D JUMPI DUP1 PUSH4 0xDAFE0CCC EQ PUSH2 0x8B5 JUMPI DUP1 PUSH4 0xF010CB23 EQ PUSH2 0x8DD JUMPI DUP1 PUSH4 0xF3B4EBD0 EQ PUSH2 0x919 JUMPI DUP1 PUSH4 0xFD62E750 EQ PUSH2 0x941 JUMPI PUSH2 0x22E JUMP JUMPDEST DUP1 PUSH4 0xC7A823E0 EQ PUSH2 0x7AC JUMPI DUP1 PUSH4 0xC7B2370B EQ PUSH2 0x7E9 JUMPI DUP1 PUSH4 0xCD88B903 EQ PUSH2 0x811 JUMPI DUP1 PUSH4 0xCF34C768 EQ PUSH2 0x839 JUMPI DUP1 PUSH4 0xD2AE2104 EQ PUSH2 0x863 JUMPI PUSH2 0x22E JUMP JUMPDEST DUP1 PUSH4 0xAEF18BF7 GT PUSH2 0xF1 JUMPI DUP1 PUSH4 0xAEF18BF7 EQ PUSH2 0x6BA JUMPI DUP1 PUSH4 0xB143044B EQ PUSH2 0x6F6 JUMPI DUP1 PUSH4 0xC358DE0A EQ PUSH2 0x71E JUMPI DUP1 PUSH4 0xC416AA51 EQ PUSH2 0x746 JUMPI DUP1 PUSH4 0xC5E193CD EQ PUSH2 0x770 JUMPI PUSH2 0x22E JUMP JUMPDEST DUP1 PUSH4 0x8585C945 EQ PUSH2 0x5BE JUMPI DUP1 PUSH4 0x91D14854 EQ PUSH2 0x5E6 JUMPI DUP1 PUSH4 0x95D376D7 EQ PUSH2 0x622 JUMPI DUP1 PUSH4 0x9E944965 EQ PUSH2 0x652 JUMPI DUP1 PUSH4 0xA217FDDF EQ PUSH2 0x690 JUMPI PUSH2 0x22E JUMP JUMPDEST DUP1 PUSH4 0x2F2FF15D GT PUSH2 0x1BB JUMPI DUP1 PUSH4 0x5553FB8E GT PUSH2 0x17F JUMPI DUP1 PUSH4 0x5553FB8E EQ PUSH2 0x4CA JUMPI DUP1 PUSH4 0x5C975ABB EQ PUSH2 0x506 JUMPI DUP1 PUSH4 0x724E78DA EQ PUSH2 0x530 JUMPI DUP1 PUSH4 0x736C0D5B EQ PUSH2 0x558 JUMPI DUP1 PUSH4 0x741BEF1A EQ PUSH2 0x594 JUMPI PUSH2 0x22E JUMP JUMPDEST DUP1 PUSH4 0x2F2FF15D EQ PUSH2 0x3EE JUMPI DUP1 PUSH4 0x30BB3AAC EQ PUSH2 0x416 JUMPI DUP1 PUSH4 0x31CB6105 EQ PUSH2 0x452 JUMPI DUP1 PUSH4 0x36568ABE EQ PUSH2 0x47A JUMPI DUP1 PUSH4 0x52D3B871 EQ PUSH2 0x4A2 JUMPI PUSH2 0x22E JUMP JUMPDEST DUP1 PUSH4 0x16C38B3C GT PUSH2 0x202 JUMPI DUP1 PUSH4 0x16C38B3C EQ PUSH2 0x2E8 JUMPI DUP1 PUSH4 0x1703A018 EQ PUSH2 0x310 JUMPI DUP1 PUSH4 0x248A9CA3 EQ PUSH2 0x33A JUMPI DUP1 PUSH4 0x26E67A37 EQ PUSH2 0x376 JUMPI DUP1 PUSH4 0x2DE11376 EQ PUSH2 0x3B2 JUMPI PUSH2 0x22E JUMP JUMPDEST DUP1 PUSH3 0xBF2E80 EQ PUSH2 0x232 JUMPI DUP1 PUSH4 0x1E33667 EQ PUSH2 0x25C JUMPI DUP1 PUSH4 0x1FFC9A7 EQ PUSH2 0x284 JUMPI DUP1 PUSH4 0x1095B6D7 EQ PUSH2 0x2C0 JUMPI JUMPDEST PUSH0 DUP1 REVERT JUMPDEST CALLVALUE DUP1 ISZERO PUSH2 0x23D JUMPI PUSH0 DUP1 REVERT JUMPDEST POP PUSH2 0x246 PUSH2 0x96B JUMP JUMPDEST PUSH1 0x40 MLOAD PUSH2 0x253 SWAP2 SWAP1 PUSH2 0x385C JUMP JUMPDEST PUSH1 0x40 MLOAD DUP1 SWAP2 SUB SWAP1 RETURN JUMPDEST CALLVALUE DUP1 ISZERO PUSH2 0x267 JUMPI PUSH0 DUP1 REVERT JUMPDEST POP PUSH2 0x282 PUSH1 0x4 DUP1 CALLDATASIZE SUB DUP2 ADD SWAP1 PUSH2 0x27D SWAP2 SWAP1 PUSH2 0x390A JUMP JUMPDEST PUSH2 0x97F JUMP JUMPDEST STOP JUMPDEST CALLVALUE DUP1 ISZERO PUSH2 0x28F JUMPI PUSH0 DUP1 REVERT JUMPDEST POP PUSH2 0x2AA PUSH1 0x4 DUP1 CALLDATASIZE SUB DUP2 ADD SWAP1 PUSH2 0x2A5 SWAP2 SWAP1 PUSH2 0x39AF JUMP JUMPDEST PUSH2 0x9BA JUMP JUMPDEST PUSH1 0x40 MLOAD PUSH2 0x2B7 SWAP2 SWAP1 PUSH2 0x39F4 JUMP JUMPDEST PUSH1 0x40 MLOAD DUP1 SWAP2 SUB SWAP1 RETURN JUMPDEST CALLVALUE DUP1 ISZERO PUSH2 0x2CB JUMPI PUSH0 DUP1 REVERT JUMPDEST POP PUSH2 0x2E6 PUSH1 0x4 DUP1 CALLDATASIZE SUB DUP2 ADD SWAP1 PUSH2 0x2E1 SWAP2 SWAP1 PUSH2 0x390A JUMP JUMPDEST PUSH2 0xA33 JUMP JUMPDEST STOP JUMPDEST CALLVALUE DUP1 ISZERO PUSH2 0x2F3 JUMPI PUSH0 DUP1 REVERT JUMPDEST POP PUSH2 0x30E PUSH1 0x4 DUP1 CALLDATASIZE SUB DUP2 ADD SWAP1 PUSH2 0x309 SWAP2 SWAP1 PUSH2 0x3A37 JUMP JUMPDEST PUSH2 0xB66 JUMP JUMPDEST STOP JUMPDEST CALLVALUE DUP1 ISZERO PUSH2 0x31B JUMPI PUSH0 DUP1 REVERT JUMPDEST POP PUSH2 0x324 PUSH2 0xB92 JUMP JUMPDEST PUSH1 0x40 MLOAD PUSH2 0x331 SWAP2 SWAP1 PUSH2 0x3A84 JUMP JUMPDEST PUSH1 0x40 MLOAD DUP1 SWAP2 SUB SWAP1 RETURN JUMPDEST CALLVALUE DUP1 ISZERO PUSH2 0x345 JUMPI PUSH0 DUP1 REVERT JUMPDEST POP PUSH2 0x360 PUSH1 0x4 DUP1 CALLDATASIZE SUB DUP2 ADD SWAP1 PUSH2 0x35B SWAP2 SWAP1 PUSH2 0x3AD0 JUMP JUMPDEST PUSH2 0xBAC JUMP JUMPDEST PUSH1 0x40 MLOAD PUSH2 0x36D SWAP2 SWAP1 PUSH2 0x3B0A JUMP JUMPDEST PUSH1 0x40 MLOAD DUP1 SWAP2 SUB SWAP1 RETURN JUMPDEST CALLVALUE DUP1 ISZERO PUSH2 0x381 JUMPI PUSH0 DUP1 REVERT JUMPDEST POP PUSH2 0x39C PUSH1 0x4 DUP1 CALLDATASIZE SUB DUP2 ADD SWAP1 PUSH2 0x397 SWAP2 SWAP1 PUSH2 0x3B5C JUMP JUMPDEST PUSH2 0xBC8 JUMP JUMPDEST PUSH1 0x40 MLOAD PUSH2 0x3A9 SWAP2 SWAP1 PUSH2 0x3C4A JUMP JUMPDEST PUSH1 0x40 MLOAD DUP1 SWAP2 SUB SWAP1 RETURN JUMPDEST CALLVALUE DUP1 ISZERO PUSH2 0x3BD JUMPI PUSH0 DUP1 REVERT JUMPDEST POP PUSH2 0x3D8 PUSH1 0x4 DUP1 CALLDATASIZE SUB DUP2 ADD SWAP1 PUSH2 0x3D3 SWAP2 SWAP1 PUSH2 0x3C6A JUMP JUMPDEST PUSH2 0xC5F JUMP JUMPDEST PUSH1 0x40 MLOAD PUSH2 0x3E5 SWAP2 SWAP1 PUSH2 0x39F4 JUMP JUMPDEST PUSH1 0x40 MLOAD DUP1 SWAP2 SUB SWAP1 RETURN JUMPDEST CALLVALUE DUP1 ISZERO PUSH2 0x3F9 JUMPI PUSH0 DUP1 REVERT JUMPDEST POP PUSH2 0x414 PUSH1 0x4 DUP1 CALLDATASIZE SUB DUP2 ADD SWAP1 PUSH2 0x40F SWAP2 SWAP1 PUSH2 0x3C95 JUMP JUMPDEST PUSH2 0xD02 JUMP JUMPDEST STOP JUMPDEST CALLVALUE DUP1 ISZERO PUSH2 0x421 JUMPI PUSH0 DUP1 REVERT JUMPDEST POP PUSH2 0x43C PUSH1 0x4 DUP1 CALLDATASIZE SUB DUP2 ADD SWAP1 PUSH2 0x437 SWAP2 SWAP1 PUSH2 0x3D5E JUMP JUMPDEST PUSH2 0xE8C JUMP JUMPDEST PUSH1 0x40 MLOAD PUSH2 0x449 SWAP2 SWAP1 PUSH2 0x3DF1 JUMP JUMPDEST PUSH1 0x40 MLOAD DUP1 SWAP2 SUB SWAP1 RETURN JUMPDEST CALLVALUE DUP1 ISZERO PUSH2 0x45D JUMPI PUSH0 DUP1 REVERT JUMPDEST POP PUSH2 0x478 PUSH1 0x4 DUP1 CALLDATASIZE SUB DUP2 ADD SWAP1 PUSH2 0x473 SWAP2 SWAP1 PUSH2 0x3E0A JUMP JUMPDEST PUSH2 0x1055 JUMP JUMPDEST STOP JUMPDEST CALLVALUE DUP1 ISZERO PUSH2 0x485 JUMPI PUSH0 DUP1 REVERT JUMPDEST POP PUSH2 0x4A0 PUSH1 0x4 DUP1 CALLDATASIZE SUB DUP2 ADD SWAP1 PUSH2 0x49B SWAP2 SWAP1 PUSH2 0x3C95 JUMP JUMPDEST PUSH2 0x10C8 JUMP JUMPDEST STOP JUMPDEST CALLVALUE DUP1 ISZERO PUSH2 0x4AD JUMPI PUSH0 DUP1 REVERT JUMPDEST POP PUSH2 0x4C8 PUSH1 0x4 DUP1 CALLDATASIZE SUB DUP2 ADD SWAP1 PUSH2 0x4C3 SWAP2 SWAP1 PUSH2 0x3E9D JUMP JUMPDEST PUSH2 0x10FA JUMP JUMPDEST STOP JUMPDEST CALLVALUE DUP1 ISZERO PUSH2 0x4D5 JUMPI PUSH0 DUP1 REVERT JUMPDEST POP PUSH2 0x4F0 PUSH1 0x4 DUP1 CALLDATASIZE SUB DUP2 ADD SWAP1 PUSH2 0x4EB SWAP2 SWAP1 PUSH2 0x3F12 JUMP JUMPDEST PUSH2 0x12C6 JUMP JUMPDEST PUSH1 0x40 MLOAD PUSH2 0x4FD SWAP2 SWAP1 PUSH2 0x3DF1 JUMP JUMPDEST PUSH1 0x40 MLOAD DUP1 SWAP2 SUB SWAP1 RETURN JUMPDEST CALLVALUE DUP1 ISZERO PUSH2 0x511 JUMPI PUSH0 DUP1 REVERT JUMPDEST POP PUSH2 0x51A PUSH2 0x149C JUMP JUMPDEST PUSH1 0x40 MLOAD PUSH2 0x527 SWAP2 SWAP1 PUSH2 0x39F4 JUMP JUMPDEST PUSH1 0x40 MLOAD DUP1 SWAP2 SUB SWAP1 RETURN JUMPDEST CALLVALUE DUP1 ISZERO PUSH2 0x53B JUMPI PUSH0 DUP1 REVERT JUMPDEST POP PUSH2 0x556 PUSH1 0x4 DUP1 CALLDATASIZE SUB DUP2 ADD SWAP1 PUSH2 0x551 SWAP2 SWAP1 PUSH2 0x3C6A JUMP JUMPDEST PUSH2 0x14B1 JUMP JUMPDEST STOP JUMPDEST CALLVALUE DUP1 ISZERO PUSH2 0x563 JUMPI PUSH0 DUP1 REVERT JUMPDEST POP PUSH2 0x57E PUSH1 0x4 DUP1 CALLDATASIZE SUB DUP2 ADD SWAP1 PUSH2 0x579 SWAP2 SWAP1 PUSH2 0x3C6A JUMP JUMPDEST PUSH2 0x1556 JUMP JUMPDEST PUSH1 0x40 MLOAD PUSH2 0x58B SWAP2 SWAP1 PUSH2 0x39F4 JUMP JUMPDEST PUSH1 0x40 MLOAD DUP1 SWAP2 SUB SWAP1 RETURN JUMPDEST CALLVALUE DUP1 ISZERO PUSH2 0x59F JUMPI PUSH0 DUP1 REVERT JUMPDEST POP PUSH2 0x5A8 PUSH2 0x1573 JUMP JUMPDEST PUSH1 0x40 MLOAD PUSH2 0x5B5 SWAP2 SWAP1 PUSH2 0x3F85 JUMP JUMPDEST PUSH1 0x40 MLOAD DUP1 SWAP2 SUB SWAP1 RETURN JUMPDEST CALLVALUE DUP1 ISZERO PUSH2 0x5C9 JUMPI PUSH0 DUP1 REVERT JUMPDEST POP PUSH2 0x5E4 PUSH1 0x4 DUP1 CALLDATASIZE SUB DUP2 ADD SWAP1 PUSH2 0x5DF SWAP2 SWAP1 PUSH2 0x3F9E JUMP JUMPDEST PUSH2 0x1598 JUMP JUMPDEST STOP JUMPDEST CALLVALUE DUP1 ISZERO PUSH2 0x5F1 JUMPI PUSH0 DUP1 REVERT JUMPDEST POP PUSH2 0x60C PUSH1 0x4 DUP1 CALLDATASIZE SUB DUP2 ADD SWAP1 PUSH2 0x607 SWAP2 SWAP1 PUSH2 0x3C95 JUMP JUMPDEST PUSH2 0x1609 JUMP JUMPDEST PUSH1 0x40 MLOAD PUSH2 0x619 SWAP2 SWAP1 PUSH2 0x39F4 JUMP JUMPDEST PUSH1 0x40 MLOAD DUP1 SWAP2 SUB SWAP1 RETURN JUMPDEST PUSH2 0x63C PUSH1 0x4 DUP1 CALLDATASIZE SUB DUP2 ADD SWAP1 PUSH2 0x637 SWAP2 SWAP1 PUSH2 0x3FEB JUMP JUMPDEST PUSH2 0x166C JUMP JUMPDEST PUSH1 0x40 MLOAD PUSH2 0x649 SWAP2 SWAP1 PUSH2 0x3DF1 JUMP JUMPDEST PUSH1 0x40 MLOAD DUP1 SWAP2 SUB SWAP1 RETURN JUMPDEST CALLVALUE DUP1 ISZERO PUSH2 0x65D JUMPI PUSH0 DUP1 REVERT JUMPDEST POP PUSH2 0x678 PUSH1 0x4 DUP1 CALLDATASIZE SUB DUP2 ADD SWAP1 PUSH2 0x673 SWAP2 SWAP1 PUSH2 0x3B5C JUMP JUMPDEST PUSH2 0x18B7 JUMP JUMPDEST PUSH1 0x40 MLOAD PUSH2 0x687 SWAP4 SWAP3 SWAP2 SWAP1 PUSH2 0x408E JUMP JUMPDEST PUSH1 0x40 MLOAD DUP1 SWAP2 SUB SWAP1 RETURN JUMPDEST CALLVALUE DUP1 ISZERO PUSH2 0x69B JUMPI PUSH0 DUP1 REVERT JUMPDEST POP PUSH2 0x6A4 PUSH2 0x1918 JUMP JUMPDEST PUSH1 0x40 MLOAD PUSH2 0x6B1 SWAP2 SWAP1 PUSH2 0x3B0A JUMP JUMPDEST PUSH1 0x40 MLOAD DUP1 SWAP2 SUB SWAP1 RETURN JUMPDEST CALLVALUE DUP1 ISZERO PUSH2 0x6C5 JUMPI PUSH0 DUP1 REVERT JUMPDEST POP PUSH2 0x6E0 PUSH1 0x4 DUP1 CALLDATASIZE SUB DUP2 ADD SWAP1 PUSH2 0x6DB SWAP2 SWAP1 PUSH2 0x3AD0 JUMP JUMPDEST PUSH2 0x191E JUMP JUMPDEST PUSH1 0x40 MLOAD PUSH2 0x6ED SWAP2 SWAP1 PUSH2 0x39F4 JUMP JUMPDEST PUSH1 0x40 MLOAD DUP1 SWAP2 SUB SWAP1 RETURN JUMPDEST CALLVALUE DUP1 ISZERO PUSH2 0x701 JUMPI PUSH0 DUP1 REVERT JUMPDEST POP PUSH2 0x71C PUSH1 0x4 DUP1 CALLDATASIZE SUB DUP2 ADD SWAP1 PUSH2 0x717 SWAP2 SWAP1 PUSH2 0x4118 JUMP JUMPDEST PUSH2 0x193B JUMP JUMPDEST STOP JUMPDEST CALLVALUE DUP1 ISZERO PUSH2 0x729 JUMPI PUSH0 DUP1 REVERT JUMPDEST POP PUSH2 0x744 PUSH1 0x4 DUP1 CALLDATASIZE SUB DUP2 ADD SWAP1 PUSH2 0x73F SWAP2 SWAP1 PUSH2 0x4163 JUMP JUMPDEST PUSH2 0x1C68 JUMP JUMPDEST STOP JUMPDEST CALLVALUE DUP1 ISZERO PUSH2 0x751 JUMPI PUSH0 DUP1 REVERT JUMPDEST POP PUSH2 0x75A PUSH2 0x1CEA JUMP JUMPDEST PUSH1 0x40 MLOAD PUSH2 0x767 SWAP2 SWAP1 PUSH2 0x3F85 JUMP JUMPDEST PUSH1 0x40 MLOAD DUP1 SWAP2 SUB SWAP1 RETURN JUMPDEST CALLVALUE DUP1 ISZERO PUSH2 0x77B JUMPI PUSH0 DUP1 REVERT JUMPDEST POP PUSH2 0x796 PUSH1 0x4 DUP1 CALLDATASIZE SUB DUP2 ADD SWAP1 PUSH2 0x791 SWAP2 SWAP1 PUSH2 0x3F12 JUMP JUMPDEST PUSH2 0x1D0E JUMP JUMPDEST PUSH1 0x40 MLOAD PUSH2 0x7A3 SWAP2 SWAP1 PUSH2 0x3DF1 JUMP JUMPDEST PUSH1 0x40 MLOAD DUP1 SWAP2 SUB SWAP1 RETURN JUMPDEST CALLVALUE DUP1 ISZERO PUSH2 0x7B7 JUMPI PUSH0 DUP1 REVERT JUMPDEST POP PUSH2 0x7D2 PUSH1 0x4 DUP1 CALLDATASIZE SUB DUP2 ADD SWAP1 PUSH2 0x7CD SWAP2 SWAP1 PUSH2 0x418E JUMP JUMPDEST PUSH2 0x1F47 JUMP JUMPDEST PUSH1 0x40 MLOAD PUSH2 0x7E0 SWAP3 SWAP2 SWAP1 PUSH2 0x425E JUMP JUMPDEST PUSH1 0x40 MLOAD DUP1 SWAP2 SUB SWAP1 RETURN JUMPDEST CALLVALUE DUP1 ISZERO PUSH2 0x7F4 JUMPI PUSH0 DUP1 REVERT JUMPDEST POP PUSH2 0x80F PUSH1 0x4 DUP1 CALLDATASIZE SUB DUP2 ADD SWAP1 PUSH2 0x80A SWAP2 SWAP1 PUSH2 0x3C6A JUMP JUMPDEST PUSH2 0x2184 JUMP JUMPDEST STOP JUMPDEST CALLVALUE DUP1 ISZERO PUSH2 0x81C JUMPI PUSH0 DUP1 REVERT JUMPDEST POP PUSH2 0x837 PUSH1 0x4 DUP1 CALLDATASIZE SUB DUP2 ADD SWAP1 PUSH2 0x832 SWAP2 SWAP1 PUSH2 0x42DA JUMP JUMPDEST PUSH2 0x2229 JUMP JUMPDEST STOP JUMPDEST CALLVALUE DUP1 ISZERO PUSH2 0x844 JUMPI PUSH0 DUP1 REVERT JUMPDEST POP PUSH2 0x84D PUSH2 0x2286 JUMP JUMPDEST PUSH1 0x40 MLOAD PUSH2 0x85A SWAP2 SWAP1 PUSH2 0x4346 JUMP JUMPDEST PUSH1 0x40 MLOAD DUP1 SWAP2 SUB SWAP1 RETURN JUMPDEST CALLVALUE DUP1 ISZERO PUSH2 0x86E JUMPI PUSH0 DUP1 REVERT JUMPDEST POP PUSH2 0x877 PUSH2 0x22AA JUMP JUMPDEST PUSH1 0x40 MLOAD PUSH2 0x884 SWAP2 SWAP1 PUSH2 0x3A84 JUMP JUMPDEST PUSH1 0x40 MLOAD DUP1 SWAP2 SUB SWAP1 RETURN JUMPDEST CALLVALUE DUP1 ISZERO PUSH2 0x898 JUMPI PUSH0 DUP1 REVERT JUMPDEST POP PUSH2 0x8B3 PUSH1 0x4 DUP1 CALLDATASIZE SUB DUP2 ADD SWAP1 PUSH2 0x8AE SWAP2 SWAP1 PUSH2 0x3C95 JUMP JUMPDEST PUSH2 0x22C4 JUMP JUMPDEST STOP JUMPDEST CALLVALUE DUP1 ISZERO PUSH2 0x8C0 JUMPI PUSH0 DUP1 REVERT JUMPDEST POP PUSH2 0x8DB PUSH1 0x4 DUP1 CALLDATASIZE SUB DUP2 ADD SWAP1 PUSH2 0x8D6 SWAP2 SWAP1 PUSH2 0x439A JUMP JUMPDEST PUSH2 0x244E JUMP JUMPDEST STOP JUMPDEST CALLVALUE DUP1 ISZERO PUSH2 0x8E8 JUMPI PUSH0 DUP1 REVERT JUMPDEST POP PUSH2 0x903 PUSH1 0x4 DUP1 CALLDATASIZE SUB DUP2 ADD SWAP1 PUSH2 0x8FE SWAP2 SWAP1 PUSH2 0x43EA JUMP JUMPDEST PUSH2 0x2546 JUMP JUMPDEST PUSH1 0x40 MLOAD PUSH2 0x910 SWAP2 SWAP1 PUSH2 0x3B0A JUMP JUMPDEST PUSH1 0x40 MLOAD DUP1 SWAP2 SUB SWAP1 RETURN JUMPDEST CALLVALUE DUP1 ISZERO PUSH2 0x924 JUMPI PUSH0 DUP1 REVERT JUMPDEST POP PUSH2 0x93F PUSH1 0x4 DUP1 CALLDATASIZE SUB DUP2 ADD SWAP1 PUSH2 0x93A SWAP2 SWAP1 PUSH2 0x448C JUMP JUMPDEST PUSH2 0x2581 JUMP JUMPDEST STOP JUMPDEST CALLVALUE DUP1 ISZERO PUSH2 0x94C JUMPI PUSH0 DUP1 REVERT JUMPDEST POP PUSH2 0x955 PUSH2 0x2852 JUMP JUMPDEST PUSH1 0x40 MLOAD PUSH2 0x962 SWAP2 SWAP1 PUSH2 0x3A84 JUMP JUMPDEST PUSH1 0x40 MLOAD DUP1 SWAP2 SUB SWAP1 RETURN JUMPDEST PUSH1 0x1 PUSH1 0x1D SWAP1 SLOAD SWAP1 PUSH2 0x100 EXP SWAP1 DIV PUSH2 0xFFFF AND DUP2 JUMP JUMPDEST PUSH32 0xA49807205CE4D355092EF5A8A18F56E8913CF4A201FBE287825B095693C21775 PUSH2 0x9A9 DUP2 PUSH2 0x286B JUMP JUMPDEST PUSH2 0x9B4 DUP5 DUP5 DUP5 PUSH2 0x287F JUMP JUMPDEST POP POP POP POP JUMP JUMPDEST PUSH0 PUSH32 0x7965DB0B00000000000000000000000000000000000000000000000000000000 PUSH28 0xFFFFFFFFFFFFFFFFFFFFFFFFFFFFFFFFFFFFFFFFFFFFFFFFFFFFFFFF NOT AND DUP3 PUSH28 0xFFFFFFFFFFFFFFFFFFFFFFFFFFFFFFFFFFFFFFFFFFFFFFFFFFFFFFFF NOT AND EQ DUP1 PUSH2 0xA2C JUMPI POP PUSH2 0xA2B DUP3 PUSH2 0x28D2 JUMP JUMPDEST JUMPDEST SWAP1 POP SWAP2 SWAP1 POP JUMP JUMPDEST PUSH32 0xA49807205CE4D355092EF5A8A18F56E8913CF4A201FBE287825B095693C21775 PUSH2 0xA5D DUP2 PUSH2 0x286B JUMP JUMPDEST PUSH2 0xA87 PUSH32 0x724AFACE199FE5BED93AE8508474576A9ADF3DC443B2C451842A2242919F19DE DUP6 PUSH2 0x1609 JUMP JUMPDEST PUSH2 0xABD JUMPI PUSH1 0x40 MLOAD PUSH32 0x5EE08B9700000000000000000000000000000000000000000000000000000000 DUP2 MSTORE PUSH1 0x4 ADD PUSH1 0x40 MLOAD DUP1 SWAP2 SUB SWAP1 REVERT JUMPDEST DUP4 PUSH20 0xFFFFFFFFFFFFFFFFFFFFFFFFFFFFFFFFFFFFFFFF AND PUSH4 0xFD9BE522 DUP5 DUP5 PUSH1 0x40 MLOAD DUP4 PUSH4 0xFFFFFFFF AND PUSH1 0xE0 SHL DUP2 MSTORE PUSH1 0x4 ADD PUSH2 0xAF8 SWAP3 SWAP2 SWAP1 PUSH2 0x44D3 JUMP JUMPDEST PUSH0 PUSH1 0x40 MLOAD DUP1 DUP4 SUB DUP2 PUSH0 DUP8 DUP1 EXTCODESIZE ISZERO DUP1 ISZERO PUSH2 0xB0F JUMPI PUSH0 DUP1 REVERT JUMPDEST POP GAS CALL ISZERO DUP1 ISZERO PUSH2 0xB21 JUMPI RETURNDATASIZE PUSH0 DUP1 RETURNDATACOPY RETURNDATASIZE PUSH0 REVERT JUMPDEST POP POP POP POP PUSH32 0x9B1BFA7FA9EE420A16E124F794C35AC9F90472ACC99140EB2F6447C714CAD8EB DUP5 DUP5 DUP5 PUSH1 0x40 MLOAD PUSH2 0xB58 SWAP4 SWAP3 SWAP2 SWAP1 PUSH2 0x44FA JUMP JUMPDEST PUSH1 0x40 MLOAD DUP1 SWAP2 SUB SWAP1 LOG1 POP POP POP POP JUMP JUMPDEST PUSH0 DUP1 SHL PUSH2 0xB72 DUP2 PUSH2 0x286B JUMP JUMPDEST DUP2 ISZERO PUSH2 0xB85 JUMPI PUSH2 0xB80 PUSH2 0x293B JUMP JUMPDEST PUSH2 0xB8E JUMP JUMPDEST PUSH2 0xB8D PUSH2 0x299C JUMP JUMPDEST JUMPDEST POP POP JUMP JUMPDEST PUSH1 0x5 PUSH1 0x8 SWAP1 SLOAD SWAP1 PUSH2 0x100 EXP SWAP1 DIV PUSH8 0xFFFFFFFFFFFFFFFF AND DUP2 JUMP JUMPDEST PUSH0 DUP1 PUSH0 DUP4 DUP2 MSTORE PUSH1 0x20 ADD SWAP1 DUP2 MSTORE PUSH1 0x20 ADD PUSH0 KECCAK256 PUSH1 0x1 ADD SLOAD SWAP1 POP SWAP2 SWAP1 POP JUMP JUMPDEST PUSH1 0x60 PUSH1 0x3 PUSH0 DUP4 PUSH4 0xFFFFFFFF AND PUSH4 0xFFFFFFFF AND DUP2 MSTORE PUSH1 0x20 ADD SWAP1 DUP2 MSTORE PUSH1 0x20 ADD PUSH0 KECCAK256 DUP1 SLOAD DUP1 PUSH1 0x20 MUL PUSH1 0x20 ADD PUSH1 0x40 MLOAD SWAP1 DUP2 ADD PUSH1 0x40 MSTORE DUP1 SWAP3 SWAP2 SWAP1 DUP2 DUP2 MSTORE PUSH1 0x20 ADD DUP3 DUP1 SLOAD DUP1 ISZERO PUSH2 0xC53 JUMPI PUSH1 0x20 MUL DUP3 ADD SWAP2 SWAP1 PUSH0 MSTORE PUSH1 0x20 PUSH0 KECCAK256 SWAP1 PUSH0 SWAP1 JUMPDEST DUP3 DUP3 SWAP1 SLOAD SWAP1 PUSH2 0x100 EXP SWAP1 DIV PUSH1 0xFF AND PUSH1 0xFF AND DUP2 MSTORE PUSH1 0x20 ADD SWAP1 PUSH1 0x1 ADD SWAP1 PUSH1 0x20 DUP3 PUSH0 ADD DIV SWAP3 DUP4 ADD SWAP3 PUSH1 0x1 SUB DUP3 MUL SWAP2 POP DUP1 DUP5 GT PUSH2 0xC1D JUMPI SWAP1 POP JUMPDEST POP POP POP POP POP SWAP1 POP SWAP2 SWAP1 POP JUMP JUMPDEST PUSH0 PUSH2 0xC8A PUSH32 0x4270FAE16C6D150D00E80B689DACA99E8073B1838FF2B6063A37BE9D851283E4 DUP4 PUSH2 0x1609 JUMP JUMPDEST ISZERO PUSH2 0xC97 JUMPI PUSH0 SWAP1 POP PUSH2 0xCFD JUMP JUMPDEST PUSH0 PUSH1 0x1 PUSH1 0x15 SWAP1 SLOAD SWAP1 PUSH2 0x100 EXP SWAP1 DIV PUSH8 0xFFFFFFFFFFFFFFFF AND PUSH8 0xFFFFFFFFFFFFFFFF AND EQ DUP1 PUSH2 0xCEB JUMPI POP PUSH2 0xCEA PUSH32 0x74845DE37CFABD357633214B47FA91CCD19B05B7C5A08AC22C187F811FB62BCA DUP4 PUSH2 0x1609 JUMP JUMPDEST JUMPDEST ISZERO PUSH2 0xCF9 JUMPI PUSH1 0x1 SWAP1 POP PUSH2 0xCFD JUMP JUMPDEST PUSH0 SWAP1 POP JUMPDEST SWAP2 SWAP1 POP JUMP JUMPDEST DUP2 PUSH32 0x74845DE37CFABD357633214B47FA91CCD19B05B7C5A08AC22C187F811FB62BCA DUP2 EQ DUP1 PUSH2 0xD50 JUMPI POP PUSH32 0x4270FAE16C6D150D00E80B689DACA99E8073B1838FF2B6063A37BE9D851283E4 DUP2 EQ JUMPDEST DUP1 PUSH2 0xD7A JUMPI POP PUSH32 0x724AFACE199FE5BED93AE8508474576A9ADF3DC443B2C451842A2242919F19DE DUP2 EQ JUMPDEST ISZERO PUSH2 0xDE9 JUMPI CALLER PUSH20 0xFFFFFFFFFFFFFFFFFFFFFFFFFFFFFFFFFFFFFFFF AND ADDRESS PUSH20 0xFFFFFFFFFFFFFFFFFFFFFFFFFFFFFFFFFFFFFFFF AND EQ PUSH2 0xDE4 JUMPI PUSH1 0x40 MLOAD PUSH32 0xFABA723A00000000000000000000000000000000000000000000000000000000 DUP2 MSTORE PUSH1 0x4 ADD PUSH1 0x40 MLOAD DUP1 SWAP2 SUB SWAP1 REVERT JUMPDEST PUSH2 0xE7C JUMP JUMPDEST PUSH32 0xA49807205CE4D355092EF5A8A18F56E8913CF4A201FBE287825B095693C21775 DUP2 SUB PUSH2 0xE3E JUMPI PUSH2 0xE39 PUSH32 0xA49807205CE4D355092EF5A8A18F56E8913CF4A201FBE287825B095693C21775 PUSH2 0x286B JUMP JUMPDEST PUSH2 0xE7B JUMP JUMPDEST DUP1 PUSH1 0x40 MLOAD PUSH32 0x94FDC37200000000000000000000000000000000000000000000000000000000 DUP2 MSTORE PUSH1 0x4 ADD PUSH2 0xE72 SWAP2 SWAP1 PUSH2 0x3B0A JUMP JUMPDEST PUSH1 0x40 MLOAD DUP1 SWAP2 SUB SWAP1 REVERT JUMPDEST JUMPDEST PUSH2 0xE86 DUP4 DUP4 PUSH2 0x29FD JUMP JUMPDEST POP POP POP POP JUMP JUMPDEST PUSH0 DUP4 PUSH2 0xE97 DUP2 PUSH2 0xC5F JUMP JUMPDEST PUSH2 0xECD JUMPI PUSH1 0x40 MLOAD PUSH32 0x4AB5EBCD00000000000000000000000000000000000000000000000000000000 DUP2 MSTORE PUSH1 0x4 ADD PUSH1 0x40 MLOAD DUP1 SWAP2 SUB SWAP1 REVERT JUMPDEST PUSH0 PUSH1 0x40 MLOAD DUP1 PUSH1 0xC0 ADD PUSH1 0x40 MSTORE DUP1 PUSH1 0x2 PUSH0 SWAP1 SLOAD SWAP1 PUSH2 0x100 EXP SWAP1 DIV PUSH20 0xFFFFFFFFFFFFFFFFFFFFFFFFFFFFFFFFFFFFFFFF AND PUSH20 0xFFFFFFFFFFFFFFFFFFFFFFFFFFFFFFFFFFFFFFFF AND DUP2 MSTORE PUSH1 0x20 ADD DUP10 PUSH4 0xFFFFFFFF AND DUP2 MSTORE PUSH1 0x20 ADD DUP9 PUSH8 0xFFFFFFFFFFFFFFFF AND DUP2 MSTORE PUSH1 0x20 ADD DUP8 PUSH20 0xFFFFFFFFFFFFFFFFFFFFFFFFFFFFFFFFFFFFFFFF AND DUP2 MSTORE PUSH1 0x20 ADD PUSH1 0x5 PUSH1 0x8 SWAP1 SLOAD SWAP1 PUSH2 0x100 EXP SWAP1 DIV PUSH8 0xFFFFFFFFFFFFFFFF AND PUSH8 0xFFFFFFFFFFFFFFFF AND DUP2 MSTORE PUSH1 0x20 ADD PUSH1 0x1 PUSH1 0x1D SWAP1 SLOAD SWAP1 PUSH2 0x100 EXP SWAP1 DIV PUSH2 0xFFFF AND PUSH2 0xFFFF AND DUP2 MSTORE POP SWAP1 POP PUSH1 0x1 DUP1 SLOAD SWAP1 PUSH2 0x100 EXP SWAP1 DIV PUSH20 0xFFFFFFFFFFFFFFFFFFFFFFFFFFFFFFFFFFFFFFFF AND PUSH20 0xFFFFFFFFFFFFFFFFFFFFFFFFFFFFFFFFFFFFFFFF AND PUSH4 0x7BFA20A9 DUP3 PUSH1 0x6 PUSH0 DUP13 PUSH4 0xFFFFFFFF AND PUSH4 0xFFFFFFFF AND DUP2 MSTORE PUSH1 0x20 ADD SWAP1 DUP2 MSTORE PUSH1 0x20 ADD PUSH0 KECCAK256 DUP9 DUP9 PUSH1 0x40 MLOAD DUP6 PUSH4 0xFFFFFFFF AND PUSH1 0xE0 SHL DUP2 MSTORE PUSH1 0x4 ADD PUSH2 0x1009 SWAP5 SWAP4 SWAP3 SWAP2 SWAP1 PUSH2 0x474B JUMP JUMPDEST PUSH1 0x20 PUSH1 0x40 MLOAD DUP1 DUP4 SUB DUP2 DUP7 GAS STATICCALL ISZERO DUP1 ISZERO PUSH2 0x1024 JUMPI RETURNDATASIZE PUSH0 DUP1 RETURNDATACOPY RETURNDATASIZE PUSH0 REVERT JUMPDEST POP POP POP POP PUSH1 0x40 MLOAD RETURNDATASIZE PUSH1 0x1F NOT PUSH1 0x1F DUP3 ADD AND DUP3 ADD DUP1 PUSH1 0x40 MSTORE POP DUP2 ADD SWAP1 PUSH2 0x1048 SWAP2 SWAP1 PUSH2 0x479F JUMP JUMPDEST SWAP3 POP POP POP SWAP6 SWAP5 POP POP POP POP POP JUMP JUMPDEST CALLER PUSH20 0xFFFFFFFFFFFFFFFFFFFFFFFFFFFFFFFFFFFFFFFF AND ADDRESS PUSH20 0xFFFFFFFFFFFFFFFFFFFFFFFFFFFFFFFFFFFFFFFF AND EQ PUSH2 0x10BA JUMPI PUSH1 0x40 MLOAD PUSH32 0xFABA723A00000000000000000000000000000000000000000000000000000000 DUP2 MSTORE PUSH1 0x4 ADD PUSH1 0x40 MLOAD DUP1 SWAP2 SUB SWAP1 REVERT JUMPDEST PUSH2 0x10C4 DUP3 DUP3 PUSH2 0x2A94 JUMP JUMPDEST POP POP JUMP JUMPDEST PUSH1 0x40 MLOAD PUSH32 0xDEC9F03100000000000000000000000000000000000000000000000000000000 DUP2 MSTORE PUSH1 0x4 ADD PUSH1 0x40 MLOAD DUP1 SWAP2 SUB SWAP1 REVERT JUMPDEST PUSH32 0xA49807205CE4D355092EF5A8A18F56E8913CF4A201FBE287825B095693C21775 PUSH2 0x1124 DUP2 PUSH2 0x286B JUMP JUMPDEST PUSH0 JUMPDEST DUP4 DUP4 SWAP1 POP DUP2 LT ISZERO PUSH2 0x1287 JUMPI CALLDATASIZE DUP5 DUP5 DUP4 DUP2 DUP2 LT PUSH2 0x1145 JUMPI PUSH2 0x1144 PUSH2 0x47CA JUMP JUMPDEST JUMPDEST SWAP1 POP PUSH1 0x80 MUL ADD SWAP1 POP PUSH1 0x40 MLOAD DUP1 PUSH1 0x60 ADD PUSH1 0x40 MSTORE DUP1 DUP3 PUSH1 0x20 ADD PUSH1 0x20 DUP2 ADD SWAP1 PUSH2 0x116B SWAP2 SWAP1 PUSH2 0x3F9E JUMP JUMPDEST PUSH8 0xFFFFFFFFFFFFFFFF AND DUP2 MSTORE PUSH1 0x20 ADD DUP3 PUSH1 0x40 ADD PUSH1 0x20 DUP2 ADD SWAP1 PUSH2 0x118D SWAP2 SWAP1 PUSH2 0x4163 JUMP JUMPDEST PUSH2 0xFFFF AND DUP2 MSTORE PUSH1 0x20 ADD DUP3 PUSH1 0x60 ADD PUSH1 0x20 DUP2 ADD SWAP1 PUSH2 0x11A9 SWAP2 SWAP1 PUSH2 0x4821 JUMP JUMPDEST PUSH16 0xFFFFFFFFFFFFFFFFFFFFFFFFFFFFFFFF AND DUP2 MSTORE POP PUSH1 0x6 PUSH0 DUP4 PUSH0 ADD PUSH1 0x20 DUP2 ADD SWAP1 PUSH2 0x11D3 SWAP2 SWAP1 PUSH2 0x3B5C JUMP JUMPDEST PUSH4 0xFFFFFFFF AND PUSH4 0xFFFFFFFF AND DUP2 MSTORE PUSH1 0x20 ADD SWAP1 DUP2 MSTORE PUSH1 0x20 ADD PUSH0 KECCAK256 PUSH0 DUP3 ADD MLOAD DUP2 PUSH0 ADD PUSH0 PUSH2 0x100 EXP DUP2 SLOAD DUP2 PUSH8 0xFFFFFFFFFFFFFFFF MUL NOT AND SWAP1 DUP4 PUSH8 0xFFFFFFFFFFFFFFFF AND MUL OR SWAP1 SSTORE POP PUSH1 0x20 DUP3 ADD MLOAD DUP2 PUSH0 ADD PUSH1 0x8 PUSH2 0x100 EXP DUP2 SLOAD DUP2 PUSH2 0xFFFF MUL NOT AND SWAP1 DUP4 PUSH2 0xFFFF AND MUL OR SWAP1 SSTORE POP PUSH1 0x40 DUP3 ADD MLOAD DUP2 PUSH0 ADD PUSH1 0xA PUSH2 0x100 EXP DUP2 SLOAD DUP2 PUSH16 0xFFFFFFFFFFFFFFFFFFFFFFFFFFFFFFFF MUL NOT AND SWAP1 DUP4 PUSH16 0xFFFFFFFFFFFFFFFFFFFFFFFFFFFFFFFF AND MUL OR SWAP1 SSTORE POP SWAP1 POP POP POP DUP1 PUSH1 0x1 ADD SWAP1 POP PUSH2 0x1126 JUMP JUMPDEST POP PUSH32 0x7DD21E42791B013D1929E86F0C59085E4FCA24251F0F1AA81917B3B1611766E0 DUP4 DUP4 PUSH1 0x40 MLOAD PUSH2 0x12B9 SWAP3 SWAP2 SWAP1 PUSH2 0x49B8 JUMP JUMPDEST PUSH1 0x40 MLOAD DUP1 SWAP2 SUB SWAP1 LOG1 POP POP POP JUMP JUMPDEST PUSH0 DUP2 PUSH2 0x12D1 DUP2 PUSH2 0xC5F JUMP JUMPDEST PUSH2 0x1307 JUMPI PUSH1 0x40 MLOAD PUSH32 0x4AB5EBCD00000000000000000000000000000000000000000000000000000000 DUP2 MSTORE PUSH1 0x4 ADD PUSH1 0x40 MLOAD DUP1 SWAP2 SUB SWAP1 REVERT JUMPDEST PUSH0 PUSH1 0x40 MLOAD DUP1 PUSH1 0xC0 ADD PUSH1 0x40 MSTORE DUP1 PUSH1 0x2 PUSH0 SWAP1 SLOAD SWAP1 PUSH2 0x100 EXP SWAP1 DIV PUSH20 0xFFFFFFFFFFFFFFFFFFFFFFFFFFFFFFFFFFFFFFFF AND PUSH20 0xFFFFFFFFFFFFFFFFFFFFFFFFFFFFFFFFFFFFFFFF AND DUP2 MSTORE PUSH1 0x20 ADD DUP9 PUSH2 0xFFFF AND PUSH4 0xFFFFFFFF AND DUP2 MSTORE PUSH1 0x20 ADD DUP7 PUSH8 0xFFFFFFFFFFFFFFFF AND DUP2 MSTORE PUSH1 0x20 ADD DUP6 PUSH20 0xFFFFFFFFFFFFFFFFFFFFFFFFFFFFFFFFFFFFFFFF AND DUP2 MSTORE PUSH1 0x20 ADD PUSH1 0x5 PUSH1 0x8 SWAP1 SLOAD SWAP1 PUSH2 0x100 EXP SWAP1 DIV PUSH8 0xFFFFFFFFFFFFFFFF AND PUSH8 0xFFFFFFFFFFFFFFFF AND DUP2 MSTORE PUSH1 0x20 ADD PUSH1 0x1 PUSH1 0x1D SWAP1 SLOAD SWAP1 PUSH2 0x100 EXP SWAP1 DIV PUSH2 0xFFFF AND PUSH2 0xFFFF AND DUP2 MSTORE POP SWAP1 POP PUSH1 0x1 DUP1 SLOAD SWAP1 PUSH2 0x100 EXP SWAP1 DIV PUSH20 0xFFFFFFFFFFFFFFFFFFFFFFFFFFFFFFFFFFFFFFFF AND PUSH20 0xFFFFFFFFFFFFFFFFFFFFFFFFFFFFFFFFFFFFFFFF AND PUSH4 0x7BFA20A9 DUP3 PUSH1 0x6 PUSH0 DUP12 PUSH2 0xFFFF AND PUSH4 0xFFFFFFFF AND DUP2 MSTORE PUSH1 0x20 ADD SWAP1 DUP2 MSTORE PUSH1 0x20 ADD PUSH0 KECCAK256 PUSH1 0x40 MLOAD DUP1 PUSH1 0x20 ADD PUSH1 0x40 MSTORE DUP1 PUSH0 DUP2 MSTORE POP PUSH1 0x40 MLOAD DUP5 PUSH4 0xFFFFFFFF AND PUSH1 0xE0 SHL DUP2 MSTORE PUSH1 0x4 ADD PUSH2 0x1451 SWAP4 SWAP3 SWAP2 SWAP1 PUSH2 0x4A2A JUMP JUMPDEST PUSH1 0x20 PUSH1 0x40 MLOAD DUP1 DUP4 SUB DUP2 DUP7 GAS STATICCALL ISZERO DUP1 ISZERO PUSH2 0x146C JUMPI RETURNDATASIZE PUSH0 DUP1 RETURNDATACOPY RETURNDATASIZE PUSH0 REVERT JUMPDEST POP POP POP POP PUSH1 0x40 MLOAD RETURNDATASIZE PUSH1 0x1F NOT PUSH1 0x1F DUP3 ADD AND DUP3 ADD DUP1 PUSH1 0x40 MSTORE POP DUP2 ADD SWAP1 PUSH2 0x1490 SWAP2 SWAP1 PUSH2 0x479F JUMP JUMPDEST SWAP3 POP POP POP SWAP5 SWAP4 POP POP POP POP JUMP JUMPDEST PUSH0 PUSH1 0x1 PUSH0 SWAP1 SLOAD SWAP1 PUSH2 0x100 EXP SWAP1 DIV PUSH1 0xFF AND SWAP1 POP SWAP1 JUMP JUMPDEST PUSH32 0xA49807205CE4D355092EF5A8A18F56E8913CF4A201FBE287825B095693C21775 PUSH2 0x14DB DUP2 PUSH2 0x286B JUMP JUMPDEST DUP2 PUSH1 0x2 PUSH0 PUSH2 0x100 EXP DUP2 SLOAD DUP2 PUSH20 0xFFFFFFFFFFFFFFFFFFFFFFFFFFFFFFFFFFFFFFFF MUL NOT AND SWAP1 DUP4 PUSH20 0xFFFFFFFFFFFFFFFFFFFFFFFFFFFFFFFFFFFFFFFF AND MUL OR SWAP1 SSTORE POP PUSH32 0xF724A45D041687842411F2B977EF22AB8F43C8F1104F4592B42A00F9B34A643D DUP3 PUSH1 0x40 MLOAD PUSH2 0x154A SWAP2 SWAP1 PUSH2 0x3F85 JUMP JUMPDEST PUSH1 0x40 MLOAD DUP1 SWAP2 SUB SWAP1 LOG1 POP POP JUMP JUMPDEST PUSH1 0x4 PUSH1 0x20 MSTORE DUP1 PUSH0 MSTORE PUSH1 0x40 PUSH0 KECCAK256 PUSH0 SWAP2 POP SLOAD SWAP1 PUSH2 0x100 EXP SWAP1 DIV PUSH1 0xFF AND DUP2 JUMP JUMPDEST PUSH1 0x2 PUSH0 SWAP1 SLOAD SWAP1 PUSH2 0x100 EXP SWAP1 DIV PUSH20 0xFFFFFFFFFFFFFFFFFFFFFFFFFFFFFFFFFFFFFFFF AND DUP2 JUMP JUMPDEST CALLER PUSH20 0xFFFFFFFFFFFFFFFFFFFFFFFFFFFFFFFFFFFFFFFF AND ADDRESS PUSH20 0xFFFFFFFFFFFFFFFFFFFFFFFFFFFFFFFFFFFFFFFF AND EQ PUSH2 0x15FD JUMPI PUSH1 0x40 MLOAD PUSH32 0xFABA723A00000000000000000000000000000000000000000000000000000000 DUP2 MSTORE PUSH1 0x4 ADD PUSH1 0x40 MLOAD DUP1 SWAP2 SUB SWAP1 REVERT JUMPDEST PUSH2 0x1606 DUP2 PUSH2 0x2CA9 JUMP JUMPDEST POP JUMP JUMPDEST PUSH0 DUP1 PUSH0 DUP5 DUP2 MSTORE PUSH1 0x20 ADD SWAP1 DUP2 MSTORE PUSH1 0x20 ADD PUSH0 KECCAK256 PUSH0 ADD PUSH0 DUP4 PUSH20 0xFFFFFFFFFFFFFFFFFFFFFFFFFFFFFFFFFFFFFFFF AND PUSH20 0xFFFFFFFFFFFFFFFFFFFFFFFFFFFFFFFFFFFFFFFF AND DUP2 MSTORE PUSH1 0x20 ADD SWAP1 DUP2 MSTORE PUSH1 0x20 ADD PUSH0 KECCAK256 PUSH0 SWAP1 SLOAD SWAP1 PUSH2 0x100 EXP SWAP1 DIV PUSH1 0xFF AND SWAP1 POP SWAP3 SWAP2 POP POP JUMP JUMPDEST PUSH0 PUSH32 0x724AFACE199FE5BED93AE8508474576A9ADF3DC443B2C451842A2242919F19DE PUSH2 0x1697 DUP2 PUSH2 0x286B JUMP JUMPDEST DUP5 PUSH1 0x80 ADD PUSH1 0x20 DUP2 ADD SWAP1 PUSH2 0x16AA SWAP2 SWAP1 PUSH2 0x3C6A JUMP JUMPDEST PUSH2 0x16B3 DUP2 PUSH2 0xC5F JUMP JUMPDEST PUSH2 0x16E9 JUMPI PUSH1 0x40 MLOAD PUSH32 0x4AB5EBCD00000000000000000000000000000000000000000000000000000000 DUP2 MSTORE PUSH1 0x4 ADD PUSH1 0x40 MLOAD DUP1 SWAP2 SUB SWAP1 REVERT JUMPDEST PUSH0 PUSH1 0x40 MLOAD DUP1 PUSH1 0xC0 ADD PUSH1 0x40 MSTORE DUP1 PUSH1 0x2 PUSH0 SWAP1 SLOAD SWAP1 PUSH2 0x100 EXP SWAP1 DIV PUSH20 0xFFFFFFFFFFFFFFFFFFFFFFFFFFFFFFFFFFFFFFFF AND PUSH20 0xFFFFFFFFFFFFFFFFFFFFFFFFFFFFFFFFFFFFFFFF AND DUP2 MSTORE PUSH1 0x20 ADD DUP9 PUSH0 ADD PUSH1 0x20 DUP2 ADD SWAP1 PUSH2 0x1744 SWAP2 SWAP1 PUSH2 0x3B5C JUMP JUMPDEST PUSH4 0xFFFFFFFF AND DUP2 MSTORE PUSH1 0x20 ADD DUP9 PUSH1 0x60 ADD PUSH1 0x20 DUP2 ADD SWAP1 PUSH2 0x1762 SWAP2 SWAP1 PUSH2 0x3F9E JUMP JUMPDEST PUSH8 0xFFFFFFFFFFFFFFFF AND DUP2 MSTORE PUSH1 0x20 ADD DUP9 PUSH1 0x80 ADD PUSH1 0x20 DUP2 ADD SWAP1 PUSH2 0x1784 SWAP2 SWAP1 PUSH2 0x3C6A JUMP JUMPDEST PUSH20 0xFFFFFFFFFFFFFFFFFFFFFFFFFFFFFFFFFFFFFFFF AND DUP2 MSTORE PUSH1 0x20 ADD PUSH1 0x5 PUSH1 0x8 SWAP1 SLOAD SWAP1 PUSH2 0x100 EXP SWAP1 DIV PUSH8 0xFFFFFFFFFFFFFFFF AND PUSH8 0xFFFFFFFFFFFFFFFF AND DUP2 MSTORE PUSH1 0x20 ADD PUSH1 0x1 PUSH1 0x1D SWAP1 SLOAD SWAP1 PUSH2 0x100 EXP SWAP1 DIV PUSH2 0xFFFF AND PUSH2 0xFFFF AND DUP2 MSTORE POP SWAP1 POP PUSH1 0x1 DUP1 SLOAD SWAP1 PUSH2 0x100 EXP SWAP1 DIV PUSH20 0xFFFFFFFFFFFFFFFFFFFFFFFFFFFFFFFFFFFFFFFF AND PUSH20 0xFFFFFFFFFFFFFFFFFFFFFFFFFFFFFFFFFFFFFFFF AND PUSH4 0xDF2B057E DUP3 PUSH1 0x6 PUSH0 DUP12 PUSH0 ADD PUSH1 0x20 DUP2 ADD SWAP1 PUSH2 0x1831 SWAP2 SWAP1 PUSH2 0x3B5C JUMP JUMPDEST PUSH4 0xFFFFFFFF AND PUSH4 0xFFFFFFFF AND DUP2 MSTORE PUSH1 0x20 ADD SWAP1 DUP2 MSTORE PUSH1 0x20 ADD PUSH0 KECCAK256 DUP10 DUP10 PUSH1 0x40 MLOAD DUP6 PUSH4 0xFFFFFFFF AND PUSH1 0xE0 SHL DUP2 MSTORE PUSH1 0x4 ADD PUSH2 0x186B SWAP5 SWAP4 SWAP3 SWAP2 SWAP1 PUSH2 0x474B JUMP JUMPDEST PUSH1 0x20 PUSH1 0x40 MLOAD DUP1 DUP4 SUB DUP2 PUSH0 DUP8 GAS CALL ISZERO DUP1 ISZERO PUSH2 0x1887 JUMPI RETURNDATASIZE PUSH0 DUP1 RETURNDATACOPY RETURNDATASIZE PUSH0 REVERT JUMPDEST POP POP POP POP PUSH1 0x40 MLOAD RETURNDATASIZE PUSH1 0x1F NOT PUSH1 0x1F DUP3 ADD AND DUP3 ADD DUP1 PUSH1 0x40 MSTORE POP DUP2 ADD SWAP1 PUSH2 0x18AB SWAP2 SWAP1 PUSH2 0x479F JUMP JUMPDEST SWAP4 POP POP POP POP SWAP4 SWAP3 POP POP POP JUMP JUMPDEST PUSH1 0x6 PUSH1 0x20 MSTORE DUP1 PUSH0 MSTORE PUSH1 0x40 PUSH0 KECCAK256 PUSH0 SWAP2 POP SWAP1 POP DUP1 PUSH0 ADD PUSH0 SWAP1 SLOAD SWAP1 PUSH2 0x100 EXP SWAP1 DIV PUSH8 0xFFFFFFFFFFFFFFFF AND SWAP1 DUP1 PUSH0 ADD PUSH1 0x8 SWAP1 SLOAD SWAP1 PUSH2 0x100 EXP SWAP1 DIV PUSH2 0xFFFF AND SWAP1 DUP1 PUSH0 ADD PUSH1 0xA SWAP1 SLOAD SWAP1 PUSH2 0x100 EXP SWAP1 DIV PUSH16 0xFFFFFFFFFFFFFFFFFFFFFFFFFFFFFFFF AND SWAP1 POP DUP4 JUMP JUMPDEST PUSH0 DUP1 SHL DUP2 JUMP JUMPDEST PUSH1 0x7 PUSH1 0x20 MSTORE DUP1 PUSH0 MSTORE PUSH1 0x40 PUSH0 KECCAK256 PUSH0 SWAP2 POP SLOAD SWAP1 PUSH2 0x100 EXP SWAP1 DIV PUSH1 0xFF AND DUP2 JUMP JUMPDEST PUSH32 0xA49807205CE4D355092EF5A8A18F56E8913CF4A201FBE287825B095693C21775 PUSH2 0x1965 DUP2 PUSH2 0x286B JUMP JUMPDEST PUSH0 JUMPDEST DUP4 DUP4 SWAP1 POP DUP2 LT ISZERO PUSH2 0x1C62 JUMPI CALLDATASIZE DUP5 DUP5 DUP4 DUP2 DUP2 LT PUSH2 0x1986 JUMPI PUSH2 0x1985 PUSH2 0x47CA JUMP JUMPDEST JUMPDEST SWAP1 POP PUSH1 0x20 MUL DUP2 ADD SWAP1 PUSH2 0x1998 SWAP2 SWAP1 PUSH2 0x4A74 JUMP JUMPDEST SWAP1 POP PUSH32 0x0 PUSH4 0xFFFFFFFF AND DUP2 PUSH0 ADD PUSH1 0x20 DUP2 ADD SWAP1 PUSH2 0x19D3 SWAP2 SWAP1 PUSH2 0x3B5C JUMP JUMPDEST PUSH4 0xFFFFFFFF AND EQ PUSH2 0x19E4 JUMPI POP PUSH2 0x1C57 JUMP JUMPDEST TIMESTAMP DUP2 PUSH1 0x60 ADD CALLDATALOAD GT PUSH2 0x19F5 JUMPI POP PUSH2 0x1C57 JUMP JUMPDEST PUSH0 PUSH2 0x1A38 DUP3 PUSH0 ADD PUSH1 0x20 DUP2 ADD SWAP1 PUSH2 0x1A0B SWAP2 SWAP1 PUSH2 0x3B5C JUMP JUMPDEST DUP4 PUSH1 0x20 ADD PUSH1 0x20 DUP2 ADD SWAP1 PUSH2 0x1A1E SWAP2 SWAP1 PUSH2 0x3C6A JUMP JUMPDEST DUP5 DUP1 PUSH1 0x40 ADD SWAP1 PUSH2 0x1A2E SWAP2 SWAP1 PUSH2 0x4A9B JUMP JUMPDEST DUP7 PUSH1 0x60 ADD CALLDATALOAD PUSH2 0x2546 JUMP JUMPDEST SWAP1 POP PUSH0 PUSH2 0x1A54 DUP3 DUP5 DUP1 PUSH1 0x80 ADD SWAP1 PUSH2 0x1A4F SWAP2 SWAP1 PUSH2 0x4A9B JUMP JUMPDEST PUSH2 0x1F47 JUMP JUMPDEST POP SWAP1 POP DUP1 PUSH2 0x1A9B JUMPI PUSH32 0xD6D90193101048CC1B6EDCDC2348F5ACF7A4A4A97D3E7B668B74CB7602AB3EBC DUP5 PUSH1 0x40 MLOAD PUSH2 0x1A8B SWAP2 SWAP1 PUSH2 0x3DF1 JUMP JUMPDEST PUSH1 0x40 MLOAD DUP1 SWAP2 SUB SWAP1 LOG1 POP POP POP PUSH2 0x1C57 JUMP JUMPDEST PUSH0 PUSH2 0x1ABF DUP5 DUP1 PUSH1 0x40 ADD SWAP1 PUSH2 0x1AAF SWAP2 SWAP1 PUSH2 0x4A9B JUMP JUMPDEST SWAP1 PUSH2 0x1ABA SWAP2 SWAP1 PUSH2 0x4B13 JUMP JUMPDEST PUSH2 0x2DC4 JUMP JUMPDEST SWAP1 POP DUP1 ISZERO PUSH2 0x1B56 JUMPI PUSH1 0x7 PUSH0 DUP5 DUP2 MSTORE PUSH1 0x20 ADD SWAP1 DUP2 MSTORE PUSH1 0x20 ADD PUSH0 KECCAK256 PUSH0 SWAP1 SLOAD SWAP1 PUSH2 0x100 EXP SWAP1 DIV PUSH1 0xFF AND ISZERO PUSH2 0x1B2C JUMPI PUSH32 0x9BB9BDDBDF537A2104255307230B323D7982F4512EE8E5BD15DF62DDCA50AB97 DUP5 DUP5 PUSH1 0x40 MLOAD PUSH2 0x1B1B SWAP3 SWAP2 SWAP1 PUSH2 0x4CFC JUMP JUMPDEST PUSH1 0x40 MLOAD DUP1 SWAP2 SUB SWAP1 LOG1 POP POP POP POP PUSH2 0x1C57 JUMP JUMPDEST PUSH1 0x1 PUSH1 0x7 PUSH0 DUP6 DUP2 MSTORE PUSH1 0x20 ADD SWAP1 DUP2 MSTORE PUSH1 0x20 ADD PUSH0 KECCAK256 PUSH0 PUSH2 0x100 EXP DUP2 SLOAD DUP2 PUSH1 0xFF MUL NOT AND SWAP1 DUP4 ISZERO ISZERO MUL OR SWAP1 SSTORE POP JUMPDEST PUSH0 DUP1 DUP6 PUSH1 0x20 ADD PUSH1 0x20 DUP2 ADD SWAP1 PUSH2 0x1B6B SWAP2 SWAP1 PUSH2 0x3C6A JUMP JUMPDEST PUSH20 0xFFFFFFFFFFFFFFFFFFFFFFFFFFFFFFFFFFFFFFFF AND DUP7 DUP1 PUSH1 0x40 ADD SWAP1 PUSH2 0x1B91 SWAP2 SWAP1 PUSH2 0x4A9B JUMP JUMPDEST PUSH1 0x40 MLOAD PUSH2 0x1B9F SWAP3 SWAP2 SWAP1 PUSH2 0x4D58 JUMP JUMPDEST PUSH0 PUSH1 0x40 MLOAD DUP1 DUP4 SUB DUP2 PUSH0 DUP7 GAS CALL SWAP2 POP POP RETURNDATASIZE DUP1 PUSH0 DUP2 EQ PUSH2 0x1BD8 JUMPI PUSH1 0x40 MLOAD SWAP2 POP PUSH1 0x1F NOT PUSH1 0x3F RETURNDATASIZE ADD AND DUP3 ADD PUSH1 0x40 MSTORE RETURNDATASIZE DUP3 MSTORE RETURNDATASIZE PUSH0 PUSH1 0x20 DUP5 ADD RETURNDATACOPY PUSH2 0x1BDD JUMP JUMPDEST PUSH1 0x60 SWAP2 POP JUMPDEST POP SWAP2 POP SWAP2 POP DUP2 PUSH2 0x1C50 JUMPI DUP3 ISZERO PUSH2 0x1C16 JUMPI PUSH0 PUSH1 0x7 PUSH0 DUP8 DUP2 MSTORE PUSH1 0x20 ADD SWAP1 DUP2 MSTORE PUSH1 0x20 ADD PUSH0 KECCAK256 PUSH0 PUSH2 0x100 EXP DUP2 SLOAD DUP2 PUSH1 0xFF MUL NOT AND SWAP1 DUP4 ISZERO ISZERO MUL OR SWAP1 SSTORE POP JUMPDEST PUSH32 0xDC8CDD96296241BBEFDA4A8E18AD2E0985A8DA6495B34D409CFC4C886EE3B0CF DUP8 DUP3 PUSH1 0x40 MLOAD PUSH2 0x1C47 SWAP3 SWAP2 SWAP1 PUSH2 0x4D70 JUMP JUMPDEST PUSH1 0x40 MLOAD DUP1 SWAP2 SUB SWAP1 LOG1 JUMPDEST POP POP POP POP POP POP JUMPDEST DUP1 PUSH1 0x1 ADD SWAP1 POP PUSH2 0x1967 JUMP JUMPDEST POP POP POP POP JUMP JUMPDEST PUSH32 0xA49807205CE4D355092EF5A8A18F56E8913CF4A201FBE287825B095693C21775 PUSH2 0x1C92 DUP2 PUSH2 0x286B JUMP JUMPDEST DUP2 PUSH1 0x1 PUSH1 0x1D PUSH2 0x100 EXP DUP2 SLOAD DUP2 PUSH2 0xFFFF MUL NOT AND SWAP1 DUP4 PUSH2 0xFFFF AND MUL OR SWAP1 SSTORE POP PUSH32 0x7AF0AC740036FFB1C97B03697859D729E80A44AE5030543D64971C313565AB4D DUP3 PUSH1 0x40 MLOAD PUSH2 0x1CDE SWAP2 SWAP1 PUSH2 0x385C JUMP JUMPDEST PUSH1 0x40 MLOAD DUP1 SWAP2 SUB SWAP1 LOG1 POP POP JUMP JUMPDEST PUSH1 0x1 DUP1 SLOAD SWAP1 PUSH2 0x100 EXP SWAP1 DIV PUSH20 0xFFFFFFFFFFFFFFFFFFFFFFFFFFFFFFFFFFFFFFFF AND DUP2 JUMP JUMPDEST PUSH0 PUSH32 0x724AFACE199FE5BED93AE8508474576A9ADF3DC443B2C451842A2242919F19DE PUSH2 0x1D39 DUP2 PUSH2 0x286B JUMP JUMPDEST DUP3 PUSH2 0x1D43 DUP2 PUSH2 0xC5F JUMP JUMPDEST PUSH2 0x1D79 JUMPI PUSH1 0x40 MLOAD PUSH32 0x4AB5EBCD00000000000000000000000000000000000000000000000000000000 DUP2 MSTORE PUSH1 0x4 ADD PUSH1 0x40 MLOAD DUP1 SWAP2 SUB SWAP1 REVERT JUMPDEST PUSH0 PUSH1 0x40 MLOAD DUP1 PUSH1 0xC0 ADD PUSH1 0x40 MSTORE DUP1 PUSH1 0x2 PUSH0 SWAP1 SLOAD SWAP1 PUSH2 0x100 EXP SWAP1 DIV PUSH20 0xFFFFFFFFFFFFFFFFFFFFFFFFFFFFFFFFFFFFFFFF AND PUSH20 0xFFFFFFFFFFFFFFFFFFFFFFFFFFFFFFFFFFFFFFFF AND DUP2 MSTORE PUSH1 0x20 ADD DUP10 PUSH2 0xFFFF AND PUSH4 0xFFFFFFFF AND DUP2 MSTORE PUSH1 0x20 ADD DUP8 PUSH8 0xFFFFFFFFFFFFFFFF AND DUP2 MSTORE PUSH1 0x20 ADD DUP7 PUSH20 0xFFFFFFFFFFFFFFFFFFFFFFFFFFFFFFFFFFFFFFFF AND DUP2 MSTORE PUSH1 0x20 ADD PUSH1 0x5 PUSH1 0x8 SWAP1 SLOAD SWAP1 PUSH2 0x100 EXP SWAP1 DIV PUSH8 0xFFFFFFFFFFFFFFFF AND PUSH8 0xFFFFFFFFFFFFFFFF AND DUP2 MSTORE PUSH1 0x20 ADD PUSH1 0x1 PUSH1 0x1D SWAP1 SLOAD SWAP1 PUSH2 0x100 EXP SWAP1 DIV PUSH2 0xFFFF AND PUSH2 0xFFFF AND DUP2 MSTORE POP SWAP1 POP PUSH1 0x1 DUP1 SLOAD SWAP1 PUSH2 0x100 EXP SWAP1 DIV PUSH20 0xFFFFFFFFFFFFFFFFFFFFFFFFFFFFFFFFFFFFFFFF AND PUSH20 0xFFFFFFFFFFFFFFFFFFFFFFFFFFFFFFFFFFFFFFFF AND PUSH4 0xDF2B057E DUP3 PUSH1 0x6 PUSH0 DUP13 PUSH2 0xFFFF AND PUSH4 0xFFFFFFFF AND DUP2 MSTORE PUSH1 0x20 ADD SWAP1 DUP2 MSTORE PUSH1 0x20 ADD PUSH0 KECCAK256 PUSH1 0x40 MLOAD DUP1 PUSH1 0x20 ADD PUSH1 0x40 MSTORE DUP1 PUSH0 DUP2 MSTORE POP PUSH1 0x40 MLOAD DUP5 PUSH4 0xFFFFFFFF AND PUSH1 0xE0 SHL DUP2 MSTORE PUSH1 0x4 ADD PUSH2 0x1EC3 SWAP4 SWAP3 SWAP2 SWAP1 PUSH2 0x4A2A JUMP JUMPDEST PUSH1 0x20 PUSH1 0x40 MLOAD DUP1 DUP4 SUB DUP2 PUSH0 DUP8 GAS CALL ISZERO DUP1 ISZERO PUSH2 0x1EDF JUMPI RETURNDATASIZE PUSH0 DUP1 RETURNDATACOPY RETURNDATASIZE PUSH0 REVERT JUMPDEST POP POP POP POP PUSH1 0x40 MLOAD RETURNDATASIZE PUSH1 0x1F NOT PUSH1 0x1F DUP3 ADD AND DUP3 ADD DUP1 PUSH1 0x40 MSTORE POP DUP2 ADD SWAP1 PUSH2 0x1F03 SWAP2 SWAP1 PUSH2 0x479F JUMP JUMPDEST SWAP4 POP PUSH32 0x87E46B0A6199BC734632187269A103C05714EE0ADAE5B28F30723955724F37EF DUP5 PUSH1 0x40 MLOAD PUSH2 0x1F34 SWAP2 SWAP1 PUSH2 0x3DF1 JUMP JUMPDEST PUSH1 0x40 MLOAD DUP1 SWAP2 SUB SWAP1 LOG1 POP POP POP SWAP5 SWAP4 POP POP POP POP JUMP JUMPDEST PUSH0 DUP1 PUSH1 0x41 PUSH1 0x5 PUSH1 0x8 SWAP1 SLOAD SWAP1 PUSH2 0x100 EXP SWAP1 DIV PUSH8 0xFFFFFFFFFFFFFFFF AND PUSH8 0xFFFFFFFFFFFFFFFF AND PUSH2 0x1F76 SWAP2 SWAP1 PUSH2 0x4DCB JUMP JUMPDEST DUP5 DUP5 SWAP1 POP EQ PUSH2 0x1F8B JUMPI PUSH0 PUSH1 0x1 SWAP2 POP SWAP2 POP PUSH2 0x217C JUMP JUMPDEST PUSH0 PUSH2 0x1F95 DUP7 PUSH2 0x2E66 JUMP JUMPDEST SWAP1 POP PUSH0 DUP1 JUMPDEST PUSH1 0x5 PUSH1 0x8 SWAP1 SLOAD SWAP1 PUSH2 0x100 EXP SWAP1 DIV PUSH8 0xFFFFFFFFFFFFFFFF AND PUSH8 0xFFFFFFFFFFFFFFFF AND DUP2 LT ISZERO PUSH2 0x2171 JUMPI CALLDATASIZE PUSH0 DUP9 DUP9 PUSH1 0x41 DUP6 PUSH2 0x1FD3 SWAP2 SWAP1 PUSH2 0x4DCB JUMP JUMPDEST SWAP1 PUSH1 0x41 PUSH1 0x1 DUP8 PUSH2 0x1FE3 SWAP2 SWAP1 PUSH2 0x4E0C JUMP JUMPDEST PUSH2 0x1FED SWAP2 SWAP1 PUSH2 0x4DCB JUMP JUMPDEST SWAP3 PUSH2 0x1FFA SWAP4 SWAP3 SWAP2 SWAP1 PUSH2 0x4E47 JUMP JUMPDEST SWAP2 POP SWAP2 POP PUSH0 DUP1 PUSH0 PUSH2 0x204E DUP9 DUP7 DUP7 DUP1 DUP1 PUSH1 0x1F ADD PUSH1 0x20 DUP1 SWAP2 DIV MUL PUSH1 0x20 ADD PUSH1 0x40 MLOAD SWAP1 DUP2 ADD PUSH1 0x40 MSTORE DUP1 SWAP4 SWAP3 SWAP2 SWAP1 DUP2 DUP2 MSTORE PUSH1 0x20 ADD DUP4 DUP4 DUP1 DUP3 DUP5 CALLDATACOPY PUSH0 DUP2 DUP5 ADD MSTORE PUSH1 0x1F NOT PUSH1 0x1F DUP3 ADD AND SWAP1 POP DUP1 DUP4 ADD SWAP3 POP POP POP POP POP POP POP PUSH2 0x2E95 JUMP JUMPDEST SWAP3 POP SWAP3 POP SWAP3 POP PUSH1 0x41 PUSH1 0x20 PUSH1 0xFF AND EQ PUSH2 0x2074 JUMPI PUSH0 PUSH1 0x2 SWAP10 POP SWAP10 POP POP POP POP POP POP POP POP POP PUSH2 0x217C JUMP JUMPDEST PUSH0 PUSH1 0x3 DUP2 GT ISZERO PUSH2 0x2087 JUMPI PUSH2 0x2086 PUSH2 0x41EB JUMP JUMPDEST JUMPDEST DUP3 PUSH1 0x3 DUP2 GT ISZERO PUSH2 0x209A JUMPI PUSH2 0x2099 PUSH2 0x41EB JUMP JUMPDEST JUMPDEST EQ PUSH2 0x20B3 JUMPI PUSH0 PUSH1 0x1 SWAP10 POP SWAP10 POP POP POP POP POP POP POP POP POP PUSH2 0x217C JUMP JUMPDEST DUP7 PUSH20 0xFFFFFFFFFFFFFFFFFFFFFFFFFFFFFFFFFFFFFFFF AND DUP4 PUSH20 0xFFFFFFFFFFFFFFFFFFFFFFFFFFFFFFFFFFFFFFFF AND GT PUSH2 0x20FA JUMPI PUSH0 PUSH1 0x3 SWAP10 POP SWAP10 POP POP POP POP POP POP POP POP POP PUSH2 0x217C JUMP JUMPDEST PUSH1 0x4 PUSH0 DUP5 PUSH20 0xFFFFFFFFFFFFFFFFFFFFFFFFFFFFFFFFFFFFFFFF AND PUSH20 0xFFFFFFFFFFFFFFFFFFFFFFFFFFFFFFFFFFFFFFFF AND DUP2 MSTORE PUSH1 0x20 ADD SWAP1 DUP2 MSTORE PUSH1 0x20 ADD PUSH0 KECCAK256 PUSH0 SWAP1 SLOAD SWAP1 PUSH2 0x100 EXP SWAP1 DIV PUSH1 0xFF AND PUSH2 0x215C JUMPI PUSH0 PUSH1 0x4 SWAP10 POP SWAP10 POP POP POP POP POP POP POP POP POP PUSH2 0x217C JUMP JUMPDEST DUP3 SWAP7 POP POP POP POP POP POP DUP1 DUP1 PUSH1 0x1 ADD SWAP2 POP POP PUSH2 0x1F9A JUMP JUMPDEST POP PUSH1 0x1 PUSH0 SWAP4 POP SWAP4 POP POP POP JUMPDEST SWAP4 POP SWAP4 SWAP2 POP POP JUMP JUMPDEST PUSH32 0xA49807205CE4D355092EF5A8A18F56E8913CF4A201FBE287825B095693C21775 PUSH2 0x21AE DUP2 PUSH2 0x286B JUMP JUMPDEST DUP2 PUSH1 0x1 DUP1 PUSH2 0x100 EXP DUP2 SLOAD DUP2 PUSH20 0xFFFFFFFFFFFFFFFFFFFFFFFFFFFFFFFFFFFFFFFF MUL NOT AND SWAP1 DUP4 PUSH20 0xFFFFFFFFFFFFFFFFFFFFFFFFFFFFFFFFFFFFFFFF AND MUL OR SWAP1 SSTORE POP PUSH32 0x1399BE28223800F8669B3BA5F8721D9FC16FC4E8D0BBF98378791C8C5A3015E0 DUP3 PUSH1 0x40 MLOAD PUSH2 0x221D SWAP2 SWAP1 PUSH2 0x3F85 JUMP JUMPDEST PUSH1 0x40 MLOAD DUP1 SWAP2 SUB SWAP1 LOG1 POP POP JUMP JUMPDEST PUSH32 0xA49807205CE4D355092EF5A8A18F56E8913CF4A201FBE287825B095693C21775 PUSH2 0x2253 DUP2 PUSH2 0x286B JUMP JUMPDEST DUP3 DUP3 PUSH1 0x3 PUSH0 DUP8 PUSH4 0xFFFFFFFF AND PUSH4 0xFFFFFFFF AND DUP2 MSTORE PUSH1 0x20 ADD SWAP1 DUP2 MSTORE PUSH1 0x20 ADD PUSH0 KECCAK256 SWAP2 SWAP1 PUSH2 0x227F SWAP3 SWAP2 SWAP1 PUSH2 0x3780 JUMP JUMPDEST POP POP POP POP POP JUMP JUMPDEST PUSH32 0x0 DUP2 JUMP JUMPDEST PUSH1 0x1 PUSH1 0x15 SWAP1 SLOAD SWAP1 PUSH2 0x100 EXP SWAP1 DIV PUSH8 0xFFFFFFFFFFFFFFFF AND DUP2 JUMP JUMPDEST DUP2 PUSH32 0x74845DE37CFABD357633214B47FA91CCD19B05B7C5A08AC22C187F811FB62BCA DUP2 EQ DUP1 PUSH2 0x2312 JUMPI POP PUSH32 0x4270FAE16C6D150D00E80B689DACA99E8073B1838FF2B6063A37BE9D851283E4 DUP2 EQ JUMPDEST DUP1 PUSH2 0x233C JUMPI POP PUSH32 0x724AFACE199FE5BED93AE8508474576A9ADF3DC443B2C451842A2242919F19DE DUP2 EQ JUMPDEST ISZERO PUSH2 0x23AB JUMPI CALLER PUSH20 0xFFFFFFFFFFFFFFFFFFFFFFFFFFFFFFFFFFFFFFFF AND ADDRESS PUSH20 0xFFFFFFFFFFFFFFFFFFFFFFFFFFFFFFFFFFFFFFFF AND EQ PUSH2 0x23A6 JUMPI PUSH1 0x40 MLOAD PUSH32 0xFABA723A00000000000000000000000000000000000000000000000000000000 DUP2 MSTORE PUSH1 0x4 ADD PUSH1 0x40 MLOAD DUP1 SWAP2 SUB SWAP1 REVERT JUMPDEST PUSH2 0x243E JUMP JUMPDEST PUSH32 0xA49807205CE4D355092EF5A8A18F56E8913CF4A201FBE287825B095693C21775 DUP2 SUB PUSH2 0x2400 JUMPI PUSH2 0x23FB PUSH32 0xA49807205CE4D355092EF5A8A18F56E8913CF4A201FBE287825B095693C21775 PUSH2 0x286B JUMP JUMPDEST PUSH2 0x243D JUMP JUMPDEST DUP1 PUSH1 0x40 MLOAD PUSH32 0x94FDC37200000000000000000000000000000000000000000000000000000000 DUP2 MSTORE PUSH1 0x4 ADD PUSH2 0x2434 SWAP2 SWAP1 PUSH2 0x3B0A JUMP JUMPDEST PUSH1 0x40 MLOAD DUP1 SWAP2 SUB SWAP1 REVERT JUMPDEST JUMPDEST PUSH2 0x2448 DUP4 DUP4 PUSH2 0x2EEA JUMP JUMPDEST POP POP POP POP JUMP JUMPDEST PUSH32 0xA49807205CE4D355092EF5A8A18F56E8913CF4A201FBE287825B095693C21775 PUSH2 0x2478 DUP2 PUSH2 0x286B JUMP JUMPDEST PUSH2 0x24A2 PUSH32 0x724AFACE199FE5BED93AE8508474576A9ADF3DC443B2C451842A2242919F19DE DUP6 PUSH2 0x1609 JUMP JUMPDEST PUSH2 0x24D8 JUMPI PUSH1 0x40 MLOAD PUSH32 0x5EE08B9700000000000000000000000000000000000000000000000000000000 DUP2 MSTORE PUSH1 0x4 ADD PUSH1 0x40 MLOAD DUP1 SWAP2 SUB SWAP1 REVERT JUMPDEST DUP4 PUSH20 0xFFFFFFFFFFFFFFFFFFFFFFFFFFFFFFFFFFFFFFFF AND PUSH4 0x7B18BDE DUP5 DUP5 PUSH1 0x40 MLOAD DUP4 PUSH4 0xFFFFFFFF AND PUSH1 0xE0 SHL DUP2 MSTORE PUSH1 0x4 ADD PUSH2 0x2513 SWAP3 SWAP2 SWAP1 PUSH2 0x4E90 JUMP JUMPDEST PUSH0 PUSH1 0x40 MLOAD DUP1 DUP4 SUB DUP2 PUSH0 DUP8 DUP1 EXTCODESIZE ISZERO DUP1 ISZERO PUSH2 0x252A JUMPI PUSH0 DUP1 REVERT JUMPDEST POP GAS CALL ISZERO DUP1 ISZERO PUSH2 0x253C JUMPI RETURNDATASIZE PUSH0 DUP1 RETURNDATACOPY RETURNDATASIZE PUSH0 REVERT JUMPDEST POP POP POP POP POP POP POP POP JUMP JUMPDEST PUSH0 DUP6 DUP6 DUP4 DUP7 DUP7 PUSH1 0x40 MLOAD PUSH1 0x20 ADD PUSH2 0x2560 SWAP6 SWAP5 SWAP4 SWAP3 SWAP2 SWAP1 PUSH2 0x4F50 JUMP JUMPDEST PUSH1 0x40 MLOAD PUSH1 0x20 DUP2 DUP4 SUB SUB DUP2 MSTORE SWAP1 PUSH1 0x40 MSTORE DUP1 MLOAD SWAP1 PUSH1 0x20 ADD KECCAK256 SWAP1 POP SWAP6 SWAP5 POP POP POP POP POP JUMP JUMPDEST TIMESTAMP DUP2 PUSH1 0x60 ADD CALLDATALOAD GT PUSH2 0x25BE JUMPI PUSH1 0x40 MLOAD PUSH32 0xBBAF26300000000000000000000000000000000000000000000000000000000 DUP2 MSTORE PUSH1 0x4 ADD PUSH1 0x40 MLOAD DUP1 SWAP2 SUB SWAP1 REVERT JUMPDEST ADDRESS PUSH20 0xFFFFFFFFFFFFFFFFFFFFFFFFFFFFFFFFFFFFFFFF AND DUP2 PUSH1 0x20 ADD PUSH1 0x20 DUP2 ADD SWAP1 PUSH2 0x25E8 SWAP2 SWAP1 PUSH2 0x3C6A JUMP JUMPDEST PUSH20 0xFFFFFFFFFFFFFFFFFFFFFFFFFFFFFFFFFFFFFFFF AND EQ PUSH2 0x2652 JUMPI DUP1 PUSH1 0x20 ADD PUSH1 0x20 DUP2 ADD SWAP1 PUSH2 0x2616 SWAP2 SWAP1 PUSH2 0x3C6A JUMP JUMPDEST PUSH1 0x40 MLOAD PUSH32 0x1CE0BFCD00000000000000000000000000000000000000000000000000000000 DUP2 MSTORE PUSH1 0x4 ADD PUSH2 0x2649 SWAP2 SWAP1 PUSH2 0x3F85 JUMP JUMPDEST PUSH1 0x40 MLOAD DUP1 SWAP2 SUB SWAP1 REVERT JUMPDEST PUSH32 0x0 PUSH4 0xFFFFFFFF AND DUP2 PUSH0 ADD PUSH1 0x20 DUP2 ADD SWAP1 PUSH2 0x268B SWAP2 SWAP1 PUSH2 0x3B5C JUMP JUMPDEST PUSH4 0xFFFFFFFF AND EQ PUSH2 0x26E4 JUMPI DUP1 PUSH0 ADD PUSH1 0x20 DUP2 ADD SWAP1 PUSH2 0x26A8 SWAP2 SWAP1 PUSH2 0x3B5C JUMP JUMPDEST PUSH1 0x40 MLOAD PUSH32 0x2697E1C200000000000000000000000000000000000000000000000000000000 DUP2 MSTORE PUSH1 0x4 ADD PUSH2 0x26DB SWAP2 SWAP1 PUSH2 0x4346 JUMP JUMPDEST PUSH1 0x40 MLOAD DUP1 SWAP2 SUB SWAP1 REVERT JUMPDEST PUSH0 PUSH2 0x2727 DUP3 PUSH0 ADD PUSH1 0x20 DUP2 ADD SWAP1 PUSH2 0x26FA SWAP2 SWAP1 PUSH2 0x3B5C JUMP JUMPDEST DUP4 PUSH1 0x20 ADD PUSH1 0x20 DUP2 ADD SWAP1 PUSH2 0x270D SWAP2 SWAP1 PUSH2 0x3C6A JUMP JUMPDEST DUP5 DUP1 PUSH1 0x40 ADD SWAP1 PUSH2 0x271D SWAP2 SWAP1 PUSH2 0x4A9B JUMP JUMPDEST DUP7 PUSH1 0x60 ADD CALLDATALOAD PUSH2 0x2546 JUMP JUMPDEST SWAP1 POP PUSH0 PUSH2 0x2743 DUP3 DUP5 DUP1 PUSH1 0x80 ADD SWAP1 PUSH2 0x273E SWAP2 SWAP1 PUSH2 0x4A9B JUMP JUMPDEST PUSH2 0x1F47 JUMP JUMPDEST POP SWAP1 POP DUP1 PUSH2 0x277D JUMPI PUSH1 0x40 MLOAD PUSH32 0x15ECADEE00000000000000000000000000000000000000000000000000000000 DUP2 MSTORE PUSH1 0x4 ADD PUSH1 0x40 MLOAD DUP1 SWAP2 SUB SWAP1 REVERT JUMPDEST PUSH1 0x7 PUSH0 DUP4 DUP2 MSTORE PUSH1 0x20 ADD SWAP1 DUP2 MSTORE PUSH1 0x20 ADD PUSH0 KECCAK256 PUSH0 SWAP1 SLOAD SWAP1 PUSH2 0x100 EXP SWAP1 DIV PUSH1 0xFF AND ISZERO PUSH2 0x27DD JUMPI DUP2 PUSH1 0x40 MLOAD PUSH32 0x9D6A45A600000000000000000000000000000000000000000000000000000000 DUP2 MSTORE PUSH1 0x4 ADD PUSH2 0x27D4 SWAP2 SWAP1 PUSH2 0x3B0A JUMP JUMPDEST PUSH1 0x40 MLOAD DUP1 SWAP2 SUB SWAP1 REVERT JUMPDEST PUSH1 0x1 PUSH1 0x7 PUSH0 DUP5 DUP2 MSTORE PUSH1 0x20 ADD SWAP1 DUP2 MSTORE PUSH1 0x20 ADD PUSH0 KECCAK256 PUSH0 PUSH2 0x100 EXP DUP2 SLOAD DUP2 PUSH1 0xFF MUL NOT AND SWAP1 DUP4 ISZERO ISZERO MUL OR SWAP1 SSTORE POP PUSH2 0x284C PUSH32 0xA49807205CE4D355092EF5A8A18F56E8913CF4A201FBE287825B095693C21775 DUP5 DUP1 PUSH1 0x40 ADD SWAP1 PUSH2 0x283A SWAP2 SWAP1 PUSH2 0x4A9B JUMP JUMPDEST DUP2 ADD SWAP1 PUSH2 0x2847 SWAP2 SWAP1 PUSH2 0x4F9B JUMP JUMPDEST PUSH2 0x29FD JUMP JUMPDEST POP POP POP POP JUMP JUMPDEST PUSH1 0x5 PUSH0 SWAP1 SLOAD SWAP1 PUSH2 0x100 EXP SWAP1 DIV PUSH8 0xFFFFFFFFFFFFFFFF AND DUP2 JUMP JUMPDEST PUSH2 0x287C DUP2 PUSH2 0x2877 PUSH2 0x2F80 JUMP JUMPDEST PUSH2 0x2F87 JUMP JUMPDEST POP JUMP JUMPDEST PUSH0 PUSH20 0xFFFFFFFFFFFFFFFFFFFFFFFFFFFFFFFFFFFFFFFF AND DUP4 PUSH20 0xFFFFFFFFFFFFFFFFFFFFFFFFFFFFFFFFFFFFFFFF AND SUB PUSH2 0x28C1 JUMPI PUSH2 0x28BC DUP3 DUP3 PUSH2 0x2FD8 JUMP JUMPDEST PUSH2 0x28CD JUMP JUMPDEST PUSH2 0x28CC DUP4 DUP4 DUP4 PUSH2 0x30EE JUMP JUMPDEST JUMPDEST POP POP POP JUMP JUMPDEST PUSH0 PUSH32 0x1FFC9A700000000000000000000000000000000000000000000000000000000 PUSH28 0xFFFFFFFFFFFFFFFFFFFFFFFFFFFFFFFFFFFFFFFFFFFFFFFFFFFFFFFF NOT AND DUP3 PUSH28 0xFFFFFFFFFFFFFFFFFFFFFFFFFFFFFFFFFFFFFFFFFFFFFFFFFFFFFFFF NOT AND EQ SWAP1 POP SWAP2 SWAP1 POP JUMP JUMPDEST PUSH2 0x2943 PUSH2 0x3183 JUMP JUMPDEST PUSH1 0x1 DUP1 PUSH0 PUSH2 0x100 EXP DUP2 SLOAD DUP2 PUSH1 0xFF MUL NOT AND SWAP1 DUP4 ISZERO ISZERO MUL OR SWAP1 SSTORE POP PUSH32 0x62E78CEA01BEE320CD4E420270B5EA74000D11B0C9F74754EBDBFC544B05A258 PUSH2 0x2985 PUSH2 0x2F80 JUMP JUMPDEST PUSH1 0x40 MLOAD PUSH2 0x2992 SWAP2 SWAP1 PUSH2 0x3F85 JUMP JUMPDEST PUSH1 0x40 MLOAD DUP1 SWAP2 SUB SWAP1 LOG1 JUMP JUMPDEST PUSH2 0x29A4 PUSH2 0x31C4 JUMP JUMPDEST PUSH0 PUSH1 0x1 PUSH0 PUSH2 0x100 EXP DUP2 SLOAD DUP2 PUSH1 0xFF MUL NOT AND SWAP1 DUP4 ISZERO ISZERO MUL OR SWAP1 SSTORE POP PUSH32 0x5DB9EE0A495BF2E6FF9C91A7834C1BA4FDD244A5E8AA4E537BD38AEAE4B073AA PUSH2 0x29E6 PUSH2 0x2F80 JUMP JUMPDEST PUSH1 0x40 MLOAD PUSH2 0x29F3 SWAP2 SWAP1 PUSH2 0x3F85 JUMP JUMPDEST PUSH1 0x40 MLOAD DUP1 SWAP2 SUB SWAP1 LOG1 JUMP JUMPDEST PUSH0 PUSH32 0x74845DE37CFABD357633214B47FA91CCD19B05B7C5A08AC22C187F811FB62BCA DUP4 EQ DUP1 ISZERO PUSH2 0x2A34 JUMPI POP PUSH2 0x2A32 DUP4 DUP4 PUSH2 0x1609 JUMP JUMPDEST ISZERO JUMPDEST ISZERO PUSH2 0x2A82 JUMPI PUSH1 0x1 PUSH1 0x15 DUP2 DUP2 SWAP1 SLOAD SWAP1 PUSH2 0x100 EXP SWAP1 DIV PUSH8 0xFFFFFFFFFFFFFFFF AND PUSH2 0x2A5B SWAP1 PUSH2 0x4FC6 JUMP JUMPDEST SWAP2 SWAP1 PUSH2 0x100 EXP DUP2 SLOAD DUP2 PUSH8 0xFFFFFFFFFFFFFFFF MUL NOT AND SWAP1 DUP4 PUSH8 0xFFFFFFFFFFFFFFFF AND MUL OR SWAP1 SSTORE POP JUMPDEST PUSH2 0x2A8C DUP4 DUP4 PUSH2 0x3204 JUMP JUMPDEST SWAP1 POP SWAP3 SWAP2 POP POP JUMP JUMPDEST DUP1 ISZERO ISZERO PUSH1 0x4 PUSH0 DUP5 PUSH20 0xFFFFFFFFFFFFFFFFFFFFFFFFFFFFFFFFFFFFFFFF AND PUSH20 0xFFFFFFFFFFFFFFFFFFFFFFFFFFFFFFFFFFFFFFFF AND DUP2 MSTORE PUSH1 0x20 ADD SWAP1 DUP2 MSTORE PUSH1 0x20 ADD PUSH0 KECCAK256 PUSH0 SWAP1 SLOAD SWAP1 PUSH2 0x100 EXP SWAP1 DIV PUSH1 0xFF AND ISZERO ISZERO SUB PUSH2 0x2B27 JUMPI DUP2 DUP2 PUSH1 0x40 MLOAD PUSH32 0x58C8D2A000000000000000000000000000000000000000000000000000000000 DUP2 MSTORE PUSH1 0x4 ADD PUSH2 0x2B1E SWAP3 SWAP2 SWAP1 PUSH2 0x4FF5 JUMP JUMPDEST PUSH1 0x40 MLOAD DUP1 SWAP2 SUB SWAP1 REVERT JUMPDEST DUP1 PUSH1 0x4 PUSH0 DUP5 PUSH20 0xFFFFFFFFFFFFFFFFFFFFFFFFFFFFFFFFFFFFFFFF AND PUSH20 0xFFFFFFFFFFFFFFFFFFFFFFFFFFFFFFFFFFFFFFFF AND DUP2 MSTORE PUSH1 0x20 ADD SWAP1 DUP2 MSTORE PUSH1 0x20 ADD PUSH0 KECCAK256 PUSH0 PUSH2 0x100 EXP DUP2 SLOAD DUP2 PUSH1 0xFF MUL NOT AND SWAP1 DUP4 ISZERO ISZERO MUL OR SWAP1 SSTORE POP PUSH0 DUP2 PUSH2 0x2BA8 JUMPI PUSH1 0x1 PUSH1 0x5 PUSH0 SWAP1 SLOAD SWAP1 PUSH2 0x100 EXP SWAP1 DIV PUSH8 0xFFFFFFFFFFFFFFFF AND PUSH2 0x2BA3 SWAP2 SWAP1 PUSH2 0x501C JUMP JUMPDEST PUSH2 0x2BCB JUMP JUMPDEST PUSH1 0x1 PUSH1 0x5 PUSH0 SWAP1 SLOAD SWAP1 PUSH2 0x100 EXP SWAP1 DIV PUSH8 0xFFFFFFFFFFFFFFFF AND PUSH2 0x2BCA SWAP2 SWAP1 PUSH2 0x5057 JUMP JUMPDEST JUMPDEST SWAP1 POP PUSH0 PUSH1 0x5 PUSH1 0x8 SWAP1 SLOAD SWAP1 PUSH2 0x100 EXP SWAP1 DIV PUSH8 0xFFFFFFFFFFFFFFFF AND SWAP1 POP DUP1 PUSH8 0xFFFFFFFFFFFFFFFF AND DUP3 PUSH8 0xFFFFFFFFFFFFFFFF AND LT ISZERO PUSH2 0x2C42 JUMPI DUP2 DUP2 PUSH1 0x40 MLOAD PUSH32 0xF1C582AE00000000000000000000000000000000000000000000000000000000 DUP2 MSTORE PUSH1 0x4 ADD PUSH2 0x2C39 SWAP3 SWAP2 SWAP1 PUSH2 0x5092 JUMP JUMPDEST PUSH1 0x40 MLOAD DUP1 SWAP2 SUB SWAP1 REVERT JUMPDEST DUP2 PUSH1 0x5 PUSH0 PUSH2 0x100 EXP DUP2 SLOAD DUP2 PUSH8 0xFFFFFFFFFFFFFFFF MUL NOT AND SWAP1 DUP4 PUSH8 0xFFFFFFFFFFFFFFFF AND MUL OR SWAP1 SSTORE POP PUSH32 0x863D338CAD74814B108A06288AD5E0E80D56495E0332238B1D2CDCFA0CA8E5CE DUP5 DUP5 PUSH1 0x40 MLOAD PUSH2 0x2C9B SWAP3 SWAP2 SWAP1 PUSH2 0x4FF5 JUMP JUMPDEST PUSH1 0x40 MLOAD DUP1 SWAP2 SUB SWAP1 LOG1 POP POP POP POP JUMP JUMPDEST PUSH0 DUP2 PUSH8 0xFFFFFFFFFFFFFFFF AND SUB PUSH2 0x2CEC JUMPI PUSH1 0x40 MLOAD PUSH32 0x5F86E17700000000000000000000000000000000000000000000000000000000 DUP2 MSTORE PUSH1 0x4 ADD PUSH1 0x40 MLOAD DUP1 SWAP2 SUB SWAP1 REVERT JUMPDEST PUSH0 PUSH1 0x5 PUSH0 SWAP1 SLOAD SWAP1 PUSH2 0x100 EXP SWAP1 DIV PUSH8 0xFFFFFFFFFFFFFFFF AND SWAP1 POP DUP2 PUSH8 0xFFFFFFFFFFFFFFFF AND DUP2 PUSH8 0xFFFFFFFFFFFFFFFF AND LT ISZERO PUSH2 0x2D60 JUMPI DUP1 DUP3 PUSH1 0x40 MLOAD PUSH32 0xF1C582AE00000000000000000000000000000000000000000000000000000000 DUP2 MSTORE PUSH1 0x4 ADD PUSH2 0x2D57 SWAP3 SWAP2 SWAP1 PUSH2 0x5092 JUMP JUMPDEST PUSH1 0x40 MLOAD DUP1 SWAP2 SUB SWAP1 REVERT JUMPDEST DUP2 PUSH1 0x5 PUSH1 0x8 PUSH2 0x100 EXP DUP2 SLOAD DUP2 PUSH8 0xFFFFFFFFFFFFFFFF MUL NOT AND SWAP1 DUP4 PUSH8 0xFFFFFFFFFFFFFFFF AND MUL OR SWAP1 SSTORE POP PUSH32 0xB600F3CF7F38A4B49BB0C75F722EF69F7E3E39EF3BB4AA8207FD86E724A23249 DUP3 PUSH1 0x40 MLOAD PUSH2 0x2DB8 SWAP2 SWAP1 PUSH2 0x3A84 JUMP JUMPDEST PUSH1 0x40 MLOAD DUP1 SWAP2 SUB SWAP1 LOG1 POP POP JUMP JUMPDEST PUSH0 PUSH4 0x223536E PUSH1 0xE0 SHL PUSH28 0xFFFFFFFFFFFFFFFFFFFFFFFFFFFFFFFFFFFFFFFFFFFFFFFFFFFFFFFF NOT AND DUP3 PUSH28 0xFFFFFFFFFFFFFFFFFFFFFFFFFFFFFFFFFFFFFFFFFFFFFFFFFFFFFFFF NOT AND EQ ISZERO DUP1 ISZERO PUSH2 0x2E5F JUMPI POP PUSH4 0x704316E5 PUSH1 0xE0 SHL PUSH28 0xFFFFFFFFFFFFFFFFFFFFFFFFFFFFFFFFFFFFFFFFFFFFFFFFFFFFFFFF NOT AND DUP3 PUSH28 0xFFFFFFFFFFFFFFFFFFFFFFFFFFFFFFFFFFFFFFFFFFFFFFFFFFFFFFFF NOT AND EQ ISZERO JUMPDEST SWAP1 POP SWAP2 SWAP1 POP JUMP JUMPDEST PUSH0 DUP2 PUSH1 0x40 MLOAD PUSH1 0x20 ADD PUSH2 0x2E78 SWAP2 SWAP1 PUSH2 0x512D JUMP JUMPDEST PUSH1 0x40 MLOAD PUSH1 0x20 DUP2 DUP4 SUB SUB DUP2 MSTORE SWAP1 PUSH1 0x40 MSTORE DUP1 MLOAD SWAP1 PUSH1 0x20 ADD KECCAK256 SWAP1 POP SWAP2 SWAP1 POP JUMP JUMPDEST PUSH0 DUP1 PUSH0 PUSH1 0x41 DUP5 MLOAD SUB PUSH2 0x2ED5 JUMPI PUSH0 DUP1 PUSH0 PUSH1 0x20 DUP8 ADD MLOAD SWAP3 POP PUSH1 0x40 DUP8 ADD MLOAD SWAP2 POP PUSH1 0x60 DUP8 ADD MLOAD PUSH0 BYTE SWAP1 POP PUSH2 0x2EC7 DUP9 DUP3 DUP6 DUP6 PUSH2 0x32ED JUMP JUMPDEST SWAP6 POP SWAP6 POP SWAP6 POP POP POP POP PUSH2 0x2EE3 JUMP JUMPDEST PUSH0 PUSH1 0x2 DUP6 MLOAD PUSH0 SHL SWAP3 POP SWAP3 POP SWAP3 POP JUMPDEST SWAP3 POP SWAP3 POP SWAP3 JUMP JUMPDEST PUSH0 PUSH32 0x74845DE37CFABD357633214B47FA91CCD19B05B7C5A08AC22C187F811FB62BCA DUP4 EQ DUP1 ISZERO PUSH2 0x2F20 JUMPI POP PUSH2 0x2F1F DUP4 DUP4 PUSH2 0x1609 JUMP JUMPDEST JUMPDEST ISZERO PUSH2 0x2F6E JUMPI PUSH1 0x1 PUSH1 0x15 DUP2 DUP2 SWAP1 SLOAD SWAP1 PUSH2 0x100 EXP SWAP1 DIV PUSH8 0xFFFFFFFFFFFFFFFF AND PUSH2 0x2F47 SWAP1 PUSH2 0x5152 JUMP JUMPDEST SWAP2 SWAP1 PUSH2 0x100 EXP DUP2 SLOAD DUP2 PUSH8 0xFFFFFFFFFFFFFFFF MUL NOT AND SWAP1 DUP4 PUSH8 0xFFFFFFFFFFFFFFFF AND MUL OR SWAP1 SSTORE POP JUMPDEST PUSH2 0x2F78 DUP4 DUP4 PUSH2 0x33D4 JUMP JUMPDEST SWAP1 POP SWAP3 SWAP2 POP POP JUMP JUMPDEST PUSH0 CALLER SWAP1 POP SWAP1 JUMP JUMPDEST PUSH2 0x2F91 DUP3 DUP3 PUSH2 0x1609 JUMP JUMPDEST PUSH2 0x2FD4 JUMPI DUP1 DUP3 PUSH1 0x40 MLOAD PUSH32 0xE2517D3F00000000000000000000000000000000000000000000000000000000 DUP2 MSTORE PUSH1 0x4 ADD PUSH2 0x2FCB SWAP3 SWAP2 SWAP1 PUSH2 0x5179 JUMP JUMPDEST PUSH1 0x40 MLOAD DUP1 SWAP2 SUB SWAP1 REVERT JUMPDEST POP POP JUMP JUMPDEST PUSH0 PUSH20 0xFFFFFFFFFFFFFFFFFFFFFFFFFFFFFFFFFFFFFFFF AND DUP3 PUSH20 0xFFFFFFFFFFFFFFFFFFFFFFFFFFFFFFFFFFFFFFFF AND SUB PUSH2 0x303D JUMPI PUSH1 0x40 MLOAD PUSH32 0x6B7A931000000000000000000000000000000000000000000000000000000000 DUP2 MSTORE PUSH1 0x4 ADD PUSH1 0x40 MLOAD DUP1 SWAP2 SUB SWAP1 REVERT JUMPDEST PUSH0 DUP3 PUSH20 0xFFFFFFFFFFFFFFFFFFFFFFFFFFFFFFFFFFFFFFFF AND DUP3 PUSH1 0x40 MLOAD PUSH2 0x3062 SWAP1 PUSH2 0x51C3 JUMP JUMPDEST PUSH0 PUSH1 0x40 MLOAD DUP1 DUP4 SUB DUP2 DUP6 DUP8 GAS CALL SWAP3 POP POP POP RETURNDATASIZE DUP1 PUSH0 DUP2 EQ PUSH2 0x309C JUMPI PUSH1 0x40 MLOAD SWAP2 POP PUSH1 0x1F NOT PUSH1 0x3F RETURNDATASIZE ADD AND DUP3 ADD PUSH1 0x40 MSTORE RETURNDATASIZE DUP3 MSTORE RETURNDATASIZE PUSH0 PUSH1 0x20 DUP5 ADD RETURNDATACOPY PUSH2 0x30A1 JUMP JUMPDEST PUSH1 0x60 SWAP2 POP JUMPDEST POP POP SWAP1 POP DUP1 PUSH2 0x30E9 JUMPI DUP3 DUP3 PUSH1 0x40 MLOAD PUSH32 0x465BC83400000000000000000000000000000000000000000000000000000000 DUP2 MSTORE PUSH1 0x4 ADD PUSH2 0x30E0 SWAP3 SWAP2 SWAP1 PUSH2 0x44D3 JUMP JUMPDEST PUSH1 0x40 MLOAD DUP1 SWAP2 SUB SWAP1 REVERT JUMPDEST POP POP POP JUMP JUMPDEST PUSH0 PUSH20 0xFFFFFFFFFFFFFFFFFFFFFFFFFFFFFFFFFFFFFFFF AND DUP3 PUSH20 0xFFFFFFFFFFFFFFFFFFFFFFFFFFFFFFFFFFFFFFFF AND SUB PUSH2 0x3153 JUMPI PUSH1 0x40 MLOAD PUSH32 0x6B7A931000000000000000000000000000000000000000000000000000000000 DUP2 MSTORE PUSH1 0x4 ADD PUSH1 0x40 MLOAD DUP1 SWAP2 SUB SWAP1 REVERT JUMPDEST PUSH2 0x317E DUP3 DUP3 DUP6 PUSH20 0xFFFFFFFFFFFFFFFFFFFFFFFFFFFFFFFFFFFFFFFF AND PUSH2 0x34BD SWAP1 SWAP3 SWAP2 SWAP1 PUSH4 0xFFFFFFFF AND JUMP JUMPDEST POP POP POP JUMP JUMPDEST PUSH2 0x318B PUSH2 0x149C JUMP JUMPDEST ISZERO PUSH2 0x31C2 JUMPI PUSH1 0x40 MLOAD PUSH32 0xD93C066500000000000000000000000000000000000000000000000000000000 DUP2 MSTORE PUSH1 0x4 ADD PUSH1 0x40 MLOAD DUP1 SWAP2 SUB SWAP1 REVERT JUMPDEST JUMP JUMPDEST PUSH2 0x31CC PUSH2 0x149C JUMP JUMPDEST PUSH2 0x3202 JUMPI PUSH1 0x40 MLOAD PUSH32 0x8DFC202B00000000000000000000000000000000000000000000000000000000 DUP2 MSTORE PUSH1 0x4 ADD PUSH1 0x40 MLOAD DUP1 SWAP2 SUB SWAP1 REVERT JUMPDEST JUMP JUMPDEST PUSH0 PUSH2 0x320F DUP4 DUP4 PUSH2 0x1609 JUMP JUMPDEST PUSH2 0x32E3 JUMPI PUSH1 0x1 PUSH0 DUP1 DUP6 DUP2 MSTORE PUSH1 0x20 ADD SWAP1 DUP2 MSTORE PUSH1 0x20 ADD PUSH0 KECCAK256 PUSH0 ADD PUSH0 DUP5 PUSH20 0xFFFFFFFFFFFFFFFFFFFFFFFFFFFFFFFFFFFFFFFF AND PUSH20 0xFFFFFFFFFFFFFFFFFFFFFFFFFFFFFFFFFFFFFFFF AND DUP2 MSTORE PUSH1 0x20 ADD SWAP1 DUP2 MSTORE PUSH1 0x20 ADD PUSH0 KECCAK256 PUSH0 PUSH2 0x100 EXP DUP2 SLOAD DUP2 PUSH1 0xFF MUL NOT AND SWAP1 DUP4 ISZERO ISZERO MUL OR SWAP1 SSTORE POP PUSH2 0x3280 PUSH2 0x2F80 JUMP JUMPDEST PUSH20 0xFFFFFFFFFFFFFFFFFFFFFFFFFFFFFFFFFFFFFFFF AND DUP3 PUSH20 0xFFFFFFFFFFFFFFFFFFFFFFFFFFFFFFFFFFFFFFFF AND DUP5 PUSH32 0x2F8788117E7EFF1D82E926EC794901D17C78024A50270940304540A733656F0D PUSH1 0x40 MLOAD PUSH1 0x40 MLOAD DUP1 SWAP2 SUB SWAP1 LOG4 PUSH1 0x1 SWAP1 POP PUSH2 0x32E7 JUMP JUMPDEST PUSH0 SWAP1 POP JUMPDEST SWAP3 SWAP2 POP POP JUMP JUMPDEST PUSH0 DUP1 PUSH0 PUSH32 0x7FFFFFFFFFFFFFFFFFFFFFFFFFFFFFFF5D576E7357A4501DDFE92F46681B20A0 DUP5 PUSH0 SHR GT ISZERO PUSH2 0x3329 JUMPI PUSH0 PUSH1 0x3 DUP6 SWAP3 POP SWAP3 POP SWAP3 POP PUSH2 0x33CA JUMP JUMPDEST PUSH0 PUSH1 0x1 DUP9 DUP9 DUP9 DUP9 PUSH1 0x40 MLOAD PUSH0 DUP2 MSTORE PUSH1 0x20 ADD PUSH1 0x40 MSTORE PUSH1 0x40 MLOAD PUSH2 0x334C SWAP5 SWAP4 SWAP3 SWAP2 SWAP1 PUSH2 0x51E6 JUMP JUMPDEST PUSH1 0x20 PUSH1 0x40 MLOAD PUSH1 0x20 DUP2 SUB SWAP1 DUP1 DUP5 SUB SWAP1 DUP6 GAS STATICCALL ISZERO DUP1 ISZERO PUSH2 0x336C JUMPI RETURNDATASIZE PUSH0 DUP1 RETURNDATACOPY RETURNDATASIZE PUSH0 REVERT JUMPDEST POP POP POP PUSH1 0x20 PUSH1 0x40 MLOAD SUB MLOAD SWAP1 POP PUSH0 PUSH20 0xFFFFFFFFFFFFFFFFFFFFFFFFFFFFFFFFFFFFFFFF AND DUP2 PUSH20 0xFFFFFFFFFFFFFFFFFFFFFFFFFFFFFFFFFFFFFFFF AND SUB PUSH2 0x33BD JUMPI PUSH0 PUSH1 0x1 PUSH0 DUP1 SHL SWAP4 POP SWAP4 POP SWAP4 POP POP PUSH2 0x33CA JUMP JUMPDEST DUP1 PUSH0 DUP1 PUSH0 SHL SWAP4 POP SWAP4 POP SWAP4 POP POP JUMPDEST SWAP5 POP SWAP5 POP SWAP5 SWAP2 POP POP JUMP JUMPDEST PUSH0 PUSH2 0x33DF DUP4 DUP4 PUSH2 0x1609 JUMP JUMPDEST ISZERO PUSH2 0x34B3 JUMPI PUSH0 DUP1 PUSH0 DUP6 DUP2 MSTORE PUSH1 0x20 ADD SWAP1 DUP2 MSTORE PUSH1 0x20 ADD PUSH0 KECCAK256 PUSH0 ADD PUSH0 DUP5 PUSH20 0xFFFFFFFFFFFFFFFFFFFFFFFFFFFFFFFFFFFFFFFF AND PUSH20 0xFFFFFFFFFFFFFFFFFFFFFFFFFFFFFFFFFFFFFFFF AND DUP2 MSTORE PUSH1 0x20 ADD SWAP1 DUP2 MSTORE PUSH1 0x20 ADD PUSH0 KECCAK256 PUSH0 PUSH2 0x100 EXP DUP2 SLOAD DUP2 PUSH1 0xFF MUL NOT AND SWAP1 DUP4 ISZERO ISZERO MUL OR SWAP1 SSTORE POP PUSH2 0x3450 PUSH2 0x2F80 JUMP JUMPDEST PUSH20 0xFFFFFFFFFFFFFFFFFFFFFFFFFFFFFFFFFFFFFFFF AND DUP3 PUSH20 0xFFFFFFFFFFFFFFFFFFFFFFFFFFFFFFFFFFFFFFFF AND DUP5 PUSH32 0xF6391F5C32D9C69D2A47EA670B442974B53935D1EDC7FD64EB21E047A839171B PUSH1 0x40 MLOAD PUSH1 0x40 MLOAD DUP1 SWAP2 SUB SWAP1 LOG4 PUSH1 0x1 SWAP1 POP PUSH2 0x34B7 JUMP JUMPDEST PUSH0 SWAP1 POP JUMPDEST SWAP3 SWAP2 POP POP JUMP JUMPDEST PUSH2 0x3537 DUP4 DUP5 PUSH20 0xFFFFFFFFFFFFFFFFFFFFFFFFFFFFFFFFFFFFFFFF AND PUSH4 0xA9059CBB DUP6 DUP6 PUSH1 0x40 MLOAD PUSH1 0x24 ADD PUSH2 0x34F0 SWAP3 SWAP2 SWAP1 PUSH2 0x44D3 JUMP JUMPDEST PUSH1 0x40 MLOAD PUSH1 0x20 DUP2 DUP4 SUB SUB DUP2 MSTORE SWAP1 PUSH1 0x40 MSTORE SWAP2 POP PUSH1 0xE0 SHL PUSH1 0x20 DUP3 ADD DUP1 MLOAD PUSH28 0xFFFFFFFFFFFFFFFFFFFFFFFFFFFFFFFFFFFFFFFFFFFFFFFFFFFFFFFF DUP4 DUP2 DUP4 AND OR DUP4 MSTORE POP POP POP POP PUSH2 0x353C JUMP JUMPDEST POP POP POP JUMP JUMPDEST PUSH0 PUSH2 0x3566 DUP3 DUP5 PUSH20 0xFFFFFFFFFFFFFFFFFFFFFFFFFFFFFFFFFFFFFFFF AND PUSH2 0x35D1 SWAP1 SWAP2 SWAP1 PUSH4 0xFFFFFFFF AND JUMP JUMPDEST SWAP1 POP PUSH0 DUP2 MLOAD EQ ISZERO DUP1 ISZERO PUSH2 0x358A JUMPI POP DUP1 DUP1 PUSH1 0x20 ADD SWAP1 MLOAD DUP2 ADD SWAP1 PUSH2 0x3588 SWAP2 SWAP1 PUSH2 0x523D JUMP JUMPDEST ISZERO JUMPDEST ISZERO PUSH2 0x35CC JUMPI DUP3 PUSH1 0x40 MLOAD PUSH32 0x5274AFE700000000000000000000000000000000000000000000000000000000 DUP2 MSTORE PUSH1 0x4 ADD PUSH2 0x35C3 SWAP2 SWAP1 PUSH2 0x3F85 JUMP JUMPDEST PUSH1 0x40 MLOAD DUP1 SWAP2 SUB SWAP1 REVERT JUMPDEST POP POP POP JUMP JUMPDEST PUSH1 0x60 PUSH2 0x35DE DUP4 DUP4 PUSH0 PUSH2 0x35E6 JUMP JUMPDEST SWAP1 POP SWAP3 SWAP2 POP POP JUMP JUMPDEST PUSH1 0x60 DUP2 SELFBALANCE LT ISZERO PUSH2 0x362D JUMPI ADDRESS PUSH1 0x40 MLOAD PUSH32 0xCD78605900000000000000000000000000000000000000000000000000000000 DUP2 MSTORE PUSH1 0x4 ADD PUSH2 0x3624 SWAP2 SWAP1 PUSH2 0x3F85 JUMP JUMPDEST PUSH1 0x40 MLOAD DUP1 SWAP2 SUB SWAP1 REVERT JUMPDEST PUSH0 DUP1 DUP6 PUSH20 0xFFFFFFFFFFFFFFFFFFFFFFFFFFFFFFFFFFFFFFFF AND DUP5 DUP7 PUSH1 0x40 MLOAD PUSH2 0x3655 SWAP2 SWAP1 PUSH2 0x5298 JUMP JUMPDEST PUSH0 PUSH1 0x40 MLOAD DUP1 DUP4 SUB DUP2 DUP6 DUP8 GAS CALL SWAP3 POP POP POP RETURNDATASIZE DUP1 PUSH0 DUP2 EQ PUSH2 0x368F JUMPI PUSH1 0x40 MLOAD SWAP2 POP PUSH1 0x1F NOT PUSH1 0x3F RETURNDATASIZE ADD AND DUP3 ADD PUSH1 0x40 MSTORE RETURNDATASIZE DUP3 MSTORE RETURNDATASIZE PUSH0 PUSH1 0x20 DUP5 ADD RETURNDATACOPY PUSH2 0x3694 JUMP JUMPDEST PUSH1 0x60 SWAP2 POP JUMPDEST POP SWAP2 POP SWAP2 POP PUSH2 0x36A4 DUP7 DUP4 DUP4 PUSH2 0x36AF JUMP JUMPDEST SWAP3 POP POP POP SWAP4 SWAP3 POP POP POP JUMP JUMPDEST PUSH1 0x60 DUP3 PUSH2 0x36C4 JUMPI PUSH2 0x36BF DUP3 PUSH2 0x373C JUMP JUMPDEST PUSH2 0x3734 JUMP JUMPDEST PUSH0 DUP3 MLOAD EQ DUP1 ISZERO PUSH2 0x36EA JUMPI POP PUSH0 DUP5 PUSH20 0xFFFFFFFFFFFFFFFFFFFFFFFFFFFFFFFFFFFFFFFF AND EXTCODESIZE EQ JUMPDEST ISZERO PUSH2 0x372C JUMPI DUP4 PUSH1 0x40 MLOAD PUSH32 0x9996B31500000000000000000000000000000000000000000000000000000000 DUP2 MSTORE PUSH1 0x4 ADD PUSH2 0x3723 SWAP2 SWAP1 PUSH2 0x3F85 JUMP JUMPDEST PUSH1 0x40 MLOAD DUP1 SWAP2 SUB SWAP1 REVERT JUMPDEST DUP2 SWAP1 POP PUSH2 0x3735 JUMP JUMPDEST JUMPDEST SWAP4 SWAP3 POP POP POP JUMP JUMPDEST PUSH0 DUP2 MLOAD GT ISZERO PUSH2 0x374E JUMPI DUP1 MLOAD DUP1 DUP3 PUSH1 0x20 ADD REVERT JUMPDEST PUSH1 0x40 MLOAD PUSH32 0x1425EA4200000000000000000000000000000000000000000000000000000000 DUP2 MSTORE PUSH1 0x4 ADD PUSH1 0x40 MLOAD DUP1 SWAP2 SUB SWAP1 REVERT JUMPDEST DUP3 DUP1 SLOAD DUP3 DUP3 SSTORE SWAP1 PUSH0 MSTORE PUSH1 0x20 PUSH0 KECCAK256 SWAP1 PUSH1 0x1F ADD PUSH1 0x20 SWAP1 DIV DUP2 ADD SWAP3 DUP3 ISZERO PUSH2 0x3814 JUMPI SWAP2 PUSH1 0x20 MUL DUP3 ADD PUSH0 JUMPDEST DUP4 DUP3 GT ISZERO PUSH2 0x37E6 JUMPI DUP4 CALLDATALOAD PUSH1 0xFF AND DUP4 DUP3 PUSH2 0x100 EXP DUP2 SLOAD DUP2 PUSH1 0xFF MUL NOT AND SWAP1 DUP4 PUSH1 0xFF AND MUL OR SWAP1 SSTORE POP SWAP3 PUSH1 0x20 ADD SWAP3 PUSH1 0x1 ADD PUSH1 0x20 DUP2 PUSH0 ADD DIV SWAP3 DUP4 ADD SWAP3 PUSH1 0x1 SUB MUL PUSH2 0x37A6 JUMP JUMPDEST DUP1 ISZERO PUSH2 0x3812 JUMPI DUP3 DUP2 PUSH2 0x100 EXP DUP2 SLOAD SWAP1 PUSH1 0xFF MUL NOT AND SWAP1 SSTORE PUSH1 0x1 ADD PUSH1 0x20 DUP2 PUSH0 ADD DIV SWAP3 DUP4 ADD SWAP3 PUSH1 0x1 SUB MUL PUSH2 0x37E6 JUMP JUMPDEST POP JUMPDEST POP SWAP1 POP PUSH2 0x3821 SWAP2 SWAP1 PUSH2 0x3825 JUMP JUMPDEST POP SWAP1 JUMP JUMPDEST JUMPDEST DUP1 DUP3 GT ISZERO PUSH2 0x383C JUMPI PUSH0 DUP2 PUSH0 SWAP1 SSTORE POP PUSH1 0x1 ADD PUSH2 0x3826 JUMP JUMPDEST POP SWAP1 JUMP JUMPDEST PUSH0 PUSH2 0xFFFF DUP3 AND SWAP1 POP SWAP2 SWAP1 POP JUMP JUMPDEST PUSH2 0x3856 DUP2 PUSH2 0x3840 JUMP JUMPDEST DUP3 MSTORE POP POP JUMP JUMPDEST PUSH0 PUSH1 0x20 DUP3 ADD SWAP1 POP PUSH2 0x386F PUSH0 DUP4 ADD DUP5 PUSH2 0x384D JUMP JUMPDEST SWAP3 SWAP2 POP POP JUMP JUMPDEST PUSH0 DUP1 REVERT JUMPDEST PUSH0 DUP1 REVERT JUMPDEST PUSH0 PUSH20 0xFFFFFFFFFFFFFFFFFFFFFFFFFFFFFFFFFFFFFFFF DUP3 AND SWAP1 POP SWAP2 SWAP1 POP JUMP JUMPDEST PUSH0 PUSH2 0x38A6 DUP3 PUSH2 0x387D JUMP JUMPDEST SWAP1 POP SWAP2 SWAP1 POP JUMP JUMPDEST PUSH2 0x38B6 DUP2 PUSH2 0x389C JUMP JUMPDEST DUP2 EQ PUSH2 0x38C0 JUMPI PUSH0 DUP1 REVERT JUMPDEST POP JUMP JUMPDEST PUSH0 DUP2 CALLDATALOAD SWAP1 POP PUSH2 0x38D1 DUP2 PUSH2 0x38AD JUMP JUMPDEST SWAP3 SWAP2 POP POP JUMP JUMPDEST PUSH0 DUP2 SWAP1 POP SWAP2 SWAP1 POP JUMP JUMPDEST PUSH2 0x38E9 DUP2 PUSH2 0x38D7 JUMP JUMPDEST DUP2 EQ PUSH2 0x38F3 JUMPI PUSH0 DUP1 REVERT JUMPDEST POP JUMP JUMPDEST PUSH0 DUP2 CALLDATALOAD SWAP1 POP PUSH2 0x3904 DUP2 PUSH2 0x38E0 JUMP JUMPDEST SWAP3 SWAP2 POP POP JUMP JUMPDEST PUSH0 DUP1 PUSH0 PUSH1 0x60 DUP5 DUP7 SUB SLT ISZERO PUSH2 0x3921 JUMPI PUSH2 0x3920 PUSH2 0x3875 JUMP JUMPDEST JUMPDEST PUSH0 PUSH2 0x392E DUP7 DUP3 DUP8 ADD PUSH2 0x38C3 JUMP JUMPDEST SWAP4 POP POP PUSH1 0x20 PUSH2 0x393F DUP7 DUP3 DUP8 ADD PUSH2 0x38C3 JUMP JUMPDEST SWAP3 POP POP PUSH1 0x40 PUSH2 0x3950 DUP7 DUP3 DUP8 ADD PUSH2 0x38F6 JUMP JUMPDEST SWAP2 POP POP SWAP3 POP SWAP3 POP SWAP3 JUMP JUMPDEST PUSH0 PUSH32 0xFFFFFFFF00000000000000000000000000000000000000000000000000000000 DUP3 AND SWAP1 POP SWAP2 SWAP1 POP JUMP JUMPDEST PUSH2 0x398E DUP2 PUSH2 0x395A JUMP JUMPDEST DUP2 EQ PUSH2 0x3998 JUMPI PUSH0 DUP1 REVERT JUMPDEST POP JUMP JUMPDEST PUSH0 DUP2 CALLDATALOAD SWAP1 POP PUSH2 0x39A9 DUP2 PUSH2 0x3985 JUMP JUMPDEST SWAP3 SWAP2 POP POP JUMP JUMPDEST PUSH0 PUSH1 0x20 DUP3 DUP5 SUB SLT ISZERO PUSH2 0x39C4 JUMPI PUSH2 0x39C3 PUSH2 0x3875 JUMP JUMPDEST JUMPDEST PUSH0 PUSH2 0x39D1 DUP5 DUP3 DUP6 ADD PUSH2 0x399B JUMP JUMPDEST SWAP2 POP POP SWAP3 SWAP2 POP POP JUMP JUMPDEST PUSH0 DUP2 ISZERO ISZERO SWAP1 POP SWAP2 SWAP1 POP JUMP JUMPDEST PUSH2 0x39EE DUP2 PUSH2 0x39DA JUMP JUMPDEST DUP3 MSTORE POP POP JUMP JUMPDEST PUSH0 PUSH1 0x20 DUP3 ADD SWAP1 POP PUSH2 0x3A07 PUSH0 DUP4 ADD DUP5 PUSH2 0x39E5 JUMP JUMPDEST SWAP3 SWAP2 POP POP JUMP JUMPDEST PUSH2 0x3A16 DUP2 PUSH2 0x39DA JUMP JUMPDEST DUP2 EQ PUSH2 0x3A20 JUMPI PUSH0 DUP1 REVERT JUMPDEST POP JUMP JUMPDEST PUSH0 DUP2 CALLDATALOAD SWAP1 POP PUSH2 0x3A31 DUP2 PUSH2 0x3A0D JUMP JUMPDEST SWAP3 SWAP2 POP POP JUMP JUMPDEST PUSH0 PUSH1 0x20 DUP3 DUP5 SUB SLT ISZERO PUSH2 0x3A4C JUMPI PUSH2 0x3A4B PUSH2 0x3875 JUMP JUMPDEST JUMPDEST PUSH0 PUSH2 0x3A59 DUP5 DUP3 DUP6 ADD PUSH2 0x3A23 JUMP JUMPDEST SWAP2 POP POP SWAP3 SWAP2 POP POP JUMP JUMPDEST PUSH0 PUSH8 0xFFFFFFFFFFFFFFFF DUP3 AND SWAP1 POP SWAP2 SWAP1 POP JUMP JUMPDEST PUSH2 0x3A7E DUP2 PUSH2 0x3A62 JUMP JUMPDEST DUP3 MSTORE POP POP JUMP JUMPDEST PUSH0 PUSH1 0x20 DUP3 ADD SWAP1 POP PUSH2 0x3A97 PUSH0 DUP4 ADD DUP5 PUSH2 0x3A75 JUMP JUMPDEST SWAP3 SWAP2 POP POP JUMP JUMPDEST PUSH0 DUP2 SWAP1 POP SWAP2 SWAP1 POP JUMP JUMPDEST PUSH2 0x3AAF DUP2 PUSH2 0x3A9D JUMP JUMPDEST DUP2 EQ PUSH2 0x3AB9 JUMPI PUSH0 DUP1 REVERT JUMPDEST POP JUMP JUMPDEST PUSH0 DUP2 CALLDATALOAD SWAP1 POP PUSH2 0x3ACA DUP2 PUSH2 0x3AA6 JUMP JUMPDEST SWAP3 SWAP2 POP POP JUMP JUMPDEST PUSH0 PUSH1 0x20 DUP3 DUP5 SUB SLT ISZERO PUSH2 0x3AE5 JUMPI PUSH2 0x3AE4 PUSH2 0x3875 JUMP JUMPDEST JUMPDEST PUSH0 PUSH2 0x3AF2 DUP5 DUP3 DUP6 ADD PUSH2 0x3ABC JUMP JUMPDEST SWAP2 POP POP SWAP3 SWAP2 POP POP JUMP JUMPDEST PUSH2 0x3B04 DUP2 PUSH2 0x3A9D JUMP JUMPDEST DUP3 MSTORE POP POP JUMP JUMPDEST PUSH0 PUSH1 0x20 DUP3 ADD SWAP1 POP PUSH2 0x3B1D PUSH0 DUP4 ADD DUP5 PUSH2 0x3AFB JUMP JUMPDEST SWAP3 SWAP2 POP POP JUMP JUMPDEST PUSH0 PUSH4 0xFFFFFFFF DUP3 AND SWAP1 POP SWAP2 SWAP1 POP JUMP JUMPDEST PUSH2 0x3B3B DUP2 PUSH2 0x3B23 JUMP JUMPDEST DUP2 EQ PUSH2 0x3B45 JUMPI PUSH0 DUP1 REVERT JUMPDEST POP JUMP JUMPDEST PUSH0 DUP2 CALLDATALOAD SWAP1 POP PUSH2 0x3B56 DUP2 PUSH2 0x3B32 JUMP JUMPDEST SWAP3 SWAP2 POP POP JUMP JUMPDEST PUSH0 PUSH1 0x20 DUP3 DUP5 SUB SLT ISZERO PUSH2 0x3B71 JUMPI PUSH2 0x3B70 PUSH2 0x3875 JUMP JUMPDEST JUMPDEST PUSH0 PUSH2 0x3B7E DUP5 DUP3 DUP6 ADD PUSH2 0x3B48 JUMP JUMPDEST SWAP2 POP POP SWAP3 SWAP2 POP POP JUMP JUMPDEST PUSH0 DUP2 MLOAD SWAP1 POP SWAP2 SWAP1 POP JUMP JUMPDEST PUSH0 DUP3 DUP3 MSTORE PUSH1 0x20 DUP3 ADD SWAP1 POP SWAP3 SWAP2 POP POP JUMP JUMPDEST PUSH0 DUP2 SWAP1 POP PUSH1 0x20 DUP3 ADD SWAP1 POP SWAP2 SWAP1 POP JUMP JUMPDEST PUSH0 PUSH1 0xFF DUP3 AND SWAP1 POP SWAP2 SWAP1 POP JUMP JUMPDEST PUSH2 0x3BC5 DUP2 PUSH2 0x3BB0 JUMP JUMPDEST DUP3 MSTORE POP POP JUMP JUMPDEST PUSH0 PUSH2 0x3BD6 DUP4 DUP4 PUSH2 0x3BBC JUMP JUMPDEST PUSH1 0x20 DUP4 ADD SWAP1 POP SWAP3 SWAP2 POP POP JUMP JUMPDEST PUSH0 PUSH1 0x20 DUP3 ADD SWAP1 POP SWAP2 SWAP1 POP JUMP JUMPDEST PUSH0 PUSH2 0x3BF8 DUP3 PUSH2 0x3B87 JUMP JUMPDEST PUSH2 0x3C02 DUP2 DUP6 PUSH2 0x3B91 JUMP JUMPDEST SWAP4 POP PUSH2 0x3C0D DUP4 PUSH2 0x3BA1 JUMP JUMPDEST DUP1 PUSH0 JUMPDEST DUP4 DUP2 LT ISZERO PUSH2 0x3C3D JUMPI DUP2 MLOAD PUSH2 0x3C24 DUP9 DUP3 PUSH2 0x3BCB JUMP JUMPDEST SWAP8 POP PUSH2 0x3C2F DUP4 PUSH2 0x3BE2 JUMP JUMPDEST SWAP3 POP POP PUSH1 0x1 DUP2 ADD SWAP1 POP PUSH2 0x3C10 JUMP JUMPDEST POP DUP6 SWAP4 POP POP POP POP SWAP3 SWAP2 POP POP JUMP JUMPDEST PUSH0 PUSH1 0x20 DUP3 ADD SWAP1 POP DUP2 DUP2 SUB PUSH0 DUP4 ADD MSTORE PUSH2 0x3C62 DUP2 DUP5 PUSH2 0x3BEE JUMP JUMPDEST SWAP1 POP SWAP3 SWAP2 POP POP JUMP JUMPDEST PUSH0 PUSH1 0x20 DUP3 DUP5 SUB SLT ISZERO PUSH2 0x3C7F JUMPI PUSH2 0x3C7E PUSH2 0x3875 JUMP JUMPDEST JUMPDEST PUSH0 PUSH2 0x3C8C DUP5 DUP3 DUP6 ADD PUSH2 0x38C3 JUMP JUMPDEST SWAP2 POP POP SWAP3 SWAP2 POP POP JUMP JUMPDEST PUSH0 DUP1 PUSH1 0x40 DUP4 DUP6 SUB SLT ISZERO PUSH2 0x3CAB JUMPI PUSH2 0x3CAA PUSH2 0x3875 JUMP JUMPDEST JUMPDEST PUSH0 PUSH2 0x3CB8 DUP6 DUP3 DUP7 ADD PUSH2 0x3ABC JUMP JUMPDEST SWAP3 POP POP PUSH1 0x20 PUSH2 0x3CC9 DUP6 DUP3 DUP7 ADD PUSH2 0x38C3 JUMP JUMPDEST SWAP2 POP POP SWAP3 POP SWAP3 SWAP1 POP JUMP JUMPDEST PUSH2 0x3CDC DUP2 PUSH2 0x3A62 JUMP JUMPDEST DUP2 EQ PUSH2 0x3CE6 JUMPI PUSH0 DUP1 REVERT JUMPDEST POP JUMP JUMPDEST PUSH0 DUP2 CALLDATALOAD SWAP1 POP PUSH2 0x3CF7 DUP2 PUSH2 0x3CD3 JUMP JUMPDEST SWAP3 SWAP2 POP POP JUMP JUMPDEST PUSH0 DUP1 REVERT JUMPDEST PUSH0 DUP1 REVERT JUMPDEST PUSH0 DUP1 REVERT JUMPDEST PUSH0 DUP1 DUP4 PUSH1 0x1F DUP5 ADD SLT PUSH2 0x3D1E JUMPI PUSH2 0x3D1D PUSH2 0x3CFD JUMP JUMPDEST JUMPDEST DUP3 CALLDATALOAD SWAP1 POP PUSH8 0xFFFFFFFFFFFFFFFF DUP2 GT ISZERO PUSH2 0x3D3B JUMPI PUSH2 0x3D3A PUSH2 0x3D01 JUMP JUMPDEST JUMPDEST PUSH1 0x20 DUP4 ADD SWAP2 POP DUP4 PUSH1 0x1 DUP3 MUL DUP4 ADD GT ISZERO PUSH2 0x3D57 JUMPI PUSH2 0x3D56 PUSH2 0x3D05 JUMP JUMPDEST JUMPDEST SWAP3 POP SWAP3 SWAP1 POP JUMP JUMPDEST PUSH0 DUP1 PUSH0 DUP1 PUSH0 PUSH1 0x80 DUP7 DUP9 SUB SLT ISZERO PUSH2 0x3D77 JUMPI PUSH2 0x3D76 PUSH2 0x3875 JUMP JUMPDEST JUMPDEST PUSH0 PUSH2 0x3D84 DUP9 DUP3 DUP10 ADD PUSH2 0x3B48 JUMP JUMPDEST SWAP6 POP POP PUSH1 0x20 PUSH2 0x3D95 DUP9 DUP3 DUP10 ADD PUSH2 0x3CE9 JUMP JUMPDEST SWAP5 POP POP PUSH1 0x40 PUSH2 0x3DA6 DUP9 DUP3 DUP10 ADD PUSH2 0x38C3 JUMP JUMPDEST SWAP4 POP POP PUSH1 0x60 DUP7 ADD CALLDATALOAD PUSH8 0xFFFFFFFFFFFFFFFF DUP2 GT ISZERO PUSH2 0x3DC7 JUMPI PUSH2 0x3DC6 PUSH2 0x3879 JUMP JUMPDEST JUMPDEST PUSH2 0x3DD3 DUP9 DUP3 DUP10 ADD PUSH2 0x3D09 JUMP JUMPDEST SWAP3 POP SWAP3 POP POP SWAP3 SWAP6 POP SWAP3 SWAP6 SWAP1 SWAP4 POP JUMP JUMPDEST PUSH2 0x3DEB DUP2 PUSH2 0x38D7 JUMP JUMPDEST DUP3 MSTORE POP POP JUMP JUMPDEST PUSH0 PUSH1 0x20 DUP3 ADD SWAP1 POP PUSH2 0x3E04 PUSH0 DUP4 ADD DUP5 PUSH2 0x3DE2 JUMP JUMPDEST SWAP3 SWAP2 POP POP JUMP JUMPDEST PUSH0 DUP1 PUSH1 0x40 DUP4 DUP6 SUB SLT ISZERO PUSH2 0x3E20 JUMPI PUSH2 0x3E1F PUSH2 0x3875 JUMP JUMPDEST JUMPDEST PUSH0 PUSH2 0x3E2D DUP6 DUP3 DUP7 ADD PUSH2 0x38C3 JUMP JUMPDEST SWAP3 POP POP PUSH1 0x20 PUSH2 0x3E3E DUP6 DUP3 DUP7 ADD PUSH2 0x3A23 JUMP JUMPDEST SWAP2 POP POP SWAP3 POP SWAP3 SWAP1 POP JUMP JUMPDEST PUSH0 DUP1 DUP4 PUSH1 0x1F DUP5 ADD SLT PUSH2 0x3E5D JUMPI PUSH2 0x3E5C PUSH2 0x3CFD JUMP JUMPDEST JUMPDEST DUP3 CALLDATALOAD SWAP1 POP PUSH8 0xFFFFFFFFFFFFFFFF DUP2 GT ISZERO PUSH2 0x3E7A JUMPI PUSH2 0x3E79 PUSH2 0x3D01 JUMP JUMPDEST JUMPDEST PUSH1 0x20 DUP4 ADD SWAP2 POP DUP4 PUSH1 0x80 DUP3 MUL DUP4 ADD GT ISZERO PUSH2 0x3E96 JUMPI PUSH2 0x3E95 PUSH2 0x3D05 JUMP JUMPDEST JUMPDEST SWAP3 POP SWAP3 SWAP1 POP JUMP JUMPDEST PUSH0 DUP1 PUSH1 0x20 DUP4 DUP6 SUB SLT ISZERO PUSH2 0x3EB3 JUMPI PUSH2 0x3EB2 PUSH2 0x3875 JUMP JUMPDEST JUMPDEST PUSH0 DUP4 ADD CALLDATALOAD PUSH8 0xFFFFFFFFFFFFFFFF DUP2 GT ISZERO PUSH2 0x3ED0 JUMPI PUSH2 0x3ECF PUSH2 0x3879 JUMP JUMPDEST JUMPDEST PUSH2 0x3EDC DUP6 DUP3 DUP7 ADD PUSH2 0x3E48 JUMP JUMPDEST SWAP3 POP SWAP3 POP POP SWAP3 POP SWAP3 SWAP1 POP JUMP JUMPDEST PUSH2 0x3EF1 DUP2 PUSH2 0x3840 JUMP JUMPDEST DUP2 EQ PUSH2 0x3EFB JUMPI PUSH0 DUP1 REVERT JUMPDEST POP JUMP JUMPDEST PUSH0 DUP2 CALLDATALOAD SWAP1 POP PUSH2 0x3F0C DUP2 PUSH2 0x3EE8 JUMP JUMPDEST SWAP3 SWAP2 POP POP JUMP JUMPDEST PUSH0 DUP1 PUSH0 DUP1 PUSH1 0x80 DUP6 DUP8 SUB SLT ISZERO PUSH2 0x3F2A JUMPI PUSH2 0x3F29 PUSH2 0x3875 JUMP JUMPDEST JUMPDEST PUSH0 PUSH2 0x3F37 DUP8 DUP3 DUP9 ADD PUSH2 0x3EFE JUMP JUMPDEST SWAP5 POP POP PUSH1 0x20 PUSH2 0x3F48 DUP8 DUP3 DUP9 ADD PUSH2 0x3EFE JUMP JUMPDEST SWAP4 POP POP PUSH1 0x40 PUSH2 0x3F59 DUP8 DUP3 DUP9 ADD PUSH2 0x3CE9 JUMP JUMPDEST SWAP3 POP POP PUSH1 0x60 PUSH2 0x3F6A DUP8 DUP3 DUP9 ADD PUSH2 0x38C3 JUMP JUMPDEST SWAP2 POP POP SWAP3 SWAP6 SWAP2 SWAP5 POP SWAP3 POP JUMP JUMPDEST PUSH2 0x3F7F DUP2 PUSH2 0x389C JUMP JUMPDEST DUP3 MSTORE POP POP JUMP JUMPDEST PUSH0 PUSH1 0x20 DUP3 ADD SWAP1 POP PUSH2 0x3F98 PUSH0 DUP4 ADD DUP5 PUSH2 0x3F76 JUMP JUMPDEST SWAP3 SWAP2 POP POP JUMP JUMPDEST PUSH0 PUSH1 0x20 DUP3 DUP5 SUB SLT ISZERO PUSH2 0x3FB3 JUMPI PUSH2 0x3FB2 PUSH2 0x3875 JUMP JUMPDEST JUMPDEST PUSH0 PUSH2 0x3FC0 DUP5 DUP3 DUP6 ADD PUSH2 0x3CE9 JUMP JUMPDEST SWAP2 POP POP SWAP3 SWAP2 POP POP JUMP JUMPDEST PUSH0 DUP1 REVERT JUMPDEST PUSH0 PUSH1 0xA0 DUP3 DUP5 SUB SLT ISZERO PUSH2 0x3FE2 JUMPI PUSH2 0x3FE1 PUSH2 0x3FC9 JUMP JUMPDEST JUMPDEST DUP2 SWAP1 POP SWAP3 SWAP2 POP POP JUMP JUMPDEST PUSH0 DUP1 PUSH0 PUSH1 0x40 DUP5 DUP7 SUB SLT ISZERO PUSH2 0x4002 JUMPI PUSH2 0x4001 PUSH2 0x3875 JUMP JUMPDEST JUMPDEST PUSH0 DUP5 ADD CALLDATALOAD PUSH8 0xFFFFFFFFFFFFFFFF DUP2 GT ISZERO PUSH2 0x401F JUMPI PUSH2 0x401E PUSH2 0x3879 JUMP JUMPDEST JUMPDEST PUSH2 0x402B DUP7 DUP3 DUP8 ADD PUSH2 0x3FCD JUMP JUMPDEST SWAP4 POP POP PUSH1 0x20 DUP5 ADD CALLDATALOAD PUSH8 0xFFFFFFFFFFFFFFFF DUP2 GT ISZERO PUSH2 0x404C JUMPI PUSH2 0x404B PUSH2 0x3879 JUMP JUMPDEST JUMPDEST PUSH2 0x4058 DUP7 DUP3 DUP8 ADD PUSH2 0x3D09 JUMP JUMPDEST SWAP3 POP SWAP3 POP POP SWAP3 POP SWAP3 POP SWAP3 JUMP JUMPDEST PUSH0 PUSH16 0xFFFFFFFFFFFFFFFFFFFFFFFFFFFFFFFF DUP3 AND SWAP1 POP SWAP2 SWAP1 POP JUMP JUMPDEST PUSH2 0x4088 DUP2 PUSH2 0x4064 JUMP JUMPDEST DUP3 MSTORE POP POP JUMP JUMPDEST PUSH0 PUSH1 0x60 DUP3 ADD SWAP1 POP PUSH2 0x40A1 PUSH0 DUP4 ADD DUP7 PUSH2 0x3A75 JUMP JUMPDEST PUSH2 0x40AE PUSH1 0x20 DUP4 ADD DUP6 PUSH2 0x384D JUMP JUMPDEST PUSH2 0x40BB PUSH1 0x40 DUP4 ADD DUP5 PUSH2 0x407F JUMP JUMPDEST SWAP5 SWAP4 POP POP POP POP JUMP JUMPDEST PUSH0 DUP1 DUP4 PUSH1 0x1F DUP5 ADD SLT PUSH2 0x40D8 JUMPI PUSH2 0x40D7 PUSH2 0x3CFD JUMP JUMPDEST JUMPDEST DUP3 CALLDATALOAD SWAP1 POP PUSH8 0xFFFFFFFFFFFFFFFF DUP2 GT ISZERO PUSH2 0x40F5 JUMPI PUSH2 0x40F4 PUSH2 0x3D01 JUMP JUMPDEST JUMPDEST PUSH1 0x20 DUP4 ADD SWAP2 POP DUP4 PUSH1 0x20 DUP3 MUL DUP4 ADD GT ISZERO PUSH2 0x4111 JUMPI PUSH2 0x4110 PUSH2 0x3D05 JUMP JUMPDEST JUMPDEST SWAP3 POP SWAP3 SWAP1 POP JUMP JUMPDEST PUSH0 DUP1 PUSH1 0x20 DUP4 DUP6 SUB SLT ISZERO PUSH2 0x412E JUMPI PUSH2 0x412D PUSH2 0x3875 JUMP JUMPDEST JUMPDEST PUSH0 DUP4 ADD CALLDATALOAD PUSH8 0xFFFFFFFFFFFFFFFF DUP2 GT ISZERO PUSH2 0x414B JUMPI PUSH2 0x414A PUSH2 0x3879 JUMP JUMPDEST JUMPDEST PUSH2 0x4157 DUP6 DUP3 DUP7 ADD PUSH2 0x40C3 JUMP JUMPDEST SWAP3 POP SWAP3 POP POP SWAP3 POP SWAP3 SWAP1 POP JUMP JUMPDEST PUSH0 PUSH1 0x20 DUP3 DUP5 SUB SLT ISZERO PUSH2 0x4178 JUMPI PUSH2 0x4177 PUSH2 0x3875 JUMP JUMPDEST JUMPDEST PUSH0 PUSH2 0x4185 DUP5 DUP3 DUP6 ADD PUSH2 0x3EFE JUMP JUMPDEST SWAP2 POP POP SWAP3 SWAP2 POP POP JUMP JUMPDEST PUSH0 DUP1 PUSH0 PUSH1 0x40 DUP5 DUP7 SUB SLT ISZERO PUSH2 0x41A5 JUMPI PUSH2 0x41A4 PUSH2 0x3875 JUMP JUMPDEST JUMPDEST PUSH0 PUSH2 0x41B2 DUP7 DUP3 DUP8 ADD PUSH2 0x3ABC JUMP JUMPDEST SWAP4 POP POP PUSH1 0x20 DUP5 ADD CALLDATALOAD PUSH8 0xFFFFFFFFFFFFFFFF DUP2 GT ISZERO PUSH2 0x41D3 JUMPI PUSH2 0x41D2 PUSH2 0x3879 JUMP JUMPDEST JUMPDEST PUSH2 0x41DF DUP7 DUP3 DUP8 ADD PUSH2 0x3D09 JUMP JUMPDEST SWAP3 POP SWAP3 POP POP SWAP3 POP SWAP3 POP SWAP3 JUMP JUMPDEST PUSH32 0x4E487B7100000000000000000000000000000000000000000000000000000000 PUSH0 MSTORE PUSH1 0x21 PUSH1 0x4 MSTORE PUSH1 0x24 PUSH0 REVERT JUMPDEST PUSH1 0x5 DUP2 LT PUSH2 0x4229 JUMPI PUSH2 0x4228 PUSH2 0x41EB JUMP JUMPDEST JUMPDEST POP JUMP JUMPDEST PUSH0 DUP2 SWAP1 POP PUSH2 0x4239 DUP3 PUSH2 0x4218 JUMP JUMPDEST SWAP2 SWAP1 POP JUMP JUMPDEST PUSH0 PUSH2 0x4248 DUP3 PUSH2 0x422C JUMP JUMPDEST SWAP1 POP SWAP2 SWAP1 POP JUMP JUMPDEST PUSH2 0x4258 DUP2 PUSH2 0x423E JUMP JUMPDEST DUP3 MSTORE POP POP JUMP JUMPDEST PUSH0 PUSH1 0x40 DUP3 ADD SWAP1 POP PUSH2 0x4271 PUSH0 DUP4 ADD DUP6 PUSH2 0x39E5 JUMP JUMPDEST PUSH2 0x427E PUSH1 0x20 DUP4 ADD DUP5 PUSH2 0x424F JUMP JUMPDEST SWAP4 SWAP3 POP POP POP JUMP JUMPDEST PUSH0 DUP1 DUP4 PUSH1 0x1F DUP5 ADD SLT PUSH2 0x429A JUMPI PUSH2 0x4299 PUSH2 0x3CFD JUMP JUMPDEST JUMPDEST DUP3 CALLDATALOAD SWAP1 POP PUSH8 0xFFFFFFFFFFFFFFFF DUP2 GT ISZERO PUSH2 0x42B7 JUMPI PUSH2 0x42B6 PUSH2 0x3D01 JUMP JUMPDEST JUMPDEST PUSH1 0x20 DUP4 ADD SWAP2 POP DUP4 PUSH1 0x20 DUP3 MUL DUP4 ADD GT ISZERO PUSH2 0x42D3 JUMPI PUSH2 0x42D2 PUSH2 0x3D05 JUMP JUMPDEST JUMPDEST SWAP3 POP SWAP3 SWAP1 POP JUMP JUMPDEST PUSH0 DUP1 PUSH0 PUSH1 0x40 DUP5 DUP7 SUB SLT ISZERO PUSH2 0x42F1 JUMPI PUSH2 0x42F0 PUSH2 0x3875 JUMP JUMPDEST JUMPDEST PUSH0 PUSH2 0x42FE DUP7 DUP3 DUP8 ADD PUSH2 0x3B48 JUMP JUMPDEST SWAP4 POP POP PUSH1 0x20 DUP5 ADD CALLDATALOAD PUSH8 0xFFFFFFFFFFFFFFFF DUP2 GT ISZERO PUSH2 0x431F JUMPI PUSH2 0x431E PUSH2 0x3879 JUMP JUMPDEST JUMPDEST PUSH2 0x432B DUP7 DUP3 DUP8 ADD PUSH2 0x4285 JUMP JUMPDEST SWAP3 POP SWAP3 POP POP SWAP3 POP SWAP3 POP SWAP3 JUMP JUMPDEST PUSH2 0x4340 DUP2 PUSH2 0x3B23 JUMP JUMPDEST DUP3 MSTORE POP POP JUMP JUMPDEST PUSH0 PUSH1 0x20 DUP3 ADD SWAP1 POP PUSH2 0x4359 PUSH0 DUP4 ADD DUP5 PUSH2 0x4337 JUMP JUMPDEST SWAP3 SWAP2 POP POP JUMP JUMPDEST PUSH0 PUSH2 0x4369 DUP3 PUSH2 0x387D JUMP JUMPDEST SWAP1 POP SWAP2 SWAP1 POP JUMP JUMPDEST PUSH2 0x4379 DUP2 PUSH2 0x435F JUMP JUMPDEST DUP2 EQ PUSH2 0x4383 JUMPI PUSH0 DUP1 REVERT JUMPDEST POP JUMP JUMPDEST PUSH0 DUP2 CALLDATALOAD SWAP1 POP PUSH2 0x4394 DUP2 PUSH2 0x4370 JUMP JUMPDEST SWAP3 SWAP2 POP POP JUMP JUMPDEST PUSH0 DUP1 PUSH0 PUSH1 0x60 DUP5 DUP7 SUB SLT ISZERO PUSH2 0x43B1 JUMPI PUSH2 0x43B0 PUSH2 0x3875 JUMP JUMPDEST JUMPDEST PUSH0 PUSH2 0x43BE DUP7 DUP3 DUP8 ADD PUSH2 0x38C3 JUMP JUMPDEST SWAP4 POP POP PUSH1 0x20 PUSH2 0x43CF DUP7 DUP3 DUP8 ADD PUSH2 0x4386 JUMP JUMPDEST SWAP3 POP POP PUSH1 0x40 PUSH2 0x43E0 DUP7 DUP3 DUP8 ADD PUSH2 0x38F6 JUMP JUMPDEST SWAP2 POP POP SWAP3 POP SWAP3 POP SWAP3 JUMP JUMPDEST PUSH0 DUP1 PUSH0 DUP1 PUSH0 PUSH1 0x80 DUP7 DUP9 SUB SLT ISZERO PUSH2 0x4403 JUMPI PUSH2 0x4402 PUSH2 0x3875 JUMP JUMPDEST JUMPDEST PUSH0 PUSH2 0x4410 DUP9 DUP3 DUP10 ADD PUSH2 0x3B48 JUMP JUMPDEST SWAP6 POP POP PUSH1 0x20 PUSH2 0x4421 DUP9 DUP3 DUP10 ADD PUSH2 0x38C3 JUMP JUMPDEST SWAP5 POP POP PUSH1 0x40 DUP7 ADD CALLDATALOAD PUSH8 0xFFFFFFFFFFFFFFFF DUP2 GT ISZERO PUSH2 0x4442 JUMPI PUSH2 0x4441 PUSH2 0x3879 JUMP JUMPDEST JUMPDEST PUSH2 0x444E DUP9 DUP3 DUP10 ADD PUSH2 0x3D09 JUMP JUMPDEST SWAP4 POP SWAP4 POP POP PUSH1 0x60 PUSH2 0x4461 DUP9 DUP3 DUP10 ADD PUSH2 0x38F6 JUMP JUMPDEST SWAP2 POP POP SWAP3 SWAP6 POP SWAP3 SWAP6 SWAP1 SWAP4 POP JUMP JUMPDEST PUSH0 PUSH1 0xA0 DUP3 DUP5 SUB SLT ISZERO PUSH2 0x4483 JUMPI PUSH2 0x4482 PUSH2 0x3FC9 JUMP JUMPDEST JUMPDEST DUP2 SWAP1 POP SWAP3 SWAP2 POP POP JUMP JUMPDEST PUSH0 PUSH1 0x20 DUP3 DUP5 SUB SLT ISZERO PUSH2 0x44A1 JUMPI PUSH2 0x44A0 PUSH2 0x3875 JUMP JUMPDEST JUMPDEST PUSH0 DUP3 ADD CALLDATALOAD PUSH8 0xFFFFFFFFFFFFFFFF DUP2 GT ISZERO PUSH2 0x44BE JUMPI PUSH2 0x44BD PUSH2 0x3879 JUMP JUMPDEST JUMPDEST PUSH2 0x44CA DUP5 DUP3 DUP6 ADD PUSH2 0x446E JUMP JUMPDEST SWAP2 POP POP SWAP3 SWAP2 POP POP JUMP JUMPDEST PUSH0 PUSH1 0x40 DUP3 ADD SWAP1 POP PUSH2 0x44E6 PUSH0 DUP4 ADD DUP6 PUSH2 0x3F76 JUMP JUMPDEST PUSH2 0x44F3 PUSH1 0x20 DUP4 ADD DUP5 PUSH2 0x3DE2 JUMP JUMPDEST SWAP4 SWAP3 POP POP POP JUMP JUMPDEST PUSH0 PUSH1 0x60 DUP3 ADD SWAP1 POP PUSH2 0x450D PUSH0 DUP4 ADD DUP7 PUSH2 0x3F76 JUMP JUMPDEST PUSH2 0x451A PUSH1 0x20 DUP4 ADD DUP6 PUSH2 0x3F76 JUMP JUMPDEST PUSH2 0x4527 PUSH1 0x40 DUP4 ADD DUP5 PUSH2 0x3DE2 JUMP JUMPDEST SWAP5 SWAP4 POP POP POP POP JUMP JUMPDEST PUSH2 0x4538 DUP2 PUSH2 0x389C JUMP JUMPDEST DUP3 MSTORE POP POP JUMP JUMPDEST PUSH2 0x4547 DUP2 PUSH2 0x3B23 JUMP JUMPDEST DUP3 MSTORE POP POP JUMP JUMPDEST PUSH2 0x4556 DUP2 PUSH2 0x3A62 JUMP JUMPDEST DUP3 MSTORE POP POP JUMP JUMPDEST PUSH2 0x4565 DUP2 PUSH2 0x3840 JUMP JUMPDEST DUP3 MSTORE POP POP JUMP JUMPDEST PUSH1 0xC0 DUP3 ADD PUSH0 DUP3 ADD MLOAD PUSH2 0x457F PUSH0 DUP6 ADD DUP3 PUSH2 0x452F JUMP JUMPDEST POP PUSH1 0x20 DUP3 ADD MLOAD PUSH2 0x4592 PUSH1 0x20 DUP6 ADD DUP3 PUSH2 0x453E JUMP JUMPDEST POP PUSH1 0x40 DUP3 ADD MLOAD PUSH2 0x45A5 PUSH1 0x40 DUP6 ADD DUP3 PUSH2 0x454D JUMP JUMPDEST POP PUSH1 0x60 DUP3 ADD MLOAD PUSH2 0x45B8 PUSH1 0x60 DUP6 ADD DUP3 PUSH2 0x452F JUMP JUMPDEST POP PUSH1 0x80 DUP3 ADD MLOAD PUSH2 0x45CB PUSH1 0x80 DUP6 ADD DUP3 PUSH2 0x454D JUMP JUMPDEST POP PUSH1 0xA0 DUP3 ADD MLOAD PUSH2 0x45DE PUSH1 0xA0 DUP6 ADD DUP3 PUSH2 0x455C JUMP JUMPDEST POP POP POP POP JUMP JUMPDEST PUSH0 DUP2 PUSH0 SHR SWAP1 POP SWAP2 SWAP1 POP JUMP JUMPDEST PUSH0 PUSH8 0xFFFFFFFFFFFFFFFF DUP3 AND SWAP1 POP SWAP2 SWAP1 POP JUMP JUMPDEST PUSH0 PUSH2 0x4614 PUSH2 0x460F DUP4 PUSH2 0x45E4 JUMP JUMPDEST PUSH2 0x45EF JUMP JUMPDEST SWAP1 POP SWAP2 SWAP1 POP JUMP JUMPDEST PUSH0 DUP2 PUSH1 0x40 SHR SWAP1 POP SWAP2 SWAP1 POP JUMP JUMPDEST PUSH0 PUSH2 0xFFFF DUP3 AND SWAP1 POP SWAP2 SWAP1 POP JUMP JUMPDEST PUSH0 PUSH2 0x4646 PUSH2 0x4641 DUP4 PUSH2 0x461B JUMP JUMPDEST PUSH2 0x4627 JUMP JUMPDEST SWAP1 POP SWAP2 SWAP1 POP JUMP JUMPDEST PUSH0 DUP2 PUSH1 0x50 SHR SWAP1 POP SWAP2 SWAP1 POP JUMP JUMPDEST PUSH0 PUSH16 0xFFFFFFFFFFFFFFFFFFFFFFFFFFFFFFFF DUP3 AND SWAP1 POP SWAP2 SWAP1 POP JUMP JUMPDEST PUSH0 PUSH2 0x4686 PUSH2 0x4681 DUP4 PUSH2 0x464D JUMP JUMPDEST PUSH2 0x4659 JUMP JUMPDEST SWAP1 POP SWAP2 SWAP1 POP JUMP JUMPDEST PUSH2 0x4696 DUP2 PUSH2 0x4064 JUMP JUMPDEST DUP3 MSTORE POP POP JUMP JUMPDEST PUSH1 0x60 DUP3 ADD PUSH0 DUP1 DUP4 ADD SLOAD SWAP1 POP PUSH2 0x46B0 DUP2 PUSH2 0x4602 JUMP JUMPDEST PUSH2 0x46BC PUSH0 DUP7 ADD DUP3 PUSH2 0x454D JUMP JUMPDEST POP PUSH2 0x46C6 DUP2 PUSH2 0x4634 JUMP JUMPDEST PUSH2 0x46D3 PUSH1 0x20 DUP7 ADD DUP3 PUSH2 0x455C JUMP JUMPDEST POP PUSH2 0x46DD DUP2 PUSH2 0x4674 JUMP JUMPDEST PUSH2 0x46EA PUSH1 0x40 DUP7 ADD DUP3 PUSH2 0x468D JUMP JUMPDEST POP POP POP POP POP JUMP JUMPDEST PUSH0 DUP3 DUP3 MSTORE PUSH1 0x20 DUP3 ADD SWAP1 POP SWAP3 SWAP2 POP POP JUMP JUMPDEST DUP3 DUP2 DUP4 CALLDATACOPY PUSH0 DUP4 DUP4 ADD MSTORE POP POP POP JUMP JUMPDEST PUSH0 PUSH1 0x1F NOT PUSH1 0x1F DUP4 ADD AND SWAP1 POP SWAP2 SWAP1 POP JUMP JUMPDEST PUSH0 PUSH2 0x472A DUP4 DUP6 PUSH2 0x46F1 JUMP JUMPDEST SWAP4 POP PUSH2 0x4737 DUP4 DUP6 DUP5 PUSH2 0x4701 JUMP JUMPDEST PUSH2 0x4740 DUP4 PUSH2 0x470F JUMP JUMPDEST DUP5 ADD SWAP1 POP SWAP4 SWAP3 POP POP POP JUMP JUMPDEST PUSH0 PUSH2 0x140 DUP3 ADD SWAP1 POP PUSH2 0x475F PUSH0 DUP4 ADD DUP8 PUSH2 0x456B JUMP JUMPDEST PUSH2 0x476C PUSH1 0xC0 DUP4 ADD DUP7 PUSH2 0x469C JUMP JUMPDEST DUP2 DUP2 SUB PUSH2 0x120 DUP4 ADD MSTORE PUSH2 0x4780 DUP2 DUP5 DUP7 PUSH2 0x471F JUMP JUMPDEST SWAP1 POP SWAP6 SWAP5 POP POP POP POP POP JUMP JUMPDEST PUSH0 DUP2 MLOAD SWAP1 POP PUSH2 0x4799 DUP2 PUSH2 0x38E0 JUMP JUMPDEST SWAP3 SWAP2 POP POP JUMP JUMPDEST PUSH0 PUSH1 0x20 DUP3 DUP5 SUB SLT ISZERO PUSH2 0x47B4 JUMPI PUSH2 0x47B3 PUSH2 0x3875 JUMP JUMPDEST JUMPDEST PUSH0 PUSH2 0x47C1 DUP5 DUP3 DUP6 ADD PUSH2 0x478B JUMP JUMPDEST SWAP2 POP POP SWAP3 SWAP2 POP POP JUMP JUMPDEST PUSH32 0x4E487B7100000000000000000000000000000000000000000000000000000000 PUSH0 MSTORE PUSH1 0x32 PUSH1 0x4 MSTORE PUSH1 0x24 PUSH0 REVERT JUMPDEST PUSH2 0x4800 DUP2 PUSH2 0x4064 JUMP JUMPDEST DUP2 EQ PUSH2 0x480A JUMPI PUSH0 DUP1 REVERT JUMPDEST POP JUMP JUMPDEST PUSH0 DUP2 CALLDATALOAD SWAP1 POP PUSH2 0x481B DUP2 PUSH2 0x47F7 JUMP JUMPDEST SWAP3 SWAP2 POP POP JUMP JUMPDEST PUSH0 PUSH1 0x20 DUP3 DUP5 SUB SLT ISZERO PUSH2 0x4836 JUMPI PUSH2 0x4835 PUSH2 0x3875 JUMP JUMPDEST JUMPDEST PUSH0 PUSH2 0x4843 DUP5 DUP3 DUP6 ADD PUSH2 0x480D JUMP JUMPDEST SWAP2 POP POP SWAP3 SWAP2 POP POP JUMP JUMPDEST PUSH0 DUP3 DUP3 MSTORE PUSH1 0x20 DUP3 ADD SWAP1 POP SWAP3 SWAP2 POP POP JUMP JUMPDEST PUSH0 DUP2 SWAP1 POP SWAP2 SWAP1 POP JUMP JUMPDEST PUSH0 PUSH2 0x4873 PUSH1 0x20 DUP5 ADD DUP5 PUSH2 0x3B48 JUMP JUMPDEST SWAP1 POP SWAP3 SWAP2 POP POP JUMP JUMPDEST PUSH0 PUSH2 0x4889 PUSH1 0x20 DUP5 ADD DUP5 PUSH2 0x3CE9 JUMP JUMPDEST SWAP1 POP SWAP3 SWAP2 POP POP JUMP JUMPDEST PUSH0 PUSH2 0x489F PUSH1 0x20 DUP5 ADD DUP5 PUSH2 0x3EFE JUMP JUMPDEST SWAP1 POP SWAP3 SWAP2 POP POP JUMP JUMPDEST PUSH0 PUSH2 0x48B5 PUSH1 0x20 DUP5 ADD DUP5 PUSH2 0x480D JUMP JUMPDEST SWAP1 POP SWAP3 SWAP2 POP POP JUMP JUMPDEST PUSH1 0x80 DUP3 ADD PUSH2 0x48CD PUSH0 DUP4 ADD DUP4 PUSH2 0x4865 JUMP JUMPDEST PUSH2 0x48D9 PUSH0 DUP6 ADD DUP3 PUSH2 0x453E JUMP JUMPDEST POP PUSH2 0x48E7 PUSH1 0x20 DUP4 ADD DUP4 PUSH2 0x487B JUMP JUMPDEST PUSH2 0x48F4 PUSH1 0x20 DUP6 ADD DUP3 PUSH2 0x454D JUMP JUMPDEST POP PUSH2 0x4902 PUSH1 0x40 DUP4 ADD DUP4 PUSH2 0x4891 JUMP JUMPDEST PUSH2 0x490F PUSH1 0x40 DUP6 ADD DUP3 PUSH2 0x455C JUMP JUMPDEST POP PUSH2 0x491D PUSH1 0x60 DUP4 ADD DUP4 PUSH2 0x48A7 JUMP JUMPDEST PUSH2 0x492A PUSH1 0x60 DUP6 ADD DUP3 PUSH2 0x468D JUMP JUMPDEST POP POP POP POP JUMP JUMPDEST PUSH0 PUSH2 0x493B DUP4 DUP4 PUSH2 0x48BD JUMP JUMPDEST PUSH1 0x80 DUP4 ADD SWAP1 POP SWAP3 SWAP2 POP POP JUMP JUMPDEST PUSH0 DUP3 SWAP1 POP SWAP3 SWAP2 POP POP JUMP JUMPDEST PUSH0 PUSH1 0x80 DUP3 ADD SWAP1 POP SWAP2 SWAP1 POP JUMP JUMPDEST PUSH0 PUSH2 0x4968 DUP4 DUP6 PUSH2 0x484C JUMP JUMPDEST SWAP4 POP PUSH2 0x4973 DUP3 PUSH2 0x485C JUMP JUMPDEST DUP1 PUSH0 JUMPDEST DUP6 DUP2 LT ISZERO PUSH2 0x49AB JUMPI PUSH2 0x4988 DUP3 DUP5 PUSH2 0x4947 JUMP JUMPDEST PUSH2 0x4992 DUP9 DUP3 PUSH2 0x4930 JUMP JUMPDEST SWAP8 POP PUSH2 0x499D DUP4 PUSH2 0x4951 JUMP JUMPDEST SWAP3 POP POP PUSH1 0x1 DUP2 ADD SWAP1 POP PUSH2 0x4976 JUMP JUMPDEST POP DUP6 SWAP3 POP POP POP SWAP4 SWAP3 POP POP POP JUMP JUMPDEST PUSH0 PUSH1 0x20 DUP3 ADD SWAP1 POP DUP2 DUP2 SUB PUSH0 DUP4 ADD MSTORE PUSH2 0x49D1 DUP2 DUP5 DUP7 PUSH2 0x495D JUMP JUMPDEST SWAP1 POP SWAP4 SWAP3 POP POP POP JUMP JUMPDEST PUSH0 DUP2 MLOAD SWAP1 POP SWAP2 SWAP1 POP JUMP JUMPDEST DUP3 DUP2 DUP4 MCOPY PUSH0 DUP4 DUP4 ADD MSTORE POP POP POP JUMP JUMPDEST PUSH0 PUSH2 0x49FC DUP3 PUSH2 0x49DA JUMP JUMPDEST PUSH2 0x4A06 DUP2 DUP6 PUSH2 0x46F1 JUMP JUMPDEST SWAP4 POP PUSH2 0x4A16 DUP2 DUP6 PUSH1 0x20 DUP7 ADD PUSH2 0x49E4 JUMP JUMPDEST PUSH2 0x4A1F DUP2 PUSH2 0x470F JUMP JUMPDEST DUP5 ADD SWAP2 POP POP SWAP3 SWAP2 POP POP JUMP JUMPDEST PUSH0 PUSH2 0x140 DUP3 ADD SWAP1 POP PUSH2 0x4A3E PUSH0 DUP4 ADD DUP7 PUSH2 0x456B JUMP JUMPDEST PUSH2 0x4A4B PUSH1 0xC0 DUP4 ADD DUP6 PUSH2 0x469C JUMP JUMPDEST DUP2 DUP2 SUB PUSH2 0x120 DUP4 ADD MSTORE PUSH2 0x4A5E DUP2 DUP5 PUSH2 0x49F2 JUMP JUMPDEST SWAP1 POP SWAP5 SWAP4 POP POP POP POP JUMP JUMPDEST PUSH0 DUP1 REVERT JUMPDEST PUSH0 DUP1 REVERT JUMPDEST PUSH0 DUP1 REVERT JUMPDEST PUSH0 DUP3 CALLDATALOAD PUSH1 0x1 PUSH1 0xA0 SUB DUP4 CALLDATASIZE SUB SUB DUP2 SLT PUSH2 0x4A8F JUMPI PUSH2 0x4A8E PUSH2 0x4A68 JUMP JUMPDEST JUMPDEST DUP1 DUP4 ADD SWAP2 POP POP SWAP3 SWAP2 POP POP JUMP JUMPDEST PUSH0 DUP1 DUP4 CALLDATALOAD PUSH1 0x1 PUSH1 0x20 SUB DUP5 CALLDATASIZE SUB SUB DUP2 SLT PUSH2 0x4AB7 JUMPI PUSH2 0x4AB6 PUSH2 0x4A68 JUMP JUMPDEST JUMPDEST DUP1 DUP5 ADD SWAP3 POP DUP3 CALLDATALOAD SWAP2 POP PUSH8 0xFFFFFFFFFFFFFFFF DUP3 GT ISZERO PUSH2 0x4AD9 JUMPI PUSH2 0x4AD8 PUSH2 0x4A6C JUMP JUMPDEST JUMPDEST PUSH1 0x20 DUP4 ADD SWAP3 POP PUSH1 0x1 DUP3 MUL CALLDATASIZE SUB DUP4 SGT ISZERO PUSH2 0x4AF5 JUMPI PUSH2 0x4AF4 PUSH2 0x4A70 JUMP JUMPDEST JUMPDEST POP SWAP3 POP SWAP3 SWAP1 POP JUMP JUMPDEST PUSH0 DUP3 SWAP1 POP SWAP3 SWAP2 POP POP JUMP JUMPDEST PUSH0 DUP3 DUP3 SHL SWAP1 POP SWAP3 SWAP2 POP POP JUMP JUMPDEST PUSH0 PUSH2 0x4B1E DUP4 DUP4 PUSH2 0x4AFD JUMP JUMPDEST DUP3 PUSH2 0x4B29 DUP2 CALLDATALOAD PUSH2 0x395A JUMP JUMPDEST SWAP3 POP PUSH1 0x4 DUP3 LT ISZERO PUSH2 0x4B69 JUMPI PUSH2 0x4B64 PUSH32 0xFFFFFFFF00000000000000000000000000000000000000000000000000000000 DUP4 PUSH1 0x4 SUB PUSH1 0x8 MUL PUSH2 0x4B07 JUMP JUMPDEST DUP4 AND SWAP3 POP JUMPDEST POP POP SWAP3 SWAP2 POP POP JUMP JUMPDEST PUSH0 PUSH2 0x4B7F PUSH1 0x20 DUP5 ADD DUP5 PUSH2 0x38C3 JUMP JUMPDEST SWAP1 POP SWAP3 SWAP2 POP POP JUMP JUMPDEST PUSH0 DUP1 REVERT JUMPDEST PUSH0 DUP1 REVERT JUMPDEST PUSH0 DUP1 REVERT JUMPDEST PUSH0 DUP1 DUP4 CALLDATALOAD PUSH1 0x1 PUSH1 0x20 SUB DUP5 CALLDATASIZE SUB SUB DUP2 SLT PUSH2 0x4BAF JUMPI PUSH2 0x4BAE PUSH2 0x4B8F JUMP JUMPDEST JUMPDEST DUP4 DUP2 ADD SWAP3 POP DUP3 CALLDATALOAD SWAP2 POP PUSH1 0x20 DUP4 ADD SWAP3 POP PUSH8 0xFFFFFFFFFFFFFFFF DUP3 GT ISZERO PUSH2 0x4BD7 JUMPI PUSH2 0x4BD6 PUSH2 0x4B87 JUMP JUMPDEST JUMPDEST PUSH1 0x1 DUP3 MUL CALLDATASIZE SUB DUP4 SGT ISZERO PUSH2 0x4BED JUMPI PUSH2 0x4BEC PUSH2 0x4B8B JUMP JUMPDEST JUMPDEST POP SWAP3 POP SWAP3 SWAP1 POP JUMP JUMPDEST PUSH0 DUP3 DUP3 MSTORE PUSH1 0x20 DUP3 ADD SWAP1 POP SWAP3 SWAP2 POP POP JUMP JUMPDEST PUSH0 PUSH2 0x4C10 DUP4 DUP6 PUSH2 0x4BF5 JUMP JUMPDEST SWAP4 POP PUSH2 0x4C1D DUP4 DUP6 DUP5 PUSH2 0x4701 JUMP JUMPDEST PUSH2 0x4C26 DUP4 PUSH2 0x470F JUMP JUMPDEST DUP5 ADD SWAP1 POP SWAP4 SWAP3 POP POP POP JUMP JUMPDEST PUSH0 PUSH2 0x4C3F PUSH1 0x20 DUP5 ADD DUP5 PUSH2 0x38F6 JUMP JUMPDEST SWAP1 POP SWAP3 SWAP2 POP POP JUMP JUMPDEST PUSH2 0x4C50 DUP2 PUSH2 0x38D7 JUMP JUMPDEST DUP3 MSTORE POP POP JUMP JUMPDEST PUSH0 PUSH1 0xA0 DUP4 ADD PUSH2 0x4C67 PUSH0 DUP5 ADD DUP5 PUSH2 0x4865 JUMP JUMPDEST PUSH2 0x4C73 PUSH0 DUP7 ADD DUP3 PUSH2 0x453E JUMP JUMPDEST POP PUSH2 0x4C81 PUSH1 0x20 DUP5 ADD DUP5 PUSH2 0x4B71 JUMP JUMPDEST PUSH2 0x4C8E PUSH1 0x20 DUP7 ADD DUP3 PUSH2 0x452F JUMP JUMPDEST POP PUSH2 0x4C9C PUSH1 0x40 DUP5 ADD DUP5 PUSH2 0x4B93 JUMP JUMPDEST DUP6 DUP4 SUB PUSH1 0x40 DUP8 ADD MSTORE PUSH2 0x4CAF DUP4 DUP3 DUP5 PUSH2 0x4C05 JUMP JUMPDEST SWAP3 POP POP POP PUSH2 0x4CC0 PUSH1 0x60 DUP5 ADD DUP5 PUSH2 0x4C31 JUMP JUMPDEST PUSH2 0x4CCD PUSH1 0x60 DUP7 ADD DUP3 PUSH2 0x4C47 JUMP JUMPDEST POP PUSH2 0x4CDB PUSH1 0x80 DUP5 ADD DUP5 PUSH2 0x4B93 JUMP JUMPDEST DUP6 DUP4 SUB PUSH1 0x80 DUP8 ADD MSTORE PUSH2 0x4CEE DUP4 DUP3 DUP5 PUSH2 0x4C05 JUMP JUMPDEST SWAP3 POP POP POP DUP1 SWAP2 POP POP SWAP3 SWAP2 POP POP JUMP JUMPDEST PUSH0 PUSH1 0x40 DUP3 ADD SWAP1 POP DUP2 DUP2 SUB PUSH0 DUP4 ADD MSTORE PUSH2 0x4D14 DUP2 DUP6 PUSH2 0x4C56 JUMP JUMPDEST SWAP1 POP PUSH2 0x4D23 PUSH1 0x20 DUP4 ADD DUP5 PUSH2 0x3AFB JUMP JUMPDEST SWAP4 SWAP3 POP POP POP JUMP JUMPDEST PUSH0 DUP2 SWAP1 POP SWAP3 SWAP2 POP POP JUMP JUMPDEST PUSH0 PUSH2 0x4D3F DUP4 DUP6 PUSH2 0x4D2A JUMP JUMPDEST SWAP4 POP PUSH2 0x4D4C DUP4 DUP6 DUP5 PUSH2 0x4701 JUMP JUMPDEST DUP3 DUP5 ADD SWAP1 POP SWAP4 SWAP3 POP POP POP JUMP JUMPDEST PUSH0 PUSH2 0x4D64 DUP3 DUP5 DUP7 PUSH2 0x4D34 JUMP JUMPDEST SWAP2 POP DUP2 SWAP1 POP SWAP4 SWAP3 POP POP POP JUMP JUMPDEST PUSH0 PUSH1 0x40 DUP3 ADD SWAP1 POP PUSH2 0x4D83 PUSH0 DUP4 ADD DUP6 PUSH2 0x3DE2 JUMP JUMPDEST DUP2 DUP2 SUB PUSH1 0x20 DUP4 ADD MSTORE PUSH2 0x4D95 DUP2 DUP5 PUSH2 0x49F2 JUMP JUMPDEST SWAP1 POP SWAP4 SWAP3 POP POP POP JUMP JUMPDEST PUSH32 0x4E487B7100000000000000000000000000000000000000000000000000000000 PUSH0 MSTORE PUSH1 0x11 PUSH1 0x4 MSTORE PUSH1 0x24 PUSH0 REVERT JUMPDEST PUSH0 PUSH2 0x4DD5 DUP3 PUSH2 0x38D7 JUMP JUMPDEST SWAP2 POP PUSH2 0x4DE0 DUP4 PUSH2 0x38D7 JUMP JUMPDEST SWAP3 POP DUP3 DUP3 MUL PUSH2 0x4DEE DUP2 PUSH2 0x38D7 JUMP JUMPDEST SWAP2 POP DUP3 DUP3 DIV DUP5 EQ DUP4 ISZERO OR PUSH2 0x4E05 JUMPI PUSH2 0x4E04 PUSH2 0x4D9E JUMP JUMPDEST JUMPDEST POP SWAP3 SWAP2 POP POP JUMP JUMPDEST PUSH0 PUSH2 0x4E16 DUP3 PUSH2 0x38D7 JUMP JUMPDEST SWAP2 POP PUSH2 0x4E21 DUP4 PUSH2 0x38D7 JUMP JUMPDEST SWAP3 POP DUP3 DUP3 ADD SWAP1 POP DUP1 DUP3 GT ISZERO PUSH2 0x4E39 JUMPI PUSH2 0x4E38 PUSH2 0x4D9E JUMP JUMPDEST JUMPDEST SWAP3 SWAP2 POP POP JUMP JUMPDEST PUSH0 DUP1 REVERT JUMPDEST PUSH0 DUP1 REVERT JUMPDEST PUSH0 DUP1 DUP6 DUP6 GT ISZERO PUSH2 0x4E5A JUMPI PUSH2 0x4E59 PUSH2 0x4E3F JUMP JUMPDEST JUMPDEST DUP4 DUP7 GT ISZERO PUSH2 0x4E6B JUMPI PUSH2 0x4E6A PUSH2 0x4E43 JUMP JUMPDEST JUMPDEST PUSH1 0x1 DUP6 MUL DUP4 ADD SWAP2 POP DUP5 DUP7 SUB SWAP1 POP SWAP5 POP SWAP5 SWAP3 POP POP POP JUMP JUMPDEST PUSH2 0x4E8A DUP2 PUSH2 0x435F JUMP JUMPDEST DUP3 MSTORE POP POP JUMP JUMPDEST PUSH0 PUSH1 0x40 DUP3 ADD SWAP1 POP PUSH2 0x4EA3 PUSH0 DUP4 ADD DUP6 PUSH2 0x4E81 JUMP JUMPDEST PUSH2 0x4EB0 PUSH1 0x20 DUP4 ADD DUP5 PUSH2 0x3DE2 JUMP JUMPDEST SWAP4 SWAP3 POP POP POP JUMP JUMPDEST PUSH0 DUP2 PUSH1 0xE0 SHL SWAP1 POP SWAP2 SWAP1 POP JUMP JUMPDEST PUSH0 PUSH2 0x4ECD DUP3 PUSH2 0x4EB7 JUMP JUMPDEST SWAP1 POP SWAP2 SWAP1 POP JUMP JUMPDEST PUSH2 0x4EE5 PUSH2 0x4EE0 DUP3 PUSH2 0x3B23 JUMP JUMPDEST PUSH2 0x4EC3 JUMP JUMPDEST DUP3 MSTORE POP POP JUMP JUMPDEST PUSH0 DUP2 PUSH1 0x60 SHL SWAP1 POP SWAP2 SWAP1 POP JUMP JUMPDEST PUSH0 PUSH2 0x4F01 DUP3 PUSH2 0x4EEB JUMP JUMPDEST SWAP1 POP SWAP2 SWAP1 POP JUMP JUMPDEST PUSH0 PUSH2 0x4F12 DUP3 PUSH2 0x4EF7 JUMP JUMPDEST SWAP1 POP SWAP2 SWAP1 POP JUMP JUMPDEST PUSH2 0x4F2A PUSH2 0x4F25 DUP3 PUSH2 0x389C JUMP JUMPDEST PUSH2 0x4F08 JUMP JUMPDEST DUP3 MSTORE POP POP JUMP JUMPDEST PUSH0 DUP2 SWAP1 POP SWAP2 SWAP1 POP JUMP JUMPDEST PUSH2 0x4F4A PUSH2 0x4F45 DUP3 PUSH2 0x38D7 JUMP JUMPDEST PUSH2 0x4F30 JUMP JUMPDEST DUP3 MSTORE POP POP JUMP JUMPDEST PUSH0 PUSH2 0x4F5B DUP3 DUP9 PUSH2 0x4ED4 JUMP JUMPDEST PUSH1 0x4 DUP3 ADD SWAP2 POP PUSH2 0x4F6B DUP3 DUP8 PUSH2 0x4F19 JUMP JUMPDEST PUSH1 0x14 DUP3 ADD SWAP2 POP PUSH2 0x4F7B DUP3 DUP7 PUSH2 0x4F39 JUMP JUMPDEST PUSH1 0x20 DUP3 ADD SWAP2 POP PUSH2 0x4F8C DUP3 DUP5 DUP7 PUSH2 0x4D34 JUMP JUMPDEST SWAP2 POP DUP2 SWAP1 POP SWAP7 SWAP6 POP POP POP POP POP POP JUMP JUMPDEST PUSH0 PUSH1 0x20 DUP3 DUP5 SUB SLT ISZERO PUSH2 0x4FB0 JUMPI PUSH2 0x4FAF PUSH2 0x3875 JUMP JUMPDEST JUMPDEST PUSH0 PUSH2 0x4FBD DUP5 DUP3 DUP6 ADD PUSH2 0x4386 JUMP JUMPDEST SWAP2 POP POP SWAP3 SWAP2 POP POP JUMP JUMPDEST PUSH0 PUSH2 0x4FD0 DUP3 PUSH2 0x3A62 JUMP JUMPDEST SWAP2 POP PUSH8 0xFFFFFFFFFFFFFFFF DUP3 SUB PUSH2 0x4FEA JUMPI PUSH2 0x4FE9 PUSH2 0x4D9E JUMP JUMPDEST JUMPDEST PUSH1 0x1 DUP3 ADD SWAP1 POP SWAP2 SWAP1 POP JUMP JUMPDEST PUSH0 PUSH1 0x40 DUP3 ADD SWAP1 POP PUSH2 0x5008 PUSH0 DUP4 ADD DUP6 PUSH2 0x3F76 JUMP JUMPDEST PUSH2 0x5015 PUSH1 0x20 DUP4 ADD DUP5 PUSH2 0x39E5 JUMP JUMPDEST SWAP4 SWAP3 POP POP POP JUMP JUMPDEST PUSH0 PUSH2 0x5026 DUP3 PUSH2 0x3A62 JUMP JUMPDEST SWAP2 POP PUSH2 0x5031 DUP4 PUSH2 0x3A62 JUMP JUMPDEST SWAP3 POP DUP3 DUP3 SUB SWAP1 POP PUSH8 0xFFFFFFFFFFFFFFFF DUP2 GT ISZERO PUSH2 0x5051 JUMPI PUSH2 0x5050 PUSH2 0x4D9E JUMP JUMPDEST JUMPDEST SWAP3 SWAP2 POP POP JUMP JUMPDEST PUSH0 PUSH2 0x5061 DUP3 PUSH2 0x3A62 JUMP JUMPDEST SWAP2 POP PUSH2 0x506C DUP4 PUSH2 0x3A62 JUMP JUMPDEST SWAP3 POP DUP3 DUP3 ADD SWAP1 POP PUSH8 0xFFFFFFFFFFFFFFFF DUP2 GT ISZERO PUSH2 0x508C JUMPI PUSH2 0x508B PUSH2 0x4D9E JUMP JUMPDEST JUMPDEST SWAP3 SWAP2 POP POP JUMP JUMPDEST PUSH0 PUSH1 0x40 DUP3 ADD SWAP1 POP PUSH2 0x50A5 PUSH0 DUP4 ADD DUP6 PUSH2 0x3A75 JUMP JUMPDEST PUSH2 0x50B2 PUSH1 0x20 DUP4 ADD DUP5 PUSH2 0x3A75 JUMP JUMPDEST SWAP4 SWAP3 POP POP POP JUMP JUMPDEST PUSH0 DUP2 SWAP1 POP SWAP3 SWAP2 POP POP JUMP JUMPDEST PUSH32 0x19457468657265756D205369676E6564204D6573736167653A0A333200000000 PUSH0 DUP3 ADD MSTORE POP JUMP JUMPDEST PUSH0 PUSH2 0x50F7 PUSH1 0x1C DUP4 PUSH2 0x50B9 JUMP JUMPDEST SWAP2 POP PUSH2 0x5102 DUP3 PUSH2 0x50C3 JUMP JUMPDEST PUSH1 0x1C DUP3 ADD SWAP1 POP SWAP2 SWAP1 POP JUMP JUMPDEST PUSH0 DUP2 SWAP1 POP SWAP2 SWAP1 POP JUMP JUMPDEST PUSH2 0x5127 PUSH2 0x5122 DUP3 PUSH2 0x3A9D JUMP JUMPDEST PUSH2 0x510D JUMP JUMPDEST DUP3 MSTORE POP POP JUMP JUMPDEST PUSH0 PUSH2 0x5137 DUP3 PUSH2 0x50EB JUMP JUMPDEST SWAP2 POP PUSH2 0x5143 DUP3 DUP5 PUSH2 0x5116 JUMP JUMPDEST PUSH1 0x20 DUP3 ADD SWAP2 POP DUP2 SWAP1 POP SWAP3 SWAP2 POP POP JUMP JUMPDEST PUSH0 PUSH2 0x515C DUP3 PUSH2 0x3A62 JUMP JUMPDEST SWAP2 POP PUSH0 DUP3 SUB PUSH2 0x516E JUMPI PUSH2 0x516D PUSH2 0x4D9E JUMP JUMPDEST JUMPDEST PUSH1 0x1 DUP3 SUB SWAP1 POP SWAP2 SWAP1 POP JUMP JUMPDEST PUSH0 PUSH1 0x40 DUP3 ADD SWAP1 POP PUSH2 0x518C PUSH0 DUP4 ADD DUP6 PUSH2 0x3F76 JUMP JUMPDEST PUSH2 0x5199 PUSH1 0x20 DUP4 ADD DUP5 PUSH2 0x3AFB JUMP JUMPDEST SWAP4 SWAP3 POP POP POP JUMP JUMPDEST POP JUMP JUMPDEST PUSH0 PUSH2 0x51AE PUSH0 DUP4 PUSH2 0x4D2A JUMP JUMPDEST SWAP2 POP PUSH2 0x51B9 DUP3 PUSH2 0x51A0 JUMP JUMPDEST PUSH0 DUP3 ADD SWAP1 POP SWAP2 SWAP1 POP JUMP JUMPDEST PUSH0 PUSH2 0x51CD DUP3 PUSH2 0x51A3 JUMP JUMPDEST SWAP2 POP DUP2 SWAP1 POP SWAP2 SWAP1 POP JUMP JUMPDEST PUSH2 0x51E0 DUP2 PUSH2 0x3BB0 JUMP JUMPDEST DUP3 MSTORE POP POP JUMP JUMPDEST PUSH0 PUSH1 0x80 DUP3 ADD SWAP1 POP PUSH2 0x51F9 PUSH0 DUP4 ADD DUP8 PUSH2 0x3AFB JUMP JUMPDEST PUSH2 0x5206 PUSH1 0x20 DUP4 ADD DUP7 PUSH2 0x51D7 JUMP JUMPDEST PUSH2 0x5213 PUSH1 0x40 DUP4 ADD DUP6 PUSH2 0x3AFB JUMP JUMPDEST PUSH2 0x5220 PUSH1 0x60 DUP4 ADD DUP5 PUSH2 0x3AFB JUMP JUMPDEST SWAP6 SWAP5 POP POP POP POP POP JUMP JUMPDEST PUSH0 DUP2 MLOAD SWAP1 POP PUSH2 0x5237 DUP2 PUSH2 0x3A0D JUMP JUMPDEST SWAP3 SWAP2 POP POP JUMP JUMPDEST PUSH0 PUSH1 0x20 DUP3 DUP5 SUB SLT ISZERO PUSH2 0x5252 JUMPI PUSH2 0x5251 PUSH2 0x3875 JUMP JUMPDEST JUMPDEST PUSH0 PUSH2 0x525F DUP5 DUP3 DUP6 ADD PUSH2 0x5229 JUMP JUMPDEST SWAP2 POP POP SWAP3 SWAP2 POP POP JUMP JUMPDEST PUSH0 PUSH2 0x5272 DUP3 PUSH2 0x49DA JUMP JUMPDEST PUSH2 0x527C DUP2 DUP6 PUSH2 0x4D2A JUMP JUMPDEST SWAP4 POP PUSH2 0x528C DUP2 DUP6 PUSH1 0x20 DUP7 ADD PUSH2 0x49E4 JUMP JUMPDEST DUP1 DUP5 ADD SWAP2 POP POP SWAP3 SWAP2 POP POP JUMP JUMPDEST PUSH0 PUSH2 0x52A3 DUP3 DUP5 PUSH2 0x5268 JUMP JUMPDEST SWAP2 POP DUP2 SWAP1 POP SWAP3 SWAP2 POP POP JUMP INVALID LOG2 PUSH5 0x6970667358 0x22 SLT KECCAK256 STATICCALL MCOPY PREVRANDAO SWAP15 DUP7 SHR 0xBD CODECOPY 0xB1 STATICCALL 0xA8 PUSH30 0x27F9FC4C6D3ACB23A236E736FE4B92AB93EAF2C664736F6C634300081A00 CALLER "
		},
		"gasEstimates": {
			"creation": {
				"codeDepositCost": "4244000",
				"executionCost": "infinite",
				"totalCost": "infinite"
			},
			"external": {
				"DEFAULT_ADMIN_ROLE()": "464",
				"allowlistSize()": "2650",
				"assignJob((uint32,bytes,bytes32,uint64,address),bytes)": "infinite",
				"assignJob(uint16,uint16,uint64,address)": "infinite",
				"defaultMultiplierBps()": "2564",
				"dstConfig(uint32)": "7530",
				"execute((uint32,address,bytes,uint256,bytes)[])": "infinite",
				"getFee(uint16,uint16,uint64,address)": "infinite",
				"getFee(uint32,uint64,address,bytes)": "infinite",
				"getRoleAdmin(bytes32)": "infinite",
				"getSupportedOptionTypes(uint32)": "infinite",
				"grantRole(bytes32,address)": "infinite",
				"hasAcl(address)": "infinite",
				"hasRole(bytes32,address)": "3190",
				"hashCallData(uint32,address,bytes,uint256)": "infinite",
				"paused()": "2540",
				"priceFeed()": "2641",
				"quorum()": "2585",
				"quorumChangeAdmin((uint32,address,bytes,uint256,bytes))": "infinite",
				"renounceRole(bytes32,address)": "764",
				"revokeRole(bytes32,address)": "infinite",
				"setDefaultMultiplierBps(uint16)": "infinite",
				"setDstConfig((uint32,uint64,uint16,uint128)[])": "infinite",
				"setPaused(bool)": "infinite",
				"setPriceFeed(address)": "infinite",
				"setQuorum(uint64)": "infinite",
				"setSigner(address,bool)": "infinite",
				"setSupportedOptionTypes(uint32,uint8[])": "infinite",
				"setWorkerFeeLib(address)": "infinite",
				"signerSize()": "2598",
				"signers(address)": "2944",
				"supportsInterface(bytes4)": "808",
				"usedHashes(bytes32)": "2830",
				"verifySignatures(bytes32,bytes)": "infinite",
				"vid()": "infinite",
				"withdrawFee(address,address,uint256)": "infinite",
				"withdrawFeeFromUlnV2(address,address,uint256)": "infinite",
				"withdrawToken(address,address,uint256)": "infinite",
				"workerFeeLib()": "2667"
			},
			"internal": {
				"_shouldCheckHash(bytes4)": "118"
			}
		},
		"methodIdentifiers": {
			"DEFAULT_ADMIN_ROLE()": "a217fddf",
			"allowlistSize()": "d2ae2104",
			"assignJob((uint32,bytes,bytes32,uint64,address),bytes)": "95d376d7",
			"assignJob(uint16,uint16,uint64,address)": "c5e193cd",
			"defaultMultiplierBps()": "00bf2e80",
			"dstConfig(uint32)": "9e944965",
			"execute((uint32,address,bytes,uint256,bytes)[])": "b143044b",
			"getFee(uint16,uint16,uint64,address)": "5553fb8e",
			"getFee(uint32,uint64,address,bytes)": "30bb3aac",
			"getRoleAdmin(bytes32)": "248a9ca3",
			"getSupportedOptionTypes(uint32)": "26e67a37",
			"grantRole(bytes32,address)": "2f2ff15d",
			"hasAcl(address)": "2de11376",
			"hasRole(bytes32,address)": "91d14854",
			"hashCallData(uint32,address,bytes,uint256)": "f010cb23",
			"paused()": "5c975abb",
			"priceFeed()": "741bef1a",
			"quorum()": "1703a018",
			"quorumChangeAdmin((uint32,address,bytes,uint256,bytes))": "f3b4ebd0",
			"renounceRole(bytes32,address)": "36568abe",
			"revokeRole(bytes32,address)": "d547741f",
			"setDefaultMultiplierBps(uint16)": "c358de0a",
			"setDstConfig((uint32,uint64,uint16,uint128)[])": "52d3b871",
			"setPaused(bool)": "16c38b3c",
			"setPriceFeed(address)": "724e78da",
			"setQuorum(uint64)": "8585c945",
			"setSigner(address,bool)": "31cb6105",
			"setSupportedOptionTypes(uint32,uint8[])": "cd88b903",
			"setWorkerFeeLib(address)": "c7b2370b",
			"signerSize()": "fd62e750",
			"signers(address)": "736c0d5b",
			"supportsInterface(bytes4)": "01ffc9a7",
			"usedHashes(bytes32)": "aef18bf7",
			"verifySignatures(bytes32,bytes)": "c7a823e0",
			"vid()": "cf34c768",
			"withdrawFee(address,address,uint256)": "1095b6d7",
			"withdrawFeeFromUlnV2(address,address,uint256)": "dafe0ccc",
			"withdrawToken(address,address,uint256)": "01e33667",
			"workerFeeLib()": "c416aa51"
		}
	},
	"abi": [
		{
			"inputs": [
				{
					"internalType": "uint32",
					"name": "_vid",
					"type": "uint32"
				},
				{
					"internalType": "address[]",
					"name": "_messageLibs",
					"type": "address[]"
				},
				{
					"internalType": "address",
					"name": "_priceFeed",
					"type": "address"
				},
				{
					"internalType": "address[]",
					"name": "_signers",
					"type": "address[]"
				},
				{
					"internalType": "uint64",
					"name": "_quorum",
					"type": "uint64"
				},
				{
					"internalType": "address[]",
					"name": "_admins",
					"type": "address[]"
				}
			],
			"stateMutability": "nonpayable",
			"type": "constructor"
		},
		{
			"inputs": [],
			"name": "AccessControlBadConfirmation",
			"type": "error"
		},
		{
			"inputs": [
				{
					"internalType": "address",
					"name": "account",
					"type": "address"
				},
				{
					"internalType": "bytes32",
					"name": "neededRole",
					"type": "bytes32"
				}
			],
			"name": "AccessControlUnauthorizedAccount",
			"type": "error"
		},
		{
			"inputs": [
				{
					"internalType": "address",
					"name": "target",
					"type": "address"
				}
			],
			"name": "AddressEmptyCode",
			"type": "error"
		},
		{
			"inputs": [
				{
					"internalType": "address",
					"name": "account",
					"type": "address"
				}
			],
			"name": "AddressInsufficientBalance",
			"type": "error"
		},
		{
			"inputs": [
				{
					"internalType": "bytes32",
					"name": "executableHash",
					"type": "bytes32"
				}
			],
			"name": "DVN_DuplicatedHash",
			"type": "error"
		},
		{
			"inputs": [],
			"name": "DVN_InstructionExpired",
			"type": "error"
		},
		{
			"inputs": [
				{
					"internalType": "bytes32",
					"name": "role",
					"type": "bytes32"
				}
			],
			"name": "DVN_InvalidRole",
			"type": "error"
		},
		{
			"inputs": [],
			"name": "DVN_InvalidSignatures",
			"type": "error"
		},
		{
			"inputs": [
				{
					"internalType": "address",
					"name": "target",
					"type": "address"
				}
			],
			"name": "DVN_InvalidTarget",
			"type": "error"
		},
		{
			"inputs": [
				{
					"internalType": "uint32",
					"name": "vid",
					"type": "uint32"
				}
			],
			"name": "DVN_InvalidVid",
			"type": "error"
		},
		{
			"inputs": [],
			"name": "DVN_OnlySelf",
			"type": "error"
		},
		{
			"inputs": [],
			"name": "EnforcedPause",
			"type": "error"
		},
		{
			"inputs": [],
			"name": "ExpectedPause",
			"type": "error"
		},
		{
			"inputs": [],
			"name": "FailedInnerCall",
			"type": "error"
		},
		{
			"inputs": [],
			"name": "MultiSig_OnlySigner",
			"type": "error"
		},
		{
			"inputs": [],
			"name": "MultiSig_QuorumIsZero",
			"type": "error"
		},
		{
			"inputs": [
				{
					"internalType": "uint64",
					"name": "signersSize",
					"type": "uint64"
				},
				{
					"internalType": "uint64",
					"name": "quorum",
					"type": "uint64"
				}
			],
			"name": "MultiSig_SignersSizeIsLessThanQuorum",
			"type": "error"
		},
		{
			"inputs": [
				{
					"internalType": "address",
					"name": "signer",
					"type": "address"
				},
				{
					"internalType": "bool",
					"name": "active",
					"type": "bool"
				}
			],
			"name": "MultiSig_StateAlreadySet",
			"type": "error"
		},
		{
			"inputs": [],
			"name": "MultiSig_UnorderedSigners",
			"type": "error"
		},
		{
			"inputs": [
				{
					"internalType": "address",
					"name": "token",
					"type": "address"
				}
			],
			"name": "SafeERC20FailedOperation",
			"type": "error"
		},
		{
			"inputs": [
				{
					"internalType": "address",
					"name": "_to",
					"type": "address"
				},
				{
					"internalType": "uint256",
					"name": "_value",
					"type": "uint256"
				}
			],
			"name": "Transfer_NativeFailed",
			"type": "error"
		},
		{
			"inputs": [],
			"name": "Transfer_ToAddressIsZero",
			"type": "error"
		},
		{
			"inputs": [],
			"name": "Worker_NotAllowed",
			"type": "error"
		},
		{
			"inputs": [],
			"name": "Worker_OnlyMessageLib",
			"type": "error"
		},
		{
			"inputs": [],
			"name": "Worker_RoleRenouncingDisabled",
			"type": "error"
		},
		{
			"anonymous": false,
			"inputs": [
				{
					"indexed": false,
					"internalType": "uint256",
					"name": "_index",
					"type": "uint256"
				},
				{
					"indexed": false,
					"internalType": "bytes",
					"name": "_data",
					"type": "bytes"
				}
			],
			"name": "ExecuteFailed",
			"type": "event"
		},
		{
			"anonymous": false,
			"inputs": [
				{
					"components": [
						{
							"internalType": "uint32",
							"name": "vid",
							"type": "uint32"
						},
						{
							"internalType": "address",
							"name": "target",
							"type": "address"
						},
						{
							"internalType": "bytes",
							"name": "callData",
							"type": "bytes"
						},
						{
							"internalType": "uint256",
							"name": "expiration",
							"type": "uint256"
						},
						{
							"internalType": "bytes",
							"name": "signatures",
							"type": "bytes"
						}
					],
					"indexed": false,
					"internalType": "struct ExecuteParam",
					"name": "param",
					"type": "tuple"
				},
				{
					"indexed": false,
					"internalType": "bytes32",
					"name": "_hash",
					"type": "bytes32"
				}
			],
			"name": "HashAlreadyUsed",
			"type": "event"
		},
		{
			"anonymous": false,
			"inputs": [
				{
					"indexed": false,
					"internalType": "address",
					"name": "account",
					"type": "address"
				}
			],
			"name": "Paused",
			"type": "event"
		},
		{
			"anonymous": false,
			"inputs": [
				{
					"indexed": true,
					"internalType": "bytes32",
					"name": "role",
					"type": "bytes32"
				},
				{
					"indexed": true,
					"internalType": "bytes32",
					"name": "previousAdminRole",
					"type": "bytes32"
				},
				{
					"indexed": true,
					"internalType": "bytes32",
					"name": "newAdminRole",
					"type": "bytes32"
				}
			],
			"name": "RoleAdminChanged",
			"type": "event"
		},
		{
			"anonymous": false,
			"inputs": [
				{
					"indexed": true,
					"internalType": "bytes32",
					"name": "role",
					"type": "bytes32"
				},
				{
					"indexed": true,
					"internalType": "address",
					"name": "account",
					"type": "address"
				},
				{
					"indexed": true,
					"internalType": "address",
					"name": "sender",
					"type": "address"
				}
			],
			"name": "RoleGranted",
			"type": "event"
		},
		{
			"anonymous": false,
			"inputs": [
				{
					"indexed": true,
					"internalType": "bytes32",
					"name": "role",
					"type": "bytes32"
				},
				{
					"indexed": true,
					"internalType": "address",
					"name": "account",
					"type": "address"
				},
				{
					"indexed": true,
					"internalType": "address",
					"name": "sender",
					"type": "address"
				}
			],
			"name": "RoleRevoked",
			"type": "event"
		},
		{
			"anonymous": false,
			"inputs": [
				{
					"indexed": false,
					"internalType": "uint16",
					"name": "multiplierBps",
					"type": "uint16"
				}
			],
			"name": "SetDefaultMultiplierBps",
			"type": "event"
		},
		{
			"anonymous": false,
			"inputs": [
				{
					"components": [
						{
							"internalType": "uint32",
							"name": "dstEid",
							"type": "uint32"
						},
						{
							"internalType": "uint64",
							"name": "gas",
							"type": "uint64"
						},
						{
							"internalType": "uint16",
							"name": "multiplierBps",
							"type": "uint16"
						},
						{
							"internalType": "uint128",
							"name": "floorMarginUSD",
							"type": "uint128"
						}
					],
					"indexed": false,
					"internalType": "struct IDVN.DstConfigParam[]",
					"name": "params",
					"type": "tuple[]"
				}
			],
			"name": "SetDstConfig",
			"type": "event"
		},
		{
			"anonymous": false,
			"inputs": [
				{
					"indexed": false,
					"internalType": "address",
					"name": "priceFeed",
					"type": "address"
				}
			],
			"name": "SetPriceFeed",
			"type": "event"
		},
		{
			"anonymous": false,
			"inputs": [
				{
					"indexed": false,
					"internalType": "uint32",
					"name": "dstEid",
					"type": "uint32"
				},
				{
					"indexed": false,
					"internalType": "uint8[]",
					"name": "optionTypes",
					"type": "uint8[]"
				}
			],
			"name": "SetSupportedOptionTypes",
			"type": "event"
		},
		{
			"anonymous": false,
			"inputs": [
				{
					"indexed": false,
					"internalType": "address",
					"name": "workerLib",
					"type": "address"
				}
			],
			"name": "SetWorkerLib",
			"type": "event"
		},
		{
			"anonymous": false,
			"inputs": [
				{
					"indexed": false,
					"internalType": "address",
					"name": "account",
					"type": "address"
				}
			],
			"name": "Unpaused",
			"type": "event"
		},
		{
			"anonymous": false,
			"inputs": [
				{
					"indexed": false,
					"internalType": "uint64",
					"name": "_quorum",
					"type": "uint64"
				}
			],
			"name": "UpdateQuorum",
			"type": "event"
		},
		{
			"anonymous": false,
			"inputs": [
				{
					"indexed": false,
					"internalType": "address",
					"name": "_signer",
					"type": "address"
				},
				{
					"indexed": false,
					"internalType": "bool",
					"name": "_active",
					"type": "bool"
				}
			],
			"name": "UpdateSigner",
			"type": "event"
		},
		{
			"anonymous": false,
			"inputs": [
				{
					"indexed": false,
					"internalType": "uint256",
					"name": "fee",
					"type": "uint256"
				}
			],
			"name": "VerifierFeePaid",
			"type": "event"
		},
		{
			"anonymous": false,
			"inputs": [
				{
					"indexed": false,
					"internalType": "uint256",
					"name": "idx",
					"type": "uint256"
				}
			],
			"name": "VerifySignaturesFailed",
			"type": "event"
		},
		{
			"anonymous": false,
			"inputs": [
				{
					"indexed": false,
					"internalType": "address",
					"name": "lib",
					"type": "address"
				},
				{
					"indexed": false,
					"internalType": "address",
					"name": "to",
					"type": "address"
				},
				{
					"indexed": false,
					"internalType": "uint256",
					"name": "amount",
					"type": "uint256"
				}
			],
			"name": "Withdraw",
			"type": "event"
		},
		{
			"inputs": [],
			"name": "DEFAULT_ADMIN_ROLE",
			"outputs": [
				{
					"internalType": "bytes32",
					"name": "",
					"type": "bytes32"
				}
			],
			"stateMutability": "view",
			"type": "function"
		},
		{
			"inputs": [],
			"name": "allowlistSize",
			"outputs": [
				{
					"internalType": "uint64",
					"name": "",
					"type": "uint64"
				}
			],
			"stateMutability": "view",
			"type": "function"
		},
		{
			"inputs": [
				{
					"components": [
						{
							"internalType": "uint32",
							"name": "dstEid",
							"type": "uint32"
						},
						{
							"internalType": "bytes",
							"name": "packetHeader",
							"type": "bytes"
						},
						{
							"internalType": "bytes32",
							"name": "payloadHash",
							"type": "bytes32"
						},
						{
							"internalType": "uint64",
							"name": "confirmations",
							"type": "uint64"
						},
						{
							"internalType": "address",
							"name": "sender",
							"type": "address"
						}
					],
					"internalType": "struct ILayerZeroDVN.AssignJobParam",
					"name": "_param",
					"type": "tuple"
				},
				{
					"internalType": "bytes",
					"name": "_options",
					"type": "bytes"
				}
			],
			"name": "assignJob",
			"outputs": [
				{
					"internalType": "uint256",
					"name": "totalFee",
					"type": "uint256"
				}
			],
			"stateMutability": "payable",
			"type": "function"
		},
		{
			"inputs": [
				{
					"internalType": "uint16",
					"name": "_dstEid",
					"type": "uint16"
				},
				{
					"internalType": "uint16",
					"name": "",
					"type": "uint16"
				},
				{
					"internalType": "uint64",
					"name": "_confirmations",
					"type": "uint64"
				},
				{
					"internalType": "address",
					"name": "_sender",
					"type": "address"
				}
			],
			"name": "assignJob",
			"outputs": [
				{
					"internalType": "uint256",
					"name": "totalFee",
					"type": "uint256"
				}
			],
			"stateMutability": "nonpayable",
			"type": "function"
		},
		{
			"inputs": [],
			"name": "defaultMultiplierBps",
			"outputs": [
				{
					"internalType": "uint16",
					"name": "",
					"type": "uint16"
				}
			],
			"stateMutability": "view",
			"type": "function"
		},
		{
			"inputs": [
				{
					"internalType": "uint32",
					"name": "dstEid",
					"type": "uint32"
				}
			],
			"name": "dstConfig",
			"outputs": [
				{
					"internalType": "uint64",
					"name": "gas",
					"type": "uint64"
				},
				{
					"internalType": "uint16",
					"name": "multiplierBps",
					"type": "uint16"
				},
				{
					"internalType": "uint128",
					"name": "floorMarginUSD",
					"type": "uint128"
				}
			],
			"stateMutability": "view",
			"type": "function"
		},
		{
			"inputs": [
				{
					"components": [
						{
							"internalType": "uint32",
							"name": "vid",
							"type": "uint32"
						},
						{
							"internalType": "address",
							"name": "target",
							"type": "address"
						},
						{
							"internalType": "bytes",
							"name": "callData",
							"type": "bytes"
						},
						{
							"internalType": "uint256",
							"name": "expiration",
							"type": "uint256"
						},
						{
							"internalType": "bytes",
							"name": "signatures",
							"type": "bytes"
						}
					],
					"internalType": "struct ExecuteParam[]",
					"name": "_params",
					"type": "tuple[]"
				}
			],
			"name": "execute",
			"outputs": [],
			"stateMutability": "nonpayable",
			"type": "function"
		},
		{
			"inputs": [
				{
					"internalType": "uint32",
					"name": "_dstEid",
					"type": "uint32"
				},
				{
					"internalType": "uint64",
					"name": "_confirmations",
					"type": "uint64"
				},
				{
					"internalType": "address",
					"name": "_sender",
					"type": "address"
				},
				{
					"internalType": "bytes",
					"name": "_options",
					"type": "bytes"
				}
			],
			"name": "getFee",
			"outputs": [
				{
					"internalType": "uint256",
					"name": "fee",
					"type": "uint256"
				}
			],
			"stateMutability": "view",
			"type": "function"
		},
		{
			"inputs": [
				{
					"internalType": "uint16",
					"name": "_dstEid",
					"type": "uint16"
				},
				{
					"internalType": "uint16",
					"name": "",
					"type": "uint16"
				},
				{
					"internalType": "uint64",
					"name": "_confirmations",
					"type": "uint64"
				},
				{
					"internalType": "address",
					"name": "_sender",
					"type": "address"
				}
			],
			"name": "getFee",
			"outputs": [
				{
					"internalType": "uint256",
					"name": "fee",
					"type": "uint256"
				}
			],
			"stateMutability": "view",
			"type": "function"
		},
		{
			"inputs": [
				{
					"internalType": "bytes32",
					"name": "role",
					"type": "bytes32"
				}
			],
			"name": "getRoleAdmin",
			"outputs": [
				{
					"internalType": "bytes32",
					"name": "",
					"type": "bytes32"
				}
			],
			"stateMutability": "view",
			"type": "function"
		},
		{
			"inputs": [
				{
					"internalType": "uint32",
					"name": "_eid",
					"type": "uint32"
				}
			],
			"name": "getSupportedOptionTypes",
			"outputs": [
				{
					"internalType": "uint8[]",
					"name": "",
					"type": "uint8[]"
				}
			],
			"stateMutability": "view",
			"type": "function"
		},
		{
			"inputs": [
				{
					"internalType": "bytes32",
					"name": "_role",
					"type": "bytes32"
				},
				{
					"internalType": "address",
					"name": "_account",
					"type": "address"
				}
			],
			"name": "grantRole",
			"outputs": [],
			"stateMutability": "nonpayable",
			"type": "function"
		},
		{
			"inputs": [
				{
					"internalType": "address",
					"name": "_sender",
					"type": "address"
				}
			],
			"name": "hasAcl",
			"outputs": [
				{
					"internalType": "bool",
					"name": "",
					"type": "bool"
				}
			],
			"stateMutability": "view",
			"type": "function"
		},
		{
			"inputs": [
				{
					"internalType": "bytes32",
					"name": "role",
					"type": "bytes32"
				},
				{
					"internalType": "address",
					"name": "account",
					"type": "address"
				}
			],
			"name": "hasRole",
			"outputs": [
				{
					"internalType": "bool",
					"name": "",
					"type": "bool"
				}
			],
			"stateMutability": "view",
			"type": "function"
		},
		{
			"inputs": [
				{
					"internalType": "uint32",
					"name": "_vid",
					"type": "uint32"
				},
				{
					"internalType": "address",
					"name": "_target",
					"type": "address"
				},
				{
					"internalType": "bytes",
					"name": "_callData",
					"type": "bytes"
				},
				{
					"internalType": "uint256",
					"name": "_expiration",
					"type": "uint256"
				}
			],
			"name": "hashCallData",
			"outputs": [
				{
					"internalType": "bytes32",
					"name": "",
					"type": "bytes32"
				}
			],
			"stateMutability": "pure",
			"type": "function"
		},
		{
			"inputs": [],
			"name": "paused",
			"outputs": [
				{
					"internalType": "bool",
					"name": "",
					"type": "bool"
				}
			],
			"stateMutability": "view",
			"type": "function"
		},
		{
			"inputs": [],
			"name": "priceFeed",
			"outputs": [
				{
					"internalType": "address",
					"name": "",
					"type": "address"
				}
			],
			"stateMutability": "view",
			"type": "function"
		},
		{
			"inputs": [],
			"name": "quorum",
			"outputs": [
				{
					"internalType": "uint64",
					"name": "",
					"type": "uint64"
				}
			],
			"stateMutability": "view",
			"type": "function"
		},
		{
			"inputs": [
				{
					"components": [
						{
							"internalType": "uint32",
							"name": "vid",
							"type": "uint32"
						},
						{
							"internalType": "address",
							"name": "target",
							"type": "address"
						},
						{
							"internalType": "bytes",
							"name": "callData",
							"type": "bytes"
						},
						{
							"internalType": "uint256",
							"name": "expiration",
							"type": "uint256"
						},
						{
							"internalType": "bytes",
							"name": "signatures",
							"type": "bytes"
						}
					],
					"internalType": "struct ExecuteParam",
					"name": "_param",
					"type": "tuple"
				}
			],
			"name": "quorumChangeAdmin",
			"outputs": [],
			"stateMutability": "nonpayable",
			"type": "function"
		},
		{
			"inputs": [
				{
					"internalType": "bytes32",
					"name": "",
					"type": "bytes32"
				},
				{
					"internalType": "address",
					"name": "",
					"type": "address"
				}
			],
			"name": "renounceRole",
			"outputs": [],
			"stateMutability": "pure",
			"type": "function"
		},
		{
			"inputs": [
				{
					"internalType": "bytes32",
					"name": "_role",
					"type": "bytes32"
				},
				{
					"internalType": "address",
					"name": "_account",
					"type": "address"
				}
			],
			"name": "revokeRole",
			"outputs": [],
			"stateMutability": "nonpayable",
			"type": "function"
		},
		{
			"inputs": [
				{
					"internalType": "uint16",
					"name": "_multiplierBps",
					"type": "uint16"
				}
			],
			"name": "setDefaultMultiplierBps",
			"outputs": [],
			"stateMutability": "nonpayable",
			"type": "function"
		},
		{
			"inputs": [
				{
					"components": [
						{
							"internalType": "uint32",
							"name": "dstEid",
							"type": "uint32"
						},
						{
							"internalType": "uint64",
							"name": "gas",
							"type": "uint64"
						},
						{
							"internalType": "uint16",
							"name": "multiplierBps",
							"type": "uint16"
						},
						{
							"internalType": "uint128",
							"name": "floorMarginUSD",
							"type": "uint128"
						}
					],
					"internalType": "struct IDVN.DstConfigParam[]",
					"name": "_params",
					"type": "tuple[]"
				}
			],
			"name": "setDstConfig",
			"outputs": [],
			"stateMutability": "nonpayable",
			"type": "function"
		},
		{
			"inputs": [
				{
					"internalType": "bool",
					"name": "_paused",
					"type": "bool"
				}
			],
			"name": "setPaused",
			"outputs": [],
			"stateMutability": "nonpayable",
			"type": "function"
		},
		{
			"inputs": [
				{
					"internalType": "address",
					"name": "_priceFeed",
					"type": "address"
				}
			],
			"name": "setPriceFeed",
			"outputs": [],
			"stateMutability": "nonpayable",
			"type": "function"
		},
		{
			"inputs": [
				{
					"internalType": "uint64",
					"name": "_quorum",
					"type": "uint64"
				}
			],
			"name": "setQuorum",
			"outputs": [],
			"stateMutability": "nonpayable",
			"type": "function"
		},
		{
			"inputs": [
				{
					"internalType": "address",
					"name": "_signer",
					"type": "address"
				},
				{
					"internalType": "bool",
					"name": "_active",
					"type": "bool"
				}
			],
			"name": "setSigner",
			"outputs": [],
			"stateMutability": "nonpayable",
			"type": "function"
		},
		{
			"inputs": [
				{
					"internalType": "uint32",
					"name": "_eid",
					"type": "uint32"
				},
				{
					"internalType": "uint8[]",
					"name": "_optionTypes",
					"type": "uint8[]"
				}
			],
			"name": "setSupportedOptionTypes",
			"outputs": [],
			"stateMutability": "nonpayable",
			"type": "function"
		},
		{
			"inputs": [
				{
					"internalType": "address",
					"name": "_workerFeeLib",
					"type": "address"
				}
			],
			"name": "setWorkerFeeLib",
			"outputs": [],
			"stateMutability": "nonpayable",
			"type": "function"
		},
		{
			"inputs": [],
			"name": "signerSize",
			"outputs": [
				{
					"internalType": "uint64",
					"name": "",
					"type": "uint64"
				}
			],
			"stateMutability": "view",
			"type": "function"
		},
		{
			"inputs": [
				{
					"internalType": "address",
					"name": "signer",
					"type": "address"
				}
			],
			"name": "signers",
			"outputs": [
				{
					"internalType": "bool",
					"name": "active",
					"type": "bool"
				}
			],
			"stateMutability": "view",
			"type": "function"
		},
		{
			"inputs": [
				{
					"internalType": "bytes4",
					"name": "interfaceId",
					"type": "bytes4"
				}
			],
			"name": "supportsInterface",
			"outputs": [
				{
					"internalType": "bool",
					"name": "",
					"type": "bool"
				}
			],
			"stateMutability": "view",
			"type": "function"
		},
		{
			"inputs": [
				{
					"internalType": "bytes32",
					"name": "executableHash",
					"type": "bytes32"
				}
			],
			"name": "usedHashes",
			"outputs": [
				{
					"internalType": "bool",
					"name": "used",
					"type": "bool"
				}
			],
			"stateMutability": "view",
			"type": "function"
		},
		{
			"inputs": [
				{
					"internalType": "bytes32",
					"name": "_hash",
					"type": "bytes32"
				},
				{
					"internalType": "bytes",
					"name": "_signatures",
					"type": "bytes"
				}
			],
			"name": "verifySignatures",
			"outputs": [
				{
					"internalType": "bool",
					"name": "",
					"type": "bool"
				},
				{
					"internalType": "enum MultiSig.Errors",
					"name": "",
					"type": "uint8"
				}
			],
			"stateMutability": "view",
			"type": "function"
		},
		{
			"inputs": [],
			"name": "vid",
			"outputs": [
				{
					"internalType": "uint32",
					"name": "",
					"type": "uint32"
				}
			],
			"stateMutability": "view",
			"type": "function"
		},
		{
			"inputs": [
				{
					"internalType": "address",
					"name": "_lib",
					"type": "address"
				},
				{
					"internalType": "address",
					"name": "_to",
					"type": "address"
				},
				{
					"internalType": "uint256",
					"name": "_amount",
					"type": "uint256"
				}
			],
			"name": "withdrawFee",
			"outputs": [],
			"stateMutability": "nonpayable",
			"type": "function"
		},
		{
			"inputs": [
				{
					"internalType": "address",
					"name": "_lib",
					"type": "address"
				},
				{
					"internalType": "address payable",
					"name": "_to",
					"type": "address"
				},
				{
					"internalType": "uint256",
					"name": "_amount",
					"type": "uint256"
				}
			],
			"name": "withdrawFeeFromUlnV2",
			"outputs": [],
			"stateMutability": "nonpayable",
			"type": "function"
		},
		{
			"inputs": [
				{
					"internalType": "address",
					"name": "_token",
					"type": "address"
				},
				{
					"internalType": "address",
					"name": "_to",
					"type": "address"
				},
				{
					"internalType": "uint256",
					"name": "_amount",
					"type": "uint256"
				}
			],
			"name": "withdrawToken",
			"outputs": [],
			"stateMutability": "nonpayable",
			"type": "function"
		},
		{
			"inputs": [],
			"name": "workerFeeLib",
			"outputs": [
				{
					"internalType": "address",
					"name": "",
					"type": "address"
				}
			],
			"stateMutability": "view",
			"type": "function"
		}
	]
}